S01200004578616D706C653030312E73726563B5
S21408000080E40720612108005D2108005D210800C2
S2140800105D2108005D2108005D2108000000000041
S2140800200000000000000000000000008902080030
S2140800305D210800000000000503080041030800D1
S2140800405D2108005D2108005D2108005D2108008B
S2140800505D2108005D2108005D2108005D2108007B
S2140800605D2108005D21080000000000CD1F080083
S214080070E11F0800F51F080009200800000000001E
S214080080000000005D2108005D2108005D210800D1
S2140800905D2108005D2108005D2108005D2108003B
S2140800A05D210800000000005D2108005D210800B1
S2140800B05D2108005D2108005D2108005D2108001B
S2140800C05D2108005D2108005D2108005D2108000B
S2140800D05D2108005D2108005D2108005D210800FB
S2140800E05D2108005D2108005D2108005D210800EB
S2140800F05D21080010B5054C237833B9044B13B1BD
S2140801000448AFF300800123237010BDB009072010
S2140801100000000068790800084B10B51BB10849B4
S2140801200848AFF300800848036803B910BD074BBA
S214080130002BFBD0BDE81040184700BF00000000A9
S214080140B4090720687908006879080000000000EC
S21408015090B92DE9F0410C469046002A0FDD8F181D
S214080160084E094D306821462B6898470134A74247
S214080170F8D14046BDE8F0814FF0FF3070470020C8
S214080180BDE8F08194AC07208CAC0720436913F0D7
S214080190020F1DBFC1F30801C1610020012070478E
S2140801A0436913F0010F05D08369C3F308030B6096
S2140801B0002070470120704700F1080343604FF0A5
S2140801C0FF328260C360036100230360704700BF8C
S2140801D000230361704700BF43685A684A60426854
S2140801E08A605A6891605960416008610368013303
S2140801F00360704710B40C68B4F1FF3F01D103697F
S2140802000AE000F10803C2681268944204D35B68E7
S2140802105A6812689442FAD25A684A6091608B60AB
S2140802205960086103680133036010BC704700BF5B
S214080230436882689A60836842685A6003695A68A5
S214080240904204BF82685A60002202611A68013A26
S2140802501A601868704700BF03480068006880F393
S214080260088862B600DF00BF08ED00E04FF0807334
S21408027040F8043C40F8081C002340F80C3C40F8C2
S214080280202C4038704700BF064B19680868B0E84D
S214080290F00F80F309884FF0000080F311884EF0C5
S2140802A00D0E70478CAA07204FF08052014B1A603B
S2140802B0704700BF04ED00E0EFF311804FF0A00197
S2140802C081F311887047002008B5034B9847034A06
S2140802D013680133136008BDB90208002C01072013
S2140802E080F31188704700BF08B5044A1368013BBD
S2140802F0136013B90020024B984708BD2C0107204D
S214080300E1020800EFF309800C4B1A6820E9F00FA9
S21408031010602DE908404FF0A00080F3118801F026
S2140803205DF84FF0000080F31188BDE808401968B2
S2140803300868B0E8F00F80F3098870478CAA072091
S21408034008B54FF08052054B1A60054B9847054B89
S21408035098470020044B984708BD00BF04ED00E00E
S214080360B9020800E9100800E1020800034A044B35
S2140803701A600722043B1A60704700BF1F48010036
S21408038014E000E010B5094B1A6842F470021A60CF
S2140803901A6842F070421A60054B98470024054BCD
S2140803A01C60054B9847204610BD00BF20ED00E0B6
S2140803B06D0308002C01072059020800124A00E0C5
S2140803C01A4613688342FBD310B451685418A042E7
S2140803D003D1406801445160104641684418A3425E
S2140803E00CD10A4B1B689C4206D0636819444160CE
S2140803F013681B68036002E0046000E00360904234
S21408040018BF106010BC7047D4A90720D0A90720D1
S21408041038B504462B4B98472B4B1B689BB92B4A81
S2140804202B4B13600021516049F6F0729818264D40
S214080430286049F6F475595199505A601860254A4B
S2140804401368103B1360002C37D004F1100212F02A
S214080450070F1CBF22F007020832511E49F6FE732A
S214080460994227D819490C6801E021461C4663685A
S2140804709A4202D92368002BF7D1134B1B689C427B
S21408048018D00D68103523680B6063689B1A202BFC
S21408049004D9A018436062600F4B98470D4A13684A
S2140804A061685B1A13600D4B98474DB90C4B98471B
S2140804B0002505E0094B9847F8E7084B9847F5E705
S2140804C0284638BDB9100800D0A90720D4A90720A7
S2140804D0D009072030010720BD0308004512080090
S2140804E00D36080080B110B50446084B9847084AF0
S2140804F054F80C1C13680B441360A4F11000054B49
S2140805009847054B984710BD704700BFB9100800BC
S21408051030010720BD0308004512080010B5044640
S214080520036C3BB903681BBB4068134B9847002312
S21408053063601DE06AB91A468068104B9847A2683F
S214080540236C1344A3606268934211D32368A360A4
S2140805500EE01A46C068094B9847236C5B42E2686F
S2140805601A44E26021688A4202D262681344E36051
S214080570A36B0133A36310BDC117080089360800B2
S21408058038B50346006858B11A6CDC681444DC6059
S2140805905D68AC4228BFD8600846D968014B9847C2
S2140805A038BD00BF89360800F8B504461E4B984784
S2140805B0A36C002B13DD636A1BB910E0636A23B9CA
S2140805C00DE004F12406194D194F3046A84700B12E
S2140805D0B847A36C013BA364A36C002BEEDC4FF07A
S2140805E0FF33A364134B98470F4B9847636C002B55
S2140805F013DD23691BB910E0236923B90DE004F164
S21408060010060A4D0A4F3046A84700B1B847636C33
S214080610013B6364636C002BEEDC4FF0FF336364CE
S214080620044B9847F8BD00BFC902080069150800C2
S214080630A9160800E902080038B518B9174B9847F4
S21408064000BFFDE70D460446154B98472268216C07
S214080650E36B03FB01F3D01860600020A063A26080
S2140806605B1A1344E3604FF0FF336364A36455B921
S21408067023697BB104F110000A4B9847012809D179
S214080680094B984706E004F11000084DA84704F106
S2140806902400A847064B9847012038BDB902080031
S2140806A0C902080069150800A9020800B90108006F
S2140806B0E90208002DE9F843E0B10E46154607465C
S2140806C05020264B98470446A0B106FB07F0013099
S2140806D0224B9847206080B9214B595D01F14000B4
S2140806E00022C0B21F4B984720461F4B984701E090
S2140806F000BFFDE71D4B9847FAE7E763266401212C
S21408070020461B4B984784F84D502046194FB8474B
S214080710134E305C184B984784F84C002046B84770
S214080720355C1835EDB22046B84716F800902046D6
S214080730DFF84C80C047024649462846094B98478A
S2140807402046B847355C2046C04700220146284662
S2140807500A4B98472046BDE8F88300BF11040800F6
S21408076040010720252B0800E5040800B902080008
S2140807703906080081300800C5250800A52E08009F
S214080780753008002DE9F04F87B001910392029367
S21408079018B96C4B984700BFFDE70446019B2BB978
S2140807A0036C33B1674B984700BFFDE74FF000086E
S2140807B001E04FF00008644EDFF8C891634DB0477B
S2140807C0A26BE36B9A4239D22046DFF8A081C04775
S2140807D05F4F3D5C2035EDB22046C04717F800A0B5
S2140807E020465C4EB0470246514628465A4B984724
S2140807F02046C0473D5C2046B04706462046C047D0
S2140808003B5C022B1DBFA26B0132D2B200223146DE
S2140808102846524B9847029A01992046504B9847CB
S214080820636A3BB104F124004E4B9847012801D176
S2140808304D4B9847454B9847012080E0039BABB942
S214080840424B98472046494FB847414E355C483595
S214080850EDB22046B847365C20463E4B98470246DF
S214080860314628463C4B9847002068E0B8F1000F10
S21408087003D104A8C8474FF00108A8473C4B98473F
S214080880B047636CB3F1FF3F04BF00236364A36CF7
S214080890B3F1FF3F04BF0023A364A84703A904A835
S2140808A0344B9847002832D1B047D4F838A0E76BC5
S2140808B0A847BA4525D12046DFF8B0B0D847DFF8B4
S2140808C090A01AF800707037FFB22046D8471AF87A
S2140808D000A020461F4B98470246514638461E4BF6
S2140808E09847039904F11000234B98472046234B5A
S2140808F09847234B984700287FF461AF1A4B9847D0
S2140809005DE720461D4B98471D4B984757E72046FE
S2140809101A4B98471A4B98472046144FB8470C4E20
S214080920355C4835EDB22046B847365C2046094B5C
S2140809309847024631462846074B9847002007B096
S214080940BDE8F08FB9020800C9020800E9020800ED
S2140809504001072075300800252B0800A52E080042
S2140809601D05080069150800A9020800813008005E
S214080970B91008002516080099140800A9050800EB
S21408098045120800FD1508002DE9F04F83B00193C5
S21408099018B9384B984700BFFDE789469046044685
S2140809A029B9036C1BB1334B984700BFFDE7314BA1
S2140809B098470090A26BE36B9A423BD220462E4F94
S2140809C0B8472E4E355C3035EDB22046B84716F897
S2140809D000B02046DFF8B8A0D04702465946284659
S2140809E0274B98472046B847355C2046D047A26B29
S2140809F00132D2B201462846224B9847019A494608
S214080A002046214B9847A36CB3F1FF3F0DD1636A8C
S214080A1023B304F124001D4B984708B3B8F1000F20
S214080A2020D00124C8F800401DE0A36C0133A3645D
S214080A30012418E02046104FB847104E355C58354C
S214080A40EDB22046B847365C2046114B984702461A
S214080A50314628460A4B9847002404E0012402E061
S214080A60012400E0012400980A4B9847204603B06A
S214080A70BDE8F08FB9020800813008004001072061
S214080A80252B0800A52E08001D0508006915080076
S214080A9075300800E10208002DE9F04F87B0009194
S214080AA00392029318B98C4B984700BFFDE704469B
S214080AB0009B2BB9036C33B1874B984700BFFDE703
S214080AC04FF0000801E04FF00008844EDFF85CB2F3
S214080AD0834DB047A36B002B67D0E7680099204684
S214080AE0804B9847029B002B3ED120467E4FB84746
S214080AF07E4E355C2835EDB22046B84716F800908D
S214080B002046DFF80882C047024649462846784B02
S214080B1098472046B847355C2046C047804620465A
S214080B20B847335C022B05D1724B9847724B9847EF
S214080B30024602E0A26B013AD2B2414628466F4B03
S214080B409847A36B013BA363236813B96C4B98477C
S214080B50606023692BB304F110006A4B984701289C
S214080B601FD1694B98471CE02046DFF87C81C047B8
S214080B705E4E355C7835EDB22046C047365C20467A
S214080B80624B9847024631462846594B9847E760D5
S214080B90636A33B104F124005A4B984708B15A4B9C
S214080BA098474F4B9847012092E0039BABB94C4BB4
S214080BB0984720464C4FB8474C4E355C5035EDB2FA
S214080BC02046B847365C2046504B98470246314682
S214080BD02846474B984700207AE0B8F1000F03D123
S214080BE004A8D8474FF00108A847494B9847B0478C
S214080BF0636CB3F1FF3F04BF00236364A36CB3F1D7
S214080C00FF3F04BF0023A364A84703A904A8414BD9
S214080C109847002844D1B047A76BA847002F39D17A
S214080C202046DFF8C490C847DFF8C0A01AF800705E
S214080C306837FFB22046C8471AF8003001932046A6
S214080C40324B9847024601993846294B9847204622
S214080C50C8471AF80030022B05D0264B9847264B73
S214080C6098472D4B9847236823B9B04760682B4BA5
S214080C709847A847039904F12400294B984720462B
S214080C80284B9847284B984700287FF422AF1E4BDE
S214080C9098471EE72046234B9847234B984718E764
S214080CA02046204B9847204B984720460E4FB8477B
S214080CB00E4E355C5035EDB22046B847365C2046B9
S214080CC0124B9847024631462846094B984700205B
S214080CD007B0BDE8F08F00BFB9020800C9020800D7
S214080CE0E902080081050800813008004001072055
S214080CF0252B08009D3008008D300800A52E08001A
S214080D00C116080069150800A90208007530080011
S214080D10B91008002516080035300800ED1608003A
S214080D2099140800A905080045120800FD150800D2
S214080D3090F84C00704700BF90F84D00704700BF11
S214080D4038B504460D460D4B9847636CB3F1FF3F24
S214080D5004BF00236364A36CB3F1FF3F04BF002302
S214080D60A364074B9847A36B23B9294604F12400CC
S214080D70044B98472046044B984738BDC9020800DC
S214080D80E9020800F9140800A905080010B50F4B79
S214080D901B6858600E4B1B68984207D20D4B1868A4
S214080DA00A4B196804310C4B984710BD04460B4B88
S214080DB01868064B19680431074B9847084B1B6898
S214080DC09C423CBF064B1C6010BD00BF8CAA072087
S214080DD0E4A907204CAA0720F501080064AA072002
S214080DE0340107202DE9F04F83B001930C9FDDF8FE
S214080DF034A00E9E009018B9754B984700BFFDE7C3
S214080E0089461546042F03D9714B984700BFFDE75E
S214080E104C20704B98470446002800F0A480002E0B
S214080E2040F09E80A8006B4B9847206318B9204670
S214080E30694B984797E0AA00A521684B984705F1A3
S214080E408045013D236B03EB850323F0070504F17A
S214080E5034080A2249464046614B9847002384F8DE
S214080E603D303E46042F28BF0426E662A66404F1F9
S214080E7004094846DFF8D0B1D84704F11800D84727
S214080E802461C6F10506A6616462019A009928469F
S214080E90544B9847206010F0070F03D04C4B9847E8
S214080EA000BFFDE7BAF1000F01D0CAF800404E4B6C
S214080EB098474E4A1368013313604D4B1B680BBBAB
S214080EC04B4B1C601368012B26D14A4D05F1640A6A
S214080ED0494E2846B04714355545FAD1DFF86CA177
S214080EE05046454DA847454E3046A8474448A8476B
S214080EF04448A8474448A847444BC3F800A0444B76
S214080F001E6009E0434B1B6833B9394B1B68DB6A24
S214080F109F4224BF364B1C60E36A3F4A12689342DE
S214080F2084BF3D4A13603D4A136823640133136047
S214080F3020463B4B98473B4B9847E06A3A4B1B6822
S214080F40984218D9384B186015E0294B1B68DB6A9D
S214080F509F4203D9354B9847012036E0012034E0FC
S214080F600663304667E7002203214320304B984744
S214080F704FF0FF3029E000EB800049461D4B03EB9D
S214080F8080002C4B984703202B4B984760642046DC
S214080F90234DA847424601460320284B984720463B
S214080FA0A84794F82C2001460320254B984720464E
S214080FB0A847024603211B201D4B9847214B9847FC
S214080FC0144B1B68002BC0D1012003B0BDE8F08F7E
S214080FD0B902080011040800E5040800753708007F
S214080FE0CD3908006D020800C902080068AA072063
S214080FF08CAA0720E8A90720B9010800B8AA072084
S2140810006CAA072050AA072090AA072064AA0720DF
S2140810104CAA072080AA0720D8AA072088AA072053
S2140810208D300800752A0800DCA90720A9020800E8
S214081030252B0800D9010800C52508001127080037
S214081040F12D0800E9020800D1010800A4AA07202B
S21408105010B584B000230393029301930093822271
S2140810600D490E480E4CA04701280ED10D4B984747
S21408107001280AD10C4B984701220C4B1A60002213
S2140810800B4B1A600B4B984704E018B9064B984769
S21408109000BFFDE704B010BDBC6508005913080082
S2140810A0E50D080009190800B902080080AA0720FB
S2140810B0E4A9072085030800024A13680133136071
S2140810C0704700BFCCAA072010B5044B9847044BBE
S2140810D01C68044B9847204610BD00BFC90208008C
S2140810E0E4A90720E90208002DE9F041454B1B68F2
S2140810F0012B02D0444B1B6833B9444A13680133AA
S21408110013600020424B98473E4B1A681B68002B1A
S21408111071D1404B1A6801321A601B6803BB3E4BFC
S2140811201B681B681BB13D4B984700BFFDE73A4B51
S21408113019683B4A1068186011603A490A68013213
S2140811400A601B681B6823B94FF0FF32364B1A60DB
S21408115006E0314B1B68DB68DB685A68324B1A605E
S2140811602C4B1A68304B1B689A4248D32A4B1B688C
S2140811701B686BB1284B1B68DB68DC686368254A0C
S2140811801268934213D8294EDFF8B480284F12E02D
S2140811904FF0FF32244B1A60BDE8F0811E4B1B68E7
S2140811A0DB68DC6863681B4A1268934203D91E4AE8
S2140811B01360BDE8F081251D2846B047A36A13B121
S2140811C004F11800B0472046C047B847E06A194BF4
S2140811D01B68984284BF174B186000EB80002946AE
S2140811E0154B03EB8000154B98470B4B1B681B6889
S2140811F0002BD3D1CCE7044A136801331360BDE84B
S214081200F08100BFCCAA0720D0AA072038AC072058
S214081210C1290800E4A9072064AA0720B902080023
S2140812204CAA0720D4AA0720340107203102080058
S214081230752A0800DCA90720E8A90720D9010800B4
S2140812408D3008002DE9F843324B1B681BB9324B2A
S214081250984700BFFDE7314B98472E4B1A68013A6E
S2140812601A601B68002B4DD12D4B1B682BBB002426
S2140812704BE0FB68DC6804F11800B04704F104088A
S2140812804046B0472046C847264B9847E06A264B54
S2140812901B68984284BF244B186000EB80004146C8
S2140812A0224B03EB8000224B9847224B1B68E26ACE
S2140812B0DB6A9A4228BF012504E000251E4F1F4E10
S2140812C0DFF890903B68002BD3D11D4B1B6863B1A9
S2140812D01B4B1B687BB11B4D194CA8472368013B69
S2140812E023602368002BF8D105E0012D03D0164BA8
S2140812F01B68012B08D10022134B1A60134B984722
S214081300012402E0002400E00024114B9847204600
S214081310BDE8F883CCAA0720B9020800C90208006D
S21408132068AA0720752A0800DCA90720E8A907206C
S214081330D90108008CAA07206CAA072031020800E9
S214081340D0AA0720E910080084AA0720A9020800E6
S214081350E90208008D30080080B5154D154FDFF8F6
S2140813607480154E19E0C0473C68B047ACB1134BC3
S2140813709847FB68DC68201D114B9847114A13688C
S214081380013B13602B68013B2B600F4B9847206B83
S214081390DFF84490C8472046C8472B68002BE2D1A0
S2140813A00A4B1B68012BDCD9094B9847D7E700BFC7
S2140813B0E0A9072050AA072045120800C90208001D
S2140813C03102080068AA0720E9020800E8A90720F1
S2140813D0A9020800B9100800E504080010B5254B56
S2140813E01B686BB9244B1B6803EB83039B00234ADB
S2140813F0D358CBB9204B1B6843B11F4A1F4909E095
S21408140001221F4B1A6010BD13681BB91D4B984765
S21408141000BFFDE71368013B1360136803EB830303
S21408142051F82330002BEFD0134B1B68134A990052
S214081430C81802EB800044686468446002460832B4
S214081440944206D1606803EB83010C4A02EB8102E2
S214081450506003EB8303094A02EB83035B68DA6890
S214081460094B1A60094B9847094B9847094B984708
S21408147010BD00BFCCAA0720DCA90720E8A90720D2
S21408148084AA0720B90208008CAA07209D30080005
S2140814908D300800592F080038B518B90E4B9847F4
S2140814A000BFFDE70C460D4D296818310C4B9847D0
S2140814B0286804300B4B9847B4F1FF3F05D12968DC
S2140814C004310948094B984738BD094B1868204429
S2140814D0084B984738BD00BFB90208008CAA0720F9
S2140814E0F50108003102080090AA0720D901080073
S2140814F0E4A907208D0D080070B518B9104B984759
S21408150000BFFDE70C460F4D296818310E4B98476B
S214081510286804300D4B98470D4B1B681C44214621
S21408152088200C4B984728680B4EB0470B4DA847A9
S2140815300B4B9847B047A84720460A4B984770BDBC
S214081540B90208008CAA0720D90108003102080051
S214081550E4A90720292D08008D300800353008003A
S2140815609D3008008D0D080038B5C368DC681CB9C6
S214081570184B984700BFFDE704F118052846164B98
S2140815809847164B1B68C3B9251D2846124B984723
S2140815902046134B9847134B9847E06A124B1B6834
S2140815A0984284BF104B186000EB800029460F4B0A
S2140815B003EB80000E4B984703E029460D480C4B7A
S2140815C098470D4B1B68E06ADB6A984234BF0020D8
S2140815D0012038BDB902080031020800CCAA07204D
S2140815E08D300800752A0800DCA90720E8A907201E
S2140815F0D90108006CAA07208CAA072008B518B9D4
S214081600054B984700BFFDE7044A12680260044A83
S2140816101268426008BD00BFB9020800D4AA0720B5
S214081620E4A9072038B518B9194B984700BFFDE755
S2140816300D46044619B9164B984700BFFDE7154BEB
S21408164098472B68B3F1FF3F18D0134A12682168F1
S214081650914204D0114A12686168914210D90F4A23
S21408166011686068091A8B420CD91268121A9B1AFC
S2140816702B6020460A4B9847002404E0002402E02A
S214081680012400E00124074B9847204638BD00BFD8
S214081690B9020800C9020800D4AA0720E4A907204E
S2140816A0FD150800E90208000122014B1A60704780
S2140816B084AA072008B1406C70470020704700BF16
S2140816C0014B1868704700BF8CAA0720054B1B689B
S2140816D033B1054B1B68002B0CBF01200220704756
S2140816E00020704780AA0720CCAA0720002851D0DF
S2140816F070B50446C36A284A1268D26A934248D22A
S214081700254A1268D26AC2F10502826103EB830396
S214081710224A02EB830342699A421CD1051D2846D9
S2140817201F4B98471C4B1B68DB6AE36220461D4B21
S21408173098471D4B9847E06A1C4B1B68984284BF25
S2140817401A4B186000EB80002946144B03EB800008
S214081750174B984703E0104B1B68DB6AC3622046AA
S214081760104DA84706462046A84701460320114BB9
S21408177098470346324603218E200F4EB047204630
S214081780A847054B1B6893F82C20014603200B4BF3
S214081790984770BD704700BF8CAA0720E8A90720A5
S2140817A0310208008D300800752A0800DCA90720D9
S2140817B0D9010800492E0800192C0800F12D080048
S2140817C000283AD0F8B50446C26A836C9A4233D0E9
S2140817D0061D3046194B98472046194DA847074618
S2140817E02046A84701460320164B984703463A4624
S2140817F003218F20144FB8472046A84794F848205E
S21408180001460320114B9847A36CE362C3F1050316
S214081810A3612046A8470E4B9847E06A0D4B1B6805
S214081820984284BF0B4B186000EB800031460A4B89
S21408183003EB8000094B9847F8BD70473102080053
S2140818408D300800492E0800192C0800F12D0800D4
S214081850752A0800DCA90720E8A90720D90108008E
S21408186008B54160006191420AD8D21A83699A4243
S21408187011D2011D0A4B18680A4B9847002008BD6C
S2140818809A4201D2994208D2011D074B1868054BA7
S2140818909847002008BD012008BD012008BD00BFEC
S2140818A010AB0720F5010800DCAA072070B50D4B21
S2140818B098470D4B1B688BB90C4D28460C4EB04705
S2140818C00C4C2046B0470C4B1D600C4B1C6000228D
S2140818D00C2105200A4B9847034B1860094B98477C
S2140818E070BD00BFC90208000CAB0720E0AA07209D
S2140818F0B9010800F4AA0720DCAA072010AB0720C5
S214081900B5060800E902080010B584B00C4B9847E5
S2140819100C4B1B686BB10023039302930A4A01928F
S214081920042200924FF4827208490948094CA047DD
S21408193018B9094B984700BFFDE704B010BD00BFB3
S214081940AD1808000CAB072014AB0720C8650800C4
S214081950651A0800E50D0800B902080030B585B01C
S2140819600F4C2568CDB11C460191029203906CB9C4
S2140819700C4B984701284FF000030CBF089A1A46EC
S21408198001A907480068084CA04707E0002322463C
S21408199001A92846054CA04700E0002005B030BD48
S2140819A00CAB0720CD160800850708008909080033
S2140819B02DE9F04782B08146224B98478046224B55
S2140819C01B68984234D224E0DA68D2F800A0DB68B4
S2140819D0DC68251D2846B847636A20469847E369A9
S2140819E0012B18D1A36953449A4506D26360246133
S2140819F029463068154B98470DE0002100910B46A4
S214081A0052462046124CA04728B9124B984700BFAA
S214081A10FDE7114E114F33681A68002AD4D1104AD0
S214081A2010680D49086013600123C9F8003002E009
S214081A300023C9F80030044BC3F80080404602B0C3
S214081A40BDE8F087C910080008AB0720F5010800B4
S214081A505D190800B9020800DCAA07203102080050
S214081A6010AB07202DE9F04387B04D4DDFF86081B5
S214081A704C4B1B681A68002A00F08880DB681E68D2
S214081A80494B984703A8494B98470746039B002BA2
S214081A9030D1864224D8464B9847424B1B68DB68B1
S214081AA0DC68201DC047E369012B14D1A1693346C1
S214081AB03A46314420463F4FB84701280BD100210B
S214081AC000910B46324620463B4EB04718B93B4B72
S214081AD0984700BFFDE7636A204698470CE0002653
S214081AE0F11B2868364B9847314B984720B9354B39
S214081AF0984701E02E4B984702A82C4B9847074674
S214081B00314EDFF8B09039E0059C1CB163690BB123
S214081B10201DC047039B022B20D0032B2BD0002B65
S214081B202CD10499A0690B463A4601442046C8477A
S214081B30012823D1636A20469847E369012B1DD103
S214081B40A269002100910B460498024420461A4CCC
S214081B50A04798B9194B984700BFFDE70499A161BB
S214081B6019B9164B984700BFFDE73B463A46394435
S214081B702046C84702E02046144B984700231A46DA
S214081B8003A92868B0470028BED171E7064B9847D6
S214081B9003A8064B98470746039B002B9FD0A9E748
S214081BA00CAB0720DCAA0720B9100800B1190800FA
S214081BB045120800611808005D190800B9020800F7
S214081BC0410D0800A9020800990A0800E504080063
S214081BD0310208000138022815D82DE9F0410E46D2
S214081BE014469AB10D46DFF838800C4FD8F8000036
S214081BF015F8011B3B68984700280ADBA81B013C20
S214081C00F4D1BDE8F0814FF0FF3070470020BDE802
S214081C10F0814FF0FF30BDE8F08100BF90AC0720A0
S214081C2094AC072010B4AC2303600B684A68B3FB77
S214081C30F2F31B095C1E4FF6FE7294420AD8036242
S214081C408B68436040F20223C0F8203150230360BB
S214081C50002000E0012010BC704700BF436913F065
S214081C60020F1ABFC161002001207047436913F0B4
S214081C70010F1DBF83690B7000200120704700BF4D
S214081C8010B50E480E4B98473E2100200D4B98473E
S214081C900D4CA0470028FCD00C4B98470C4A0D4B1F
S214081CA09A620D4CA0470028FCD010200B4B984792
S214081CB00B4B98470148024B984710BD00BD0105DD
S214081CC0A500072085200800D9200800E92008007C
S214081CD0013F0D2000060E40F92008001D200800D0
S214081CE00D22080010B54FF40042164B5A600B2020
S214081CF0154CA0470C20A0470D20A0470E20A04753
S214081D004FF060513B20114CA0474FF060515520D2
S214081D10A0474FF060515620A0470D496820A047BD
S214081D200C495C20A0470C4A4FF440710B480C4BFA
S214081D3098474FF000612B20A0474FF000612A20FB
S214081D40A04710BD501A0E4009210800091E0800B9
S214081D50790000280100002801000008000E0E4047
S214081D60DD1E08004264B1F1805F16D004D8C1B108
S214081D70B1F1006F0AD013E0B1F1405F11D0B1F1B4
S214081D80605F0ED0B1F1205F0AD17047016F036F14
S214081D900B4023EA0203036702E0036F134303675B
S214081DA042607047416412F0010F14BF4166016635
S214081DB012F00A0F14BF0162416212F0020F02D03D
S214081DC0C0F8801004E012F0080F18BFC0F884109E
S214081DD041610160704700BF10B44164019C0CB1BA
S214081DE0416600E001660BB1016500E041650AB195
S214081DF0016300E041630161016010BC704700BFE9
S214081E00C06C7047806C704770B582B00D46430949
S214081E1003F5001303F207735C0201F0F043B3F115
S214081E20205F30D006D8B3F1006F0AD0B3F1805FD8
S214081E3018D049E0B3F1405F30D0B3F1605F2DD0E1
S214081E4042E000F01F000126864032464FF000614F
S214081E5020461F4B984715F0010F14BF6666266686
S214081E60012032E000F01F000126864032464FF07F
S214081E7080512046164B984715F0010F14BF66662A
S214081E802666012021E000F01F0101262A4606FAF0
S214081E9001F120460F4B9847304616E005F0605291
S214081EA000F01F01012605EA06030093C5F3800328
S214081EB0B2F1605F14BF0022012206FA01F1204643
S214081EC0054CA047304600E0002002B070BD00BFB9
S214081ED0651D0800A51D0800D91D080070B582B04C
S214081EE005460E46144602F0F043B3F1205F26D0AE
S214081EF006D8B3F1006F0AD0B3F1805F13D034E090
S214081F00B3F1405F1FD0B3F1605F1CD02DE00A46E6
S214081F104FF00061164B984714F0010F14BF6E6619
S214081F202E66012022E00A464FF08051104B984753
S214081F3014F0010F14BF6E662E66012016E00D4BD6
S214081F409847012012E004F0605204F00103009361
S214081F50C4F38003B2F1605F14BF00220122314649
S214081F602846054CA047012000E0002002B070BDBE
S214081F70651D0800A51D0800D91D08002DE9F041BB
S214081F80044688460E4B9847054620460D4B98470C
S214081F90054013D00C4C04F160062368434508D16D
S214081FA06168294205D0E36840469847636825EA91
S214081FB00305B44202D01034002DEED1BDE8F081FE
S214081FC0011E0800051E080018AB072008B50B21DF
S214081FD00148024B984708BD000E0E407D1F0800BA
S214081FE008B50C210148024B984708BD00100E4062
S214081FF07D1F080008B50D210148024B984708BD0B
S21408200000120E407D1F080008B50E210148024B3D
S214082010984708BD00140E407D1F0800184A136B29
S21408202023F0700318431063936E13F0080F03D061
S21408203009E0013B03D11EE04FF4006310498A6EA5
S21408204012F0080FF5D00E4A136B23F0030343F083
S21408205002031363906E10F0080004D00020704747
S214082060013B03D109E04FF4006305498A6E12F07C
S214082070080FF5D07047012070470120704700BF51
S21408208000060E4038B111490B6A114A1A40114B26
S21408209013430B6270470D48026A090289B222F49C
S2140820A05C1323F0030343F45C1343F001030B4370
S2140820B003620246936E13F0010FFBD0034A136ABD
S2140820C043F09B7343F480331362704700060E4058
S2140820D0FCFFC8FE02003701024B986E00F4803001
S2140820E0704700BF00060E404FF00052014B9A6240
S2140820F0704700BF00060E40024B986E00F00200C4
S214082100704700BF00060E402C281ED81F280CD883
S214082110114B9A6901238340934318D0012303FA8D
S21408212000F00D4B18610020704720380A4BD3F892
S21408213008210123834093430BD0012303FA00F0C0
S214082140054BC3F8000100207047012070470020A7
S21408215070470020704700BF00060E40FEE700BF2D
S21408216008B51E4B1E4A9A4203D01E4B1B4A9A427B
S21408217004D31D4B1D4A9A420FD31AE017491C4B2D
S2140821805B1A23F003030433154A134452F8040B6E
S21408219041F8040B9A42F9D1EBE7164B164AD21AC5
S2140821A022F003021A44043B002143F8041B93421E
S2140821B0FBD1124B23F0604222F07F0210498A605E
S2140821C003F16043B3F5801F03D28B6843F00053D6
S2140821D08B600C4B98470C4B9847FEE7000007208F
S2140821E068790800AC09072080C40720B0090720D2
S2140821F0AB090720B409072083C40720000008009D
S21408220000ED00E0113608002D3508003E4B1B6B2C
S21408221003F00303032B5FD8DFE803F0020E2B2B33
S2140822203A4B5B6913F0800F14BF4FF400424FF42B
S214082230FA42374B1A604FE0334B1B6A13F0807F25
S21408224003D0344A324B1A6046E0334A304B1A60A1
S2140822502D4B1B6A03F07003102B02D0202B04D0E2
S2140822603AE02E4A2A4B1A6036E02A4A284B1A6069
S21408227032E0254B1B6A13F0807F03D0254A244B97
S2140822801A6012E0244A224B1A601F4B1B6A03F09E
S2140822907003102B02D0202B04D006E01F4A1C4BDC
S2140822A01A6002E01B4A1A4B1A60174B1B6B03F0A6
S2140822B00303022B0DD1144A936A926A1448C3F397
S2140822C00A41036801FB0333D2B2B3FBF2F303609F
S2140822D002E0134A0E4B1A600B4B1B6B03F070039D
S2140822E0702B07D10A4A13680E49A1FB03135B0833
S2140822F013607047044B1B6B0549C3F302120B6847
S214082300D3400B60704700BF00060E40101A0E4000
S21408231038010720001BB70000093D0000127A00AC
S214082320001C4E0EABAAAAAA094B1B6813B9094A89
S214082330074B1A60064B1B681A180749914204DBBC
S2140823401046034A1060184670474FF0FF30704733
S21408235088AB072080E40720FC7F08204FF0FF307A
S214082360704700BF4FF400534B600020704700BF13
S214082370012070470020704710B518B90D48FFF7C0
S214082380FBFF10BD01460C4B1C681CB90B48FFF739
S214082390F3FF10BD00232363094B1B684BB9084B9A
S2140823A01860502204F2DC70064B98470123C4F8E4
S2140823B0D43710BDD0650800BCAB0720F865080008
S2140823C0B0AB0720CD3908002DE9F84F4D4B1B68F8
S2140823D04D4A126813444D4A13604D4D4D4C2C60BF
S2140823E04FF4BF52002120464B4B98474FF001034D
S2140823F063700223A3700323E370702323714FF0E6
S214082400710A84F805A04FF0720984F806904FF018
S214082410730884F80780F0232372F1276772F22680
S214082420A6724FF0F30B84F80BB041F6A123A381F4
S2140824300423A3734FF4BF5323614FF47A73A36145
S2140824404FF0F0336365354B98472C684FF0F133FF
S214082450C4F824344FF44873C4F828340123C4F865
S2140824602C344FF0F233C4F8D83750222C4904F2F3
S214082470DC702C4B98474FF0F333C4F82C380A22FC
S21408248041F2D473E2540B2241F2D573E2540C2283
S21408249041F2D673E2540D2241F2D773E25441F268
S2140824A0D87304F803A041F2D97304F8039041F2F4
S2140824B0DA7304F80380742241F2DB73E25441F2C3
S2140824C0DC73E75441F2DD73E65441F2DE7304F838
S2140824D003B0F42241F2DF73E254134B984729689D
S2140824E00B7843B94B1E0B3113F8012F01321A70C3
S2140824F08B42F9D102E00D480D4B98470D4B984793
S214082500BDE8F88F041000E048AC072078C4072020
S214082510BCAB072098AC072075370800A930080020
S2140825202C660800CD3908005531080040660800BA
S214082530792308006D29080008B50A4B1B681A6B32
S2140825406AB1D869B0F57A7F04D30748074B98472D
S214082550002008BD03EB800000F5036008BD0020DE
S21408256008BD00BFBCAB07206C66080079230800CE
S21408257010B5062904D90F480F4B9847002010BD00
S21408258030B10E4B1A68531893F86430834204D25D
S2140825900B48094B9847002010BD531893F8744011
S2140825A0431E02EB4101B1F87C2004FB032080B2F5
S2140825B010BD00BF9466080079230800BCAB07204E
S2140825C0D466080010B5062804D94C484C4B9847E2
S2140825D0002010BD4B4A32F810301A4492F83820C2
S2140825E042B94849CC185A1C01EB4001897B521A5B
S2140825F084F83820434A02EB4002928B9A4205D26E
S214082600414B98473E4B9847002010BD3D4AD1188D
S21408261091F8381001339BB222F8103002EB4004D0
S214082620E4891B1B02EB4002528D934204DD354AB7
S21408263002EB4002DBB2538506285DD8DFE800F0DF
S2140826400411202F5C3E4D00C808304C01F00702EC
S214082650012303FA02F2235C23EA02032354084602
S21408266010BD01F10B03D810284C03F00703012214
S21408267002FA03F3225C22EA03032354084610BD39
S21408268001F11603D810214C03F00703012202FAC1
S21408269003F3225C22EA03032354084610BD01F123
S2140826A02103D810194C03F00703012202FA03F39A
S2140826B0225C22EA03032354084610BD01F13103C5
S2140826C0D810124C03F00703012202FA03F3225C27
S2140826D022EA03032354084610BD01F13403D81038
S2140826E00A4C03F00703012202FA03F3225C22EAEB
S2140826F003032354084610BD084610BD1467080097
S21408270079230800C0AB0720A531080030AC0720A5
S21408271038B51AB91748184B984738BD04460846BE
S2140827201546062C03D91548134B984738BD19B9D2
S2140827301348114B984738BD124B1B68234493F82F
S21408274064308B4205D220460F4B98470A4B984771
S21408275038BD21460D4B98470D4B1B684BB9094BA6
S2140827601B681C44184494F86C2029468C30094B86
S214082770984738BD0C680800792308003C680800AC
S21408278068680800BCAB0720A5310800712508005A
S214082790B0AB0720CD3908002DE9F04118B1054641
S2140827A030B9BDE8F0811F481F4B9847BDE8F08157
S2140827B000241E4E2746DFF878803068C369234415
S2140827C04FEA830E00EB0E0292F8302802F16701FA
S2140827D0C9B20E290DD86832D2B2134481698B4229
S2140827E01BD201320EF5036E920039467044C0477C
S2140827F013E0012A11D101338269934207D20EF5FC
S214082800036E00EB0E0340F80E705F6005E0C0F83C
S21408281030780EF5036E40F80E700134AC42CCD119
S214082820BDE8F0819468080079230800BCAB07204F
S2140828307537080008B50A4B1B681A6B7AB15A69CF
S21408284001325A61DA690132DA61B2F57A7F03D366
S21408285001221A620022DA610120024B984708BD5D
S214082860BCAB07209927080030B583B00446002380
S2140828700193FF2808D04FF6FF73984204D02F48DC
S2140828802F4B9847002057E02E4B1B685A6A52B9C0
S2140828902D4A11682D4A12680A442D4909688A4249
S2140828A01CBF2C4A5A6201A82B4B9847019A2B4BFF
S2140828B01868151A1A60234B1B68596AD9B18D42D5
S2140828C00AD9B5FBF1F2D86A1044D86201FB125156
S2140828D09A6A1144996202E09A6A2A449A62194BE3
S2140828E01B689A6A596A8A4206D3D86A0130D8623F
S2140828F0521A9A6200E09A62A5421BD9184B98476A
S214082900C0B14FF6FF72944206D1A92202702A0C73
S2140829104280002242700BE0FF2C06D1A8220270EB
S2140829202A0A42802A0E427002E00E48044B984754
S2140829300D4B984705EA040003B030BDEC68080064
S21408294079230800BCAB0720041000E048AC072039
S21408295078C40720406F4001C1290800B4AB07209F
S214082960392508002C6908003528080008B50E4BDC
S2140829701A6842F080721A601B681BB90B480C4B29
S214082980984708BD0B4B1B6813F0007F03D00A4816
S214082990074B984708BD0022084B1A60054A13687B
S2140829A043F00103136008BDFCED00E0406B08002F
S2140829B079230800001000E0606B0800041000E0AF
S2140829C0114B1B68012B04D1E0B1104B1B68036048
S2140829D0704710B40E4B1A680E4B1B6813440E4A09
S2140829E01268991A0D4C22680A4402F00301216005
S2140829F0064C216801EB9202226000B10260064A8A
S214082A00136010BC704700BF40AC072044AC0720DA
S214082A10041000E048AC07203CAC07204CAC07206C
S214082A2038B505460C46FF2808D04FF6FF7398427F
S214082A3004D00C480C4B9847204638BDA5420FD208
S214082A400A4B984748B10123037024EA0503190A7C
S214082A5041701B0C4380064B984705EA040038BDB6
S214082A60204638BD886B08007923080039250800F9
S214082A7035280800002840D0204A1268002A3CD092
S214082A8070B504460F2803D91D481E4B984770BDDD
S214082A901D4B1B681BB11D481A4B984770BDEFF3BA
S214082AA01085012383F31088174A136801331360CF
S214082AB0174B1B681B6BCBB100F12103DA101549C5
S214082AC08A5C03F0070342FA03F313F0010F0DD1F3
S214082AD04FF6FF70104B98470646104B984728B19C
S214082AE002220270468044700D4B9847064A1368C7
S214082AF0013B136085F3108870BD70473C010720C2
S214082B00C46B080079230800B8AB0720046C0800DB
S214082B10BCAB072030AC0720692808003925080018
S214082B2035280800F8B50446FE2803D92B482C4B50
S214082B309847F8BD0846062903D92A48284B9847D7
S214082B40F8BD294B1B680B4493F86430934203D2B4
S214082B502648234B9847F8BD254B1B681BB12548CC
S214082B601F4B9847F8BD244B1B78002B34D0EFF347
S214082B701085012383F310881D490B6801330B6009
S214082B80194B1B681B6B0BB31C4B93F9003013B91E
S214082B901B4B1B78D3B9D6B231461A4B9847A8B9FF
S214082BA0E308194AD35C04F00702134113F0010F37
S214082BB00CD14FF6FF70154B98470746144B9847AD
S214082BC020B1478004704670124B9847084A13682D
S214082BD0013B136085F31088F8BD00BF746C0800CD
S214082BE079230800A86C0800BCAB0720EC6C08002A
S214082BF0B8AB0720306D080051AC072052AC072050
S214082C0050AC0720F53108008CAB0720692808006F
S214082C1039250800352808002DE9F0410446FE2825
S214082C2004D93148314B9847BDE8F08108461D461F
S214082C30062904D92E482D4B9847BDE8F0812D4B20
S214082C401B680B4493F86430934204D22A48274BF7
S214082C509847BDE8F081294B1B6823B12848234BC9
S214082C609847BDE8F081EFF31086012383F31088B8
S214082C7022490B6801330B601E4B1B681B6B53B352
S214082C80204B1B783BB3204B1B781BB11F4B93F98B
S214082C90003003B3D7B239461D4B9847D8B9E30876
S214082CA01C4AD35C04F00702134113F0010F12D13B
S214082CB0FF20194B984780462946FF20174B984710
S214082CC00546174B984730B180F803800470477064
S214082CD08570144B9847094A1368013B136086F3BE
S214082CE01088BDE8F08100BF686D080079230800E9
S214082CF0A06D0800BCAB0720EC6D0800B8AB072039
S214082D003C6E080051AC072050AC072052AC072098
S214082D10F53108008CAB072069280800212A08002E
S214082D203925080035280800F8B5FE2803D92348B1
S214082D30234B9847F8BD04460E46224B1B681BB12A
S214082D4021481F4B9847F8BDEFF31085012383F3FE
S214082D5010881C4A1368013313601C4B1B681B6BD6
S214082D6023B31B4B1B780BB31A4B1B781BB11A4BA0
S214082D7093F90030D3B1E308184AD35C04F007028D
S214082D80134113F0010F11D1FF20154B9847074642
S214082D9031464FF6FF70134B98470646124B984736
S214082DA020B1477004704680104B9847054A136850
S214082DB0013B136085F31088F8BD00BF746E0800E9
S214082DC079230800B8AB0720C86E0800BCAB0720FC
S214082DD051AC072050AC072052AC07208CAB07201C
S214082DE069280800212A080039250800352808001F
S214082DF038B50446062803D90E480F4B984738BD01
S214082E00084615460D4B1B68234493F864308B42DE
S214082E1003D20B48084B984738BD2146094B9847BC
S214082E20064B1B681C4494F86C201844104480F821
S214082E308D5038BD4470080079230800BCAB0720C5
S214082E408C7008007125080010B50446062804D9B9
S214082E500F48104B9847002010BD08460E4B1B68BD
S214082E60234493F864308B4204D20C48094B9847A5
S214082E70002010BD21460A4B9847074B1B681C4488
S214082E8094F86C201844104490F88D0010BD00BFCC
S214082E90CC70080079230800BCAB07201471080022
S214082EA07125080038B50446062803D90E480F4B86
S214082EB0984738BD084615460D4B1B68234493F8BB
S214082EC064308B4203D20B48084B984738BD2146DE
S214082ED0094B9847064B1B681C4494F86C2018440A
S214082EE0104480F88C5038BD5471080079230800C7
S214082EF0BCAB0720987108007125080010B5044679
S214082F00062804D90F48104B9847002010BD0846DD
S214082F100E4B1B68234493F864308B4204D20C484B
S214082F20094B9847002010BD21460A4B9847074B87
S214082F301B681C4494F86C201844104490F88C00C5
S214082F4010BD00BFD471080079230800BCAB072069
S214082F501872080071250800F8B50F2803D9284804
S214082F60284B9847F8BD044600F12103DA10264995
S214082F708A5C03F0070342FA03F313F0010F14BF49
S214082F8001230023214A1370EFF31085012282F3F0
S214082F9010881F490A6801320A601E4A127882425F
S214082FA026D01D4A1268126B12B30BBB00221B4BAD
S214082FB01A604FF6FF701A4B98470746154B1C7059
S214082FC0184B9847064698B1124B19780320164BAB
S214082FD0984701280CBF0723062333707780747040
S214082FE001220C4B19780320104B9847104B984732
S214082FF0074A1368013B136085F31088F8BD00BFC5
S214083000547208007923080030AC072050AC07201B
S214083010B8AB072051AC0720BCAB072054AC072040
S2140830206928080039250800FD2E0800A52E080086
S2140830303528080008B50B4B1B6893F867308342A1
S21408304003D20948094B984708BD0321084B9847FF
S214083050044B1B6893F86F2018441044002380F82C
S2140830608C3008BDBCAB072098720800792308008E
S2140830707125080008B5014B984708BD310D0800B2
S21408308008B5014B984708BD390D080008B5024B2E
S2140830909847C0B208BD00BFB516080008B5014B72
S2140830A0984708BDC1160800294B1B680722DA6531
S2140830B00A2283F8642083F8652083F866200F22A6
S2140830C083F86720052183F86810022183F86910C1
S2140830D083F86A1083F86C2083F86D2083F86E20D6
S2140830E083F86F2083F8702083F8712083F87220A5
S2140830F0102283F8742083F8752083F8762013212D
S21408310083F87710112083F8780083F8792083F8FD
S2140831107A100022A3F87C20A022A3F87E204FF481
S214083120A072A3F880204FF4F072A3F8822040F231
S214083130FD22A3F8842040F25232A3F8862040F2FB
S2140831407232A3F888204FF466721A66704700BF7A
S214083150BCAB0720124B0022DA811A800A221A8298
S2140831605A8014225A829A801E229A82DA802D2247
S214083170DA821A8132221A835A8134225A839A8131
S21408318009229A831322DA831D221A842C225A844F
S21408319031229A843322DA8435221A85704700BF92
S2140831A0C0AB0720062811D8DFE800F00A06081288
S2140831B0040C0E00074870470748704707487047D2
S2140831C007487047074870470748704707487047DA
S2140831D0074870471873080050730800947308006F
S2140831E0D07308000C740800487408008C74080033
S2140831F0E072080008B5062804D92F482F4B9847D0
S214083200012008BD2E4B1B68034493F864308B429C
S21408321004D22C48294B9847012008BD062846D8D2
S214083220DFE800F0250F1A04452F3A002131CB10AD
S21408323001F00701012000FA01F1234AD05C08409A
S21408324008BD0B31CB1001F00701012000FA01F18F
S2140832501D4AD05C084008BD1631CB1001F00701A6
S214083260012000FA01F1184AD05C084008BDCB08D6
S21408327001F00701012000FA01F1134AD05C08406A
S21408328008BD3131CB1001F00701012000FA01F129
S2140832900D4AD05C084008BD3431CB1001F0070158
S2140832A0012000FA01F1084AD05C084008BD07482A
S2140832B0024B9847012008BDBC7408007923080013
S2140832C0BCAB07200475080030AC0720447508001E
S2140832D008B5014B984708BDC923080038B51C4BEC
S2140832E01B6823B91B481C4B9847002038BD1B4B4E
S2140832F01B6843BBEFF31084012282F31088184939
S2140833000B6813440B60124B1B681A63154B9847DF
S214083310154B9847054668B90320144B9847054649
S214083320134A01460320134B9847002229460320D8
S214083330114B98472846114B9847094A1368013B92
S214083340136084F31088024B1B68186B38BD00BFE7
S214083350BCAB0720D075080079230800B0AB07205F
S214083360B8AB07209D3008008D300800C52508003A
S2140833701C76080011270800F12D0800592F0800B0
S214083380F0B583B004460D46002301931F4B9842C0
S21408339007D11F461E4E29463846B0470028FAD1A0
S2140833A019E01C4B984209D11F461B4E01A9384606
S2140833B0B0470028FAD1019B2B7019E0174B9842AA
S2140833C009D11E46144C01A93046A0470028FAD158
S2140833D0019B2B7018E0124B9C4209D11E460E4CDE
S2140833E001A93046A0470028FAD1019B2B700BE0B4
S2140833F00C4B9C4208D11E46074C01A93046A047F4
S2140834000028FAD1019B2B7003B0F0BD00080E40CF
S2140834106D1C080000800940A101080000C0094092
S21408342000000A4000400A4070B50C461E4B984201
S21408343008D11E461D4D21463046A8470028FAD119
S214083440012070BD1A4B984208D11E46194D2146D8
S2140834503046A8470028FAD1012070BD164B98427E
S21408346008D11E46134D21463046A8470028FAD1F3
S214083470012070BD114B984208D11E460D4D2146BD
S2140834803046A8470028FAD1012070BD0C4B984258
S21408349008D11E46074D21463046A8470028FAD1CF
S2140834A0012070BD002070BD00080E405D1C08009D
S2140834B0008009408D01080000C0094000000A404D
S2140834C000400A4030B583B0084D094C2846094BE1
S2140834D0984700230193019BA342F7D8019B013329
S2140834E00193019BA342F9D9F0E700BFAC78080026
S2140834F0FEFF0F006136080030B583B0084D094C52
S2140835002846094B984700230193019BA342F7D806
S214083510019B01330193019BA342F9D9F0E700BF51
S214083520C0780800FEFF0F006136080000B589B0B5
S214083530214B9847214B98470820214DA847214CF6
S214083540214B1C60214A224B1A60224A224B1A60E1
S214083550224B05934FF4E13306934FF40063079329
S2140835600820A84705A920461D4B98471D4D2B68DF
S214083570002198681C4CA0472B6800215868A04773
S2140835801A4B98471A4B98470024039402940194C0
S214083590012600962346F02216491748174DA847D5
S2140835A003940294019400962346F0221449154881
S2140835B0A847154B9847FEE7811C0800E51C08003D
S2140835C00921080000080E4094AC0720293408009A
S2140835D090AC0720813308008CAC072000BD01059D
S2140835E0251C08007005072011380800D13208008D
S2140835F0DD320800D4780800C5340800E50D080058
S214083600DC780800F934080051100800FEE700BF0F
S21408361070B50F4E0F4D761BB61018BF002405D098
S214083620013455F8043B9847A642F9D10A4E0B4D8B
S21408363004F084F9761BB61018BF002406D00134AF
S21408364055F8043B9847A642F9D170BD70BD00BF37
S2140836504879080048790800507908004879080031
S2140836600FB410B5074B82B004AC54F8042B186896
S21408367023468168019400F019FA02B0BDE81040AC
S21408368004B0704770050720844641EA000313F02B
S214083690030349D1403A23D30B6803604B68436061
S2140836A08B688360CB68C3600B6903614B694361B1
S2140836B08B698361CB69C3610B6A03624B6A436299
S2140836C08B6A8362CB6AC3620B6B03634B6B436381
S2140836D08B6B8363CB6BC36340304031403ADBD29D
S2140836E030320BD30B6803604B6843608B6883608B
S2140836F0CB68C36010301031103AF3D20C3205D3C1
S21408370051F8043B40F8043B043AF9D2043208D096
S214083710D2071CBF11F8013B00F8013B01D30B8808
S21408372003806046704700BF082A13D38B07B1D0C2
S21408373010F00303AED0C3F10403D21ADB071CBF94
S21408374011F8013B00F8013BA4D331F8023B20F8FE
S214083750023B9FE7043AD9D3013A11F8013B00F837
S214083760013BF9D20B7803704B7843708B788370E3
S2140837706046704770B4840746D0541E002A41D06D
S214083780CDB2034602E0621EE4B3144603F8015BBA
S2140837909A07F8D1032C2ED9CDB245EA05250F2C69
S2140837A045EA054519D9264603F11002103E0F2EA4
S2140837B042F8105C42F80C5C42F8085C42F8045C7C
S2140837C002F11002F2D8A4F1100222F00F0204F05F
S2140837D00F041032032C13440DD91E462246043A11
S2140837E0032A46F8045BFAD8221F22F003020432A2
S2140837F0134404F003042CB1C9B21C4403F8011B9B
S214083800A342FBD170BC704714460346C2E700BF0C
S21408381000290CBF022200224FF4806300F000B893
S2140838202DE9F043514D83B02D6804460F46904667
S2140838301E4615B1AB6B002B79D0B8F1020F04D039
S214083840B8F1010F7FD8002E7DDB2146284601F00F
S2140838506FF9216B41B104F14003994202D0284622
S21408386001F0C2FA00232363B4F90C300022A261E7
S21408387062601A0654D423F44A6323F00303B8F1AB
S214083880020FA38139D001AB6A462146284601F0CB
S21408389049FDA3891843A08126B327B3AB6B002B39
S2140838A04DD0009BB4F90C009E421CBF40F400604B
S2140838B0A081B8F1010F08BF40F0010083B208BF2D
S2140838C0A08103F0080080B227602761666118B3FC
S2140838D013F001002FD000207642A661A06003B046
S2140838E0BDE8F083009E304601F090FD074668B3B9
S2140838F0A38943F08003A381D0E7002004F14302A4
S21408390043F0020300250121A381A56022602261FD
S214083910616103B0BDE8F083A06003B0BDE8F08342
S2140839202169284601F060FAB4F90C30A3E7284666
S21408393001F092F981E7A66003B0BDE8F083284657
S21408394001F08AF9ADE74FF0FF30E2E7DDF80090C6
S214083950B14506D0484601F059FD074608B14E461F
S214083960C6E7B4F90C304FF0FF30C7E770050720FC
S21408397020F0030110F00300C0F1000051F8043BEA
S21408398000F1040C4FEACC0C6FF000021CBF22FAC0
S2140839900CF213434FF0010C4CEA0C2C4CEA0C4C7E
S2140839A0A3EB0C0222EA030212EACC1204BF51F877
S2140839B0043B0430F4D0C2F1000102EA0102B2FA74
S2140839C082F2C2F11F0200EBD200704740EA010300
S2140839D09B0770B42BD1032A29D90C4603462146E7
S2140839E054F8046BA6F1013525EA060515F0803F64
S2140839F006D1043A032A43F8046B2146EFD8A2B14D
S214083A000C78013A1C70013101333CB16AB111F8E7
S214083A10014B013A03F8014B002CF7D12AB11A449E
S214083A20002103F8011B9A42FBD170BC704703467D
S214083A30E5E700BF4B6E2DE9F0479C0492462CD56F
S214083A40936812683BB30F46804602F1080919E9E5
S214083A506000B60817D0043D002401E0A64210D046
S214083A603A4655F8041F404601F05EF9431C04F137
S214083A700104F3D10023CAF80830CAF80430BDE8B8
S214083A80F087DAF80830A3EB8603CAF8083009F19D
S214083A900809002BDBD10020ECE701F08DFA0023A3
S214083AA0CAF80830CAF80430BDE8F0872DE9F04FA8
S214083AB0ABB01C46009190460493059018B1836BF2
S214083AC0002B00F0DE800098B0F90C108AB295043E
S214083AD007D4436E41F4005223F4005382814366B0
S214083AE092B2110740F1B180009B1B69002B00F0D1
S214083AF0AC8002F01A020A2A00F0B5800DF1680AB6
S214083B00D346002302930F930E93CDF834A098F86B
S214083B1000304446FBB1252B02D11CE0252B03D0F0
S214083B2014F8013F002BF9D1C8EB04059DB10E9B94
S214083B300F9A01332A44072BCBF80080CBF80450A1
S214083B400F920E937BDD002A40F01F85D346029B1A
S214083B500E922B4402932378002B00F03B844FF000
S214083B60000300218DF82F3004F101086378084619
S214083B700E460C464FF0FF32019208F10108A3F1F9
S214083B802002582A00F28B83DFE812F03D038903EF
S214083B9089034503890389038903890389038903FC
S214083BA07E006B028903860070028903CC015D02E1
S214083BB05D025D025D025D025D025D025D025D0200
S214083BC08903890389038903890389038903890388
S214083BD089038903D1018903890389038903890332
S214083BE0890389038903890389031A0289038903D8
S214083BF0890389038903E50289038903080389037E
S214083C008903890389038903890389038903890347
S214083C1089032B0382038903890389035E038203CE
S214083C20890389036303890370038D028B00E0020E
S214083C30890393028903B202890389034A030BF1B5
S214083C40080B029B2B44029385E70099059800F021
S214083C5057FE002840F04585009B9A8902F01A0214
S214083C600A2A7FF44BAF0099B1F90E30002BFFF605
S214083C7045AF23464246059800F00CFE2BB0BDE83B
S214083C80F08F00F0E9FF1EE7049A13461468043321
S214083C90002C049302DA644246F0040698F80030D2
S214083CA06BE74FF0000304988DF82F300346302159
S214083CB08DF8301001997822002906948DF8312065
S214083CC0046803F104034FF0000546F00202C0F250
S214083CD00C8526F0800654EA050246F00206049390
S214083CE040F0B584B348019B002B40F062849946A7
S214083CF05746002301930393019B039A9342B8BF48
S214083D0013461D46B9F1000F00D0013516F0020320
S214083D10079318BF023516F08403089340F0E8822C
S214083D20069B5C1B002C40F3E382102C40F33C857A
S214083D30DFF88492DDF838E0DC460F9AC346102395
S214083D40A84670464D46DDF8149007E000F1020ECE
S214083D5008460CF1080C103C102C13DD411C1032E0
S214083D6007290F92CCF80050CCF804300E91EDDD00
S214083D70002A40F0A582103C102C10464FF0010E89
S214083D80D446EBDCA94670464546D846E346224468
S214083D9007280F92CBF80090CBF804400E9000F35B
S214083DA06D839DF82F300BF1080B00F1010E002BE8
S214083DB040F0A782079B002B00F0BA8202320CA9BB
S214083DC00223BEF1070F0F92CDF838E08BE80A0001
S214083DD040F37083002A40F00084089B4FF0010EE1
S214083DE0802B1046D34640F0A782069B5C1B002C0F
S214083DF040F3A282102C40F3F884DFF8C091DE4628
S214083E001023C346A8464D46DDF8149007E000F197
S214083E10020C08460EF1080E103C102C13DD411C4F
S214083E20103207290F92CEF80050CEF804300E91C3
S214083E30EDDD002A40F00C83103C102C4FF0010CEE
S214083E401046D646EBDCA9464546D846F3462244F5
S214083E50BCF1070F0F92CBF80090CBF80440CDF8D2
S214083E6038C000F3C883019B03990BF1080B5C1A52
S214083E70002C0CF1010E604600F364820399BEF133
S214083E80070F0A440F92CBF80070CBF80410CDF851
S214083E9038E040F3C582002A40F0328370070E925D
S214083EA038D5069B5C1B002C34DDD346102C40F31B
S214083EB09684DFF804910E994F461026DDF8149084
S214083EC006E0881C19460BF1080B103C102C13DD75
S214083ED04B1C1032072B0F92CBF80070CBF80460FF
S214083EE00E93EEDD002A40F08582103C102C4FF031
S214083EF001001146D346EBDCB946224407280F9248
S214083F00CBF80090CBF804400E9040F39282002A3B
S214083F1040F00C84029B069AAA42ACBF9B185B1919
S214083F20029390E246F0800698F8003025E606945C
S214083F30002940F0858446F01006B30640F1048355
S214083F400499073121F00701D1E9002314461D46DC
S214083F5008310491002A73F10003C0F27C83019BA8
S214083F609DF82F90002BC0F20B8354EA050326F029
S214083F70800600F0DE80002D08BF0A2CC0F0DE8028
S214083F805746204629460A22002302F07DF9303299
S214083F9007F8012D2046294600230A2202F074F964
S214083FA004460D4654EA0503EBD1C7EB0A03039310
S214083FB0A2E600BF107908002C790800EC78080003
S214083FC00694002940F0388446F0100616F02003C0
S214083FD000F0A1824FF00002049B8DF82F200733D3
S214083FE023F0070303F10802D3E90045019B049276
S214083FF0002B0ADB54EA050326F0800605D1019B50
S214084000002B00F02784002400254FF000095746AF
S214084010E20842EA4572E90804F007030D4614462A
S214084020303354EA050207F8013DF1D1F407BCD550
S214084030302BBAD030227B1E07F8012CC3EB0A02BD
S21408404003921F4658E6A3F13002002418F8013BF5
S21408405004EB840402EB4404A3F13002092AF5D9E0
S2140840608DE598F8003001212B2086E598F8003079
S21408407008F101052A2B00F0CC83A3F13002092AA7
S214084080A84698BF002500F2B58318F8013B05EB53
S214084090850502EB4505A3F13002092AF5D945EA5C
S2140840A0E57201926BE5069400298FD08DF82F00F3
S2140840B08CE74FF00003049A069417688DF82F30A3
S2140840C0141D019B002F00F07F83002BC0F2538342
S2140840D01A460021384601F04DFC002800F08E8371
S2140840E0C31B0393002304949DF82F90019303E6C3
S2140840F00694002940F09D8316F0200934D116F066
S214084100100303D116F0400940F01F83049A0025D7
S21408411013461468019A8DF82F90002A03F10403B9
S214084120C0F2278354EA050226F0800604937FF43B
S21408413022AF019B002B3FF4DBAD00242AAF3034BE
S21408414007F8414DC7EB0A030393D5E546F020066A
S21408415098F8003011E50694002940F0758346F07B
S214084160100616F02009CAD04FF00002049B8DF8FE
S2140841702F20073323F0070303F10802D3E900458D
S214084180019B0492002BC0F2F98154EA050326F03D
S21408419080064FF000097FF4EEAECAE706940029C1
S2140841A040F05583B206B24841D5049A073222F049
S2140841B0070202F108010491D2E9004516F0010948
S2140841C000F07E8154EA050240F02B824FF000038F
S2140841D08DF82F30019B002BC0F2F38226F0800664
S2140841E081E5049A4FF00001136801258DF84030E8
S2140841F01346043306948DF82F100493039510AFD6
S2140842000023019382E598F8003000287FF4B5ACC7
S21408421001212020B1E446F0010698F80030ACE40D
S2140842200694002940F02A83B2069248BDD4049921
S214084230F7060A4600F19D81750640F19A81043218
S2140842400C8804920025B9E746F0400698F8003036
S21408425093E498F800306C2B03BF98F8013046F0CA
S214084260200608F1010846F0100686E4002940F00A
S2140842700283B40640F12082049A1346043304935A
S214084280029B1168DD171A462B46C1E900233EE457
S214084290069400293FF451AE8DF82F004DE606949B
S2140842A0002940F0E582002B00F094808DF840301D
S2140842B04FF0000301258DF82F30039510AF9FE7C8
S2140842C00DAA009948460993FFF7B4FB002840F06A
S2140842D088800E98D4460F9A00F1010E099B3AE59D
S2140842E00DAA00990598FFF7A5FB002879D1D346B3
S2140842F00E989DF82F300F9A00F1010E002B3FF410
S21408430059AD01320DF12F010123BEF1070F0F92AF
S214084310CDF838E08BE80A0040F3C080002A40F069
S2140843204D810799002940F0BF809E461046D34627
S214084330089B802B3FF459AD019B03995C1A002C0F
S2140843407FF79CAD102CDFF8309125DDDC46102376
S214084350C346A8464D46DDF8149007E000F1020E65
S21408436008460CF1080C103C102C11DD411C1032CC
S21408437007290F92CCF80050CCF804300E91EDDDEA
S214084380D2B9103C102C4FF0010E1046D446EDDC86
S214084390A9464546D846E3462244BEF1070F0F9283
S2140843A0CBF80090CBF80440CDF838E02EDC0BF1C3
S2140843B0080B0EF1010E61E50DAA00994846019317
S2140843C0FFF738FB68B90E98D4460F9A00F1010E2D
S2140843D0019BC8E70F9B23B105980DAA0099FFF724
S2140843E029FB009B9B895A0600F17B8102982BB01B
S2140843F0BDE8F08F0DAA00994846FFF71BFB00287A
S214084400EFD10E99D3460F9A481C5EE5002A40F075
S214084410FA80D346039A01231B920F921A970E939B
S2140844200BF1080B710704D5069B5C1B002C3FF7A5
S2140844303DAD029B0699A942ACBF5B185B19029377
S214084440002A40F0AD8000230E93D346FFF75FBBEB
S2140844500DAA009948460793FFF7ECFA0028C0D142
S2140844600E98D6460F9A00F1010C079BD4E400BFBD
S214084470FC78080010790800EC780800002A7FF419
S2140844802FAF9DF82F30002B00F0F38001231A463B
S2140844909E46D3460DF12F011B931A9170460BF1D9
S2140844A0080B0EF1010E85E49E46D3460CA902229F
S2140844B01A911B9270460BF1080B0EF1010E37E7A6
S2140844C0019B8DF82F90002BC0F21B8154EA050340
S2140844D026F080063FF407AC5746230943EA0573DF
S2140844E0290904F00F020D461C46835C07F8013DB7
S2140844F054EA0503F1D1C7EB0A030393FFF7FCBBA5
S2140845000DAA00990598FFF795FA00287FF469AF79
S214084510D3460F9A86E716F0100200F0B580049985
S2140845208DF82F300A460C680199043200294FF09E
S2140845300005C0F2528154EA050126F0800604926E
S2140845403FF45DAD994662E5049AF706134609D42A
S214084550750607D5B2F900400433E51704932246DA
S2140845602B46F7E41C680433E517049322462B46CB
S214084570F0E414680432049200251FE64FF00009A0
S21408458054EA05037FF4F7ACD8E50DAA0099059818
S214084590FFF750FA00287FF424AFD346FFF751BB45
S2140845A00DAA00990598FFF745FA00283FF44BAF87
S2140845B017E7002400254FF000098DE70DAA00999B
S2140845C00598FFF737FA00287FF40BAF0E98D34606
S2140845D00F9A00F1010EFFF7EDBB0DAA009905989A
S2140845E0FFF728FA00287FF4FCAE0E98D3460F9AF9
S2140845F000F1010E9CE6002A40F0C8804FF0010E3C
S2140846001046D34698E60DAA00990598FFF712FAC1
S21408461000287FF4E6AE0E9BD3460F9A03F1010EF0
S2140846202CE48DF831304FF0000330228DF830201E
S214084630019A8DF82F30002A46F00203C0F2BB809C
S21408464026F0800646F002064FF0000944E74FF0D1
S21408465000098C4840E7019B64424FF02D0965EB42
S2140846604505002B8DF82F90FFF685AC26F08006C2
S21408467081E4079B002B63D00CAB02221A931B9293
S2140846804FF0010ED34615E716F040093BD00499C3
S2140846908DF82F200B460C880199043300294FF01B
S2140846A00005C0F28C8054EA050126F080060493C3
S2140846B03FF4A5AC9146AAE4F0060AD4710608D5DC
S2140846C0049A136804320492BDF808201A80FFF78B
S2140846D01EBA049A136804320492029A1A60FFF704
S2140846E016BA4FF0FF30FFF7C9BA1646654854EABF
S2140846F0050204934FF000097FF4EEAE002400256F
S214084700EAE6049BF3E7049A8DF82F90134614689C
S214084710019A0433002A4FF0000550DB54EA0502DC
S21408472026F0800604937FF472AC68E40DAA00991C
S2140847300598FFF77FF900287FF453AE0F9A78E6BE
S21408474010464FF0010ED346F6E504998DF82F3043
S2140847500A460C880199043200294FF0000555DBFB
S21408476054EA050126F08006049299467FF403ACC5
S214084770DFE4049304E738460494FFF7F9F80023C7
S21408478003909DF82F900193FFF7B6BA0DAA0099EB
S2140847900598FFF74FF900287FF423AE0E98D34606
S2140847A00F9A00F1010EC7E50E980F9A0130DFF850
S2140847B0DC90FFF7ECBA1E464FF000098CE604932F
S2140847C023E44FF0000999E7062B28BF0623039336
S2140847D0049423EAE3752C4F12E5049215E40E9828
S2140847E0DFF8A8900130FFF788BBF446DFF8A09002
S2140847F0FFF72DBB00220192FFF7C1B9019B049475
S214084800039301909DF82F90FFF776BA0492994685
S214084810B6E6049A13680432002B0193049298F8BB
S2140848200130A846BFF6A9A94FF0FF320192FFF75C
S214084830A4B98DF82F005FE48DF82F00FFF7C4BBEE
S2140848408DF82F00FFF777BB8DF82F0087E48DF8DB
S2140848502F00A7E49946F30705D52AAF302307F8B3
S214084860413DFFF7A2BB019B57460393FFF744BAA7
S2140848708DF82F0017E58DF82F00FAE48DF82F0035
S214084880D2E400BF10790800247908002C790800C3
S214084890EC780800F0B50C468989ADF26C4D656E6B
S2140848A021F00201666AADF80C10E169E7891995EE
S2140848B000250791099606951AAE4FF48065694655
S2140848C00096049602950595ADF80E700646FFF715
S2140848D0EDF8051E07DB3046694600F029F9002882
S2140848E018BF4FF0FF35BDF80C305B0603D5A3891B
S2140848F043F04003A38128460DF26C4DF0BD00BF7F
S21408490038B5304B054618680C4610B1836B002B3B
S21408491038D0B4F90C2093B218070CD52069A8B182
S21408492013F001021ED0636900225B42A361A260F5
S214084930F0B1002038BDD9063BD5580725D42069E4
S21408494042F00803A3819BB20028E9D103F4207241
S214084950B2F5007FE4D02846214600F013FDA3896F
S2140849602069DDE7990758BF6269A2600028E0D190
S214084970B4F90C301A06DDD543F04003A3814FF096
S214084980FF3038BD00F068F9C3E7216B51B104F178
S2140849904003994204D0284600F026FAB4F90C20C1
S2140849A0002323632069002322F0240284E80900F8
S2140849B0C6E742F0400209232B604FF0FF30A28181
S2140849C038BD00BF70050720024B13B1024800F03F
S2140849D005B87047000000006D4C0800002301462B
S2140849E01A46184601F058BBB1F90C302DE9F041CB
S2140849F09AB20D46110780463CD46A6843F40063B1
S214084A00002AAB8173DDAC6A002C4BD09BB203F452
S214084A108052002192B2D8F80060C8F80010002A28
S214084A2069D02A6D5F0705D569682B6B521A0BB1DA
S214084A30EB6BD21A0023E9694046A047441C3CD0D9
S214084A40B5F90C30296923F400630022AB81DB0436
S214084A5085E8060049D4296BC8F8006011B305F14B
S214084A604003994202D0404600F0BEF90020286371
S214084A70BDE8F0812E69AEB190072C680CBF6B6953
S214084A8000232E60A41BAB600AE0234632466F6AFA
S214084A90E9694046B8470028A4EB0004064404DD4C
S214084AA0002CF2DC0020BDE8F081AB894FF0FF3027
S214084AB043F04003AB81BDE8F081D8F800201D2AFA
S214084AC0F3D81A4BD34003F0010383F00104002BFC
S214084AD0EBD0B5F90C30296923F400632960D904B2
S214084AE06C60AB81B7D5002AB5D12865B3E7EA6B09
S214084AF0002A88DCD6E70123E9694046A047431C1C
S214084B00024602D0AB89AC6A8CE7D8F80030002B96
S214084B10F8D01D2B01D0162B02D1C8F80060C1E7CB
S214084B20AB8943F04003AB81BDE8F081010040202B
S214084B3010B5044682B008B1836B53B1B1F90C00C6
S214084B4008B902B010BD204602B0BDE81040FFF715
S214084B504BBF019100F080F80199EFE7014900F09A
S214084B60AFBB00BF616108002DE9F04F0746354826
S214084B707D68002407F53B7204230321F863C7F811
S214084B80E412C7F8E822C7F8E04283B02C606C60ED
S214084B90AC606C66EC812C616C61AC61AB812146C3
S214084BA005F15C000822FEF7E5FDDFF89CB0BE685C
S214084BB0DFF898A0DFF89890DFF89880012309229C
S214084BC0C5F820B0C5F824A0C5F82890C5F82C80EC
S214084BD0ED612146F381B28106F15C0034607460B1
S214084BE0B460746634617461B46108220193FEF798
S214084BF0C1FDFD6812200222F661C6F820B0C6F88C
S214084C0024A0C6F82890C6F82C802146A881EA81F8
S214084C102C606C60AC606C662C616C61AC6105F1F4
S214084C205C000822FEF7A6FD019BED61C5F820B0E2
S214084C30C5F824A0C5F82890C5F82C80BB6303B037
S214084C40BDE8F08F5D4B0800C95E0800ED5E080001
S214084C50295F0800495F0800836B03B17047FFF7B8
S214084C6083BF00BF704700BF704700BF38B5074D09
S214084C70074C2C1BA41005D0013C55F8043D98475A
S214084C80002CF9D1BDE8384002F062BE6079080011
S214084C905C7908002DE9F04182B006460F461446B6
S214084CA000F03AFB012832D004F15C033A4601A929
S214084CB0304601F0A3F9B0F1FF3F804620D070B32C
S214084CC09DF80410002508E023685A1C2260197015
S214084CD00135454523D201AB595DA368013B002B3E
S214084CE0A360F1DAA269934201DB0A29ECD12246D5
S214084CF0304601F02DF9431CEAD102B0BDE8F08138
S214084D00A38943F04003A38102B0BDE8F0817B1E6F
S214084D10FE2BC9D8F9B280468DF80410D2E738467B
S214084D2002B0BDE8F08100BFB2F90C3013F4005FA2
S214084D300AD110B4546E43F4005344F40054546635
S214084D40938110BCFFF7A6BFFFF7A4BFF8B50C46C3
S214084D50224F064600F0B8FEBB685D6825F00305DE
S214084D60291B01F6EF7121F47F6121F00F01A1F5EF
S214084D708054B4F5805F07DB0021304601F092F8D6
S214084D80BB682B44984204D0304600F09FFE0020B3
S214084D90F8BD6142304601F085F801300DD0104B61
S214084DA0BA6819682D1B45F001053046091B556081
S214084DB0196000F08BFE0120F8BD0021304601F096
S214084DC071F8BA68831A0F2BDEDD064C044924688E
S214084DD043F00103001B53600860D5E798050720D9
S214084DE064AC0720A4090720002945D02DE9F04126
S214084DF00D46804600F068FE55F8047C6A49A5F121
S214084E00080427F00103E2188E685068B24220F0C2
S214084E10030062D0FE0750600BD455F8087C01F1F9
S214084E20080EE41BA5683B4475456FD0E768EF603D
S214084E30BD6015186D68ED0742D543F00102626043
S214084E40E350B3F5007F18D2DB0848689D100122AE
S214084E50013351F8337002FA05F501EBC302284313
S214084E60083AE260A760486041F83340FC60404674
S214084E70BDE8F04100F02ABE70475A0A042A53D803
S214084E809A0902F139077F0002F1380501EB87001D
S214084E9051F827200838904243494DD0516821F0F0
S214084EA003018B4202D292689042F7D1D068E06044
S214084EB0A2608460D4604046BDE8F04100F006BEBB
S214084EC095683A4F0344BD423FD0D06843F001028C
S214084ED0E86085606260E350B3E7FF07034407D4E1
S214084EE055F8085C641BE268A0682B44C2609060B2
S214084EF02F4A43F001001268606093428C60B6D374
S214084F002C4B40461968FFF721FFB0E7111849688F
S214084F10C90744D491680344D26843F00100CA60C4
S214084F2091606060E350A2E7142A17D802F15C0784
S214084F307F0002F15B05A9E7AA104B68012505FA70
S214084F4002F213434B600246B1E743F001024C619C
S214084F500C61E560A5606260E35088E7542A06D8CD
S214084F601A0B02F16F077F0002F16E058EE7B2F5A5
S214084F70AA7F06D8DA0B02F178077F0002F17705D8
S214084F8084E740F25450824206D89A0C02F17D0714
S214084F907F0002F17C0579E7FE277E2576E743F059
S214084FA001026260E35062E798050720A005072023
S214084FB0A009072060AC07209368002B00F0AB80A0
S214084FC02DE9F04F8B8985B00C46190702901646D6
S214084FD028D5226932B303F002081FFA88F035682C
S214084FE078B34FF00009C846DFF8D0A2B8F1000F32
S214084FF000F08B80D04543464A4628BF5346E169B1
S2140850000298676AB847002840F3A580B3688144C9
S2140850101B1AC0EB0808B360002BE7D1002005B0C8
S214085020BDE8F08F21460298FFF76AFC002840F09A
S2140850303C81A389356803F002081FFA88F0002827
S214085040CFD113F0010940F090804F460196002F0B
S21408505056D09A05D4F808805FD54745C246C0F0B2
S214085060BF8013F4906F00F0BD80626920682169E4
S21408507002EB4208C1EB000A08EBD8780AF10100F7
S2140850804FEA680838444045424684BF8046424650
S2140850905B0540F1F2801146029800F0BFF983469E
S2140850A0002800F0058152462169FEF7EDFAA3892B
S2140850B023F4906343F08003A381CAEB08030BEB49
S2140850C00A00C4F81480BA46B846C4F810B020607F
S2140850D0A3605246494600F093FCA0682368C8EBD4
S2140850E00000A060384653442360019A81449368C0
S2140850F03F1A1B1A9360002B90D0A389002FA8D1C3
S214085100D5F800906F680835A1E7D5F80090D5F86F
S214085110048008356AE700207047206823699842AB
S21408512003D86269974280F08380B84528BFB8469E
S2140851304946424600F064FCA3682268C8EB0303AD
S2140851404244A3602260002B48D121460298FFF70C
S214085150EFFC002842D0B4F90C3043F040034FF07F
S214085160FF30A38105B0BDE8F08F804682468146B1
S2140851700190B9F1000F29D0019B002B4BD0C845F0
S214085180C34628BFCB46206823695F4698426269B3
S21408519003D9A36813449B455CDC934524DB13467C
S2140851A0676A5246E1690298B847071ED3DDB8EB2E
S2140851B0070827D0B368BA44DB1BC7EB0909B360F6
S2140851C0002B3FF42BAFB9F1000FD5D10023D5F84B
S2140851D000A0D5F8049001930835CAE7404684E74E
S2140851E0B846BA46206874E75A46514600F008FCA6
S2140851F0A2682368CBEB02025B44B8EB0708A26000
S2140852002360D7D121460298FFF792FC0028A2D146
S214085210CDF80480CEE74A460A21504600F0AAFB9D
S21408522000283DD001300123CAEB00080193A6E709
S2140852306FF00043BB4228BF3B4693FBF2F3E1699D
S21408524002FB03F302984A46666AB04700283FF70F
S2140852504CAF80E71A465146039300F0D1FB22680C
S214085260039B21461A4422600298FFF761FC039BC1
S21408527000287FF470AF1F4699E7029800F028FCD4
S214085280834600287FF419AF029D21692846FFF758
S214085290ABFDB4F90C300C2223F080032A605CE7DF
S2140852A0012309F10108019369E74FF0FF30B6E6DC
S2140852B0029A0C231360B4F90C304EE700FCFF7F0B
S2140852C02DE9F84310F538761ED0884607464FF085
S2140852D000097568B468013D10D4A389013D012B07
S2140852E008D9B4F90E30013304D021463846C047F1
S2140852F049EA00096B1C04F16804EED13668002EF2
S214085300E7D14846BDE8F883B1464846BDE8F88385
S2140853100048704774050720014B1868704700BF9F
S2140853209405072070B50E46B1F90E1090B0002906
S21408533014461D4614DB01AA00F054FF00280FDBB4
S214085340029A4FF4806302F47042A2F50052B2FA51
S21408535082F24FF4006052092A60236010B070BDD4
S214085360B289002002F0800292B228601AB1402367
S214085370236010B070BD10464FF48063236010B0F1
S21408538070BD00BF8A890B46920706D501F1430215
S21408539001211A601A6159617047F0B583B001ABF4
S2140853A06A460C460546FFF7BDFF0099064628469E
S2140853B000F034F8B4F90C30D0B19DE80600124F6E
S2140853C043F08003EF63A3812060206161611AB90E
S2140853D03343A38103B0F0BD2846B4F90E1000F09D
S2140853E015FFB4F90C300028F2D043F00103EFE7BC
S2140853F09A05EFD404F1430243F002030121A38186
S214085400226022616161E5E75D4B0800024B0146B8
S214085410186800F003B800BF700507202DE9F04FA4
S21408542001F10B05162D83B0064640F2A08035F034
S214085430070500F1C080A94200F2BD8000F044FBD9
S214085440B5F5FC7FC0F090826B0A00F0BB80042B99
S21408545000F27781A80900F1390E4FEA4E0138307C
S214085460BE4F07EB81014C680839A14207D1AEE070
S214085470002A80F2AE80E468A14200F0A880636843
S21408548023F003035A1B0F2AF2DDB4493C6901F1E5
S214085490080E744500F0A881636823F003035A1BBE
S2140854A00F2A00F38E81002AC1F814E0C1F810E034
S2140854B080F29380B3F5007F80F05C81DB084A6851
S2140854C04FEAA3094FF0010C013351F833800CFA68
S2140854D009F901EBC30C49EA0202ACF1080CC4F85E
S2140854E00CC0C4F808804A6041F83340C8F80C403D
S2140854F0831001249C4094427CD8144206D120F0A4
S21408550003006400144200F10400FAD007EBC00957
S214085510CC468046DCF80C108C4507D166E1002A9C
S21408552080F27481C9688C4500F060814B6823F06E
S21408553003035A1B0F2AF2DD0C46CB6854F808CF33
S21408554045F00108C1F804800D4442F00101CCF88A
S2140855500C303046C3F808C07D613D61C5F80CE0E4
S214085560C5F808E06960AA5000F0B0FA1FE01029F4
S21408557021D800F0A9FA102506230220774F07EB5A
S21408558083035C68A3F10802944200F038816368DC
S214085590E16823F0030323445A68A56842F0010231
S2140855A0E96030468D605A6000F090FA083420466C
S2140855B003B0BDE8F08F002420460C23336003B008
S2140855C0BDE8F08F80214FF0400E3F2048E7704638
S2140855D05BE723445A68E168DFE723445A683046A5
S2140855E042F001025A60083400F070FA204603B010
S2140855F0BDE8F08FBC68636823F00308A84504D3A9
S214085600C5EB08030F2B00F38C80554BDFF8609131
S2140856101A68D9F800302A44013304EB080A00F067
S214085620608102F580520F3222F47F6222F00F0268
S21408563011463046019200F035FCB0F1FF3F834634
S214085640019A00F05881824500F2FC80454BDA4505
S21408565019681144196000F05381D9F80000DFF882
S21408566010E101301BBFCAEB0B0A5144CEF800B05C
S21408567019601BF0070100F01781C1F10800C1F599
S2140856808051834408315A44C2F30B02C2EB010925
S21408569049463046019300F005FC431C019B00F088
S2140856A03F81CBEB00024A4442F001021968BC4233
S2140856B04944C7F808B01960CBF80420DFF8A4906E
S2140856C016D0B8F10F0F40F2FD806268A8F10C03FF
S2140856D023F0070302F00102E0184FF0050E1A4304
S2140856E00F2B6260C0F804E0C0F808E000F21C81E6
S2140856F01D4BBC681A68914288BF19601B4B1A6814
S2140857009142626888BF196022F003029542A2EBB4
S214085710050301D80F2B04DC304600F0D7F9002427
S21408572045E745F0010243F0010325446260304630
S214085730BD6008346B6000F0C9F9204603B0BDE8C8
S214085740F08F142B71D9542B00F2A480280B00F18B
S2140857506F0E4FEA4E016E3082E600BF98050720AE
S21408576060AC072064AC07205CAC072058AC072068
S214085770A40907205A0A042A5ED9142A00F2B3801C
S21408578002F15C0149005B3207EB810C57F82110E7
S214085790ACF1080C8C45DFF8D88100F088804A68A0
S2140857A022F00302934202D289688C45F7D1D1F8D9
S2140857B00CC07A68C4F80CC0A160CCF80840CC606D
S2140857C096E645F0010742F0010325446760304637
S2140857D04D610D61C5F80CE0C5F808E06B60AA508D
S2140857E0083400F073F9E2E64A6881E608F1010831
S2140857F018F0030F0CF1080C7FF48CAE30E0DC6870
S214085800A34208BF02303FF440AEC0E60C460B4445
S2140858105A68C96854F8085F42F001025A60304670
S214085820E9608D6000F052F9C1E603F15C0E03F101
S2140858305B004FEA4E0113E69A0902F13901490066
S2140858403832A1E7BC424A4B3FF400AF9C68626816
S21408585022F003025AE759F80839994540F0828041
S21408586010F0030F00F1FF30F5D17B6823EA04033C
S2140858707B6064009C423FF6BDAE002C3FF4BAAE97
S2140858801C4240467FF442AE64001C4200F104000D
S214085890FAD03BE6B3F5AA7F18D8E80B00F1780EE5
S2140858A04FEA4E017730DBE54FF48051EBE60121F5
S2140858B0D8F80430921001FA02F21A43C8F8042005
S2140858C0614677E70123CBF8043025E740F25452C7
