:020000040800F2
:1000000000000220F5020008FD02000801030008BC
:100010007503000879030008C10300080000000010
:10002000000000000000000000000000F1150008C2
:1000300009040008000000000D04000885160008EF
:100040001D0400081D0400081D0400081D0400080C
:100050001D0400081D0400081D0400081D040008FC
:100060001D0400081D0400081D0400081D040008EC
:100070001D0400081D0400081D0400081D040008DC
:100080001D0400081D0400081D0400081D040008CC
:100090001D0400081D0400081D0400081D040008BC
:1000A0001D0400081D0400081D0400081D040008AC
:1000B0001D0400081D0400081D0400081D0400089C
:1000C0001D0400081D0400081D0400081D0400088C
:1000D0001D0400081D0400081D0400081D0400087C
:1000E0001D0400081D0400081D0400081D0400086C
:1000F0001D0400081D0400081D0400081D0400085C
:100100001D0400081D0400081D0400081D0400084B
:100110001D0400081D0400081D0400081D0400083B
:100120001D0400081D0400081D0400081D0400082B
:100130001D04000800000000000000001D0400086D
:100140001D0400081D0400081D0400081D0400080B
:100150001D0400081D0400081D0400081D040008FB
:100160001D0400081D0400081D0400081D040008EB
:100170001D0400081D0400081D0400080000000004
:10018000000000001D040008000000000000000046
:100190001D04000800000000000000001D0400080D
:1001A0000000000000000000000000001D04000826
:1001B0001D0400081D0400081D0400081D0400089B
:1001C0001D04000800B583B000F056FE384B394AD4
:1001D0001360394A136039490CE00A684B6801F131
:1001E0000C04886803E011681960043304329842F3
:1001F000F9D82146324B9942EFD32E4B1A68314B36
:100200009A4204D12C4B1A682F4B9A4200D0FEE739
:10021000274B2E4A13602E4A13602E4B0AE01946D4
:1002200051F8082B5B6802E00020106004329A420B
:10023000FAD30B46284A9342F1D3244B1B6813B9D7
:10024000234B1B6803B1FEE700F074FF694601A869
:1002500000F0A2FD214C224B1C1BA410002504E041
:100260001E4B53F8253098470135AC42F8DC1D4C45
:100270001D4B1C1BA410002504E01A4B53F825301D
:1002800098470135AC42F8DC0099019800F0EEFF88
:100290000546164C164B1C1BA41004E0013C134BE6
:1002A00053F824309847002CF8DC284600F046FD2F
:1002B000BABADECA0000002078000020200400083E
:1002C0003804000878563412325476987C000020A6
:1002D000BCA20020380400084804000848040008B4
:1002E00048040008480400084804000848040008BE
:1002F0004804000808B5FFF765FF00BF00BEFEE731
:100300001EF0040F0CBFEFF30880EFF30980714675
:100310003F4A10472DE9F04182B004468846134B0E
:100320005E6B9F6B9D6A1B6B13F0020F0DD00F4B22
:10033000DB6A002B09DA4BF6AB6100F027FE20B137
:100340004FF00042094BDA620CE0094800F036FD3C
:10035000CDF800803B4632462946204600F09EFDFF
:1003600000BEFEE702B0BDE8F08100BF00ED00E096
:100370006038000800BEFEE71EF0040F0CBFEFF36C
:100380000880EFF309807146224A10472DE9F041B9
:1003900082B004468846084B5E6B9F6B9D6A074897
:1003A00000F00CFDCDF800803B4632462946204641
:1003B00000F074FD00BEFEE700ED00E070380008BC
:1003C0001EF0040F0CBFEFF30880EFF309807146B5
:1003D000114A10472DE9F04182B004468846084B87
:1003E0005E6B9F6B9D6A074800F0E8FCCDF80080CB
:1003F0003B4632462946204600F050FD00BEFEE74F
:1004000000ED00E07C38000800BEFEE700BEFEE71D
:10041000150300088D030008D503000800BEFEE7A1
:1004200060390008000000207C00002060390008CE
:1004300000000010000000107C000020C0A200207E
:08044000000000100000001094
:1004500010B50446074B1B680748A0FB0330800912
:1004600000F08CF8002221464FF0FF3000F044F8F5
:10047000002010BD0C000020D34D621008B50B4BBE
:100480001A6842F400721A601A6842F480621A60B4
:100490001A6842F480721A60032000F00FF80F20EF
:1004A000FFF7D6FF00F032FF002008BD003C0240FD
:1004B000014B1868704700BF74A2002010B50446B5
:1004C000C31E042B03D9A421094800F06DFC094A7E
:1004D000D36823F4E0631B041B0C240204F4E064DF
:1004E000234343F0BF6343F40033D36010BD00BF28
:1004F0002436000800ED00E070B504460E461546AF
:100500000F2A03D9BC211A4800F04EFC0F2E03D944
:10051000BD21174800F048FC164BDA68C2F30222EE
:10052000C2F10701042928BF0421131D062B01D99C
:10053000033A00E00022012303FA01F101393140BE
:10054000914003FA02F2013A2A400A43002C06DAEB
:1005500004F00F041201D2B2074B1A5570BD1201FC
:10056000D2B204F1604404F5614484F8002370BD04
:100570002436000800ED00E014ED00E00138B0F191
:10058000807F0AD2064B5860F021064A82F8231079
:100590000020986007221A6070470120704700BF52
:1005A00010E000E000ED00E010B50446042805D09E
:1005B00020B140F2B311084800F0F6FB042C05D13D
:1005C000064A136843F00403136010BD034A13681E
:1005D00023F00403136010BD2436000810E000E08F
:1005E00030B583B0044603680F2B03D9F5219C482E
:1005F00000F0DAFB236813F0010F45D06368012B8C
:1006000005D9052B03D0FA21954800F0CDFB954B79
:100610009B6803F00C03042B0AD0924B9B6803F0F9
:100620000C03082B0CD18F4B5B6813F4800F07D0A1
:100630008C4B1B6813F4003F26D0636823BBCCE1CE
:100640002279894B1A7063687BB1FFF731FF054649
:1006500005E0FFF72DFF401B642800F2C081814BAD
:100660001B6813F4003FF4D00EE0FFF721FF0546AE
:1006700005E0FFF71DFF401B642800F2B281794BB3
:100680001B6813F4003FF4D1236813F0020F6AD003
:10069000E368012B04D94FF49671714800F084FB94
:1006A00023691F2B04D940F22D116D4800F07CFB0B
:1006B0006C4B9B6813F00C0F0AD06A4B9B6803F0DD
:1006C0000C03082B1BD1674B5B6813F4800F16D10A
:1006D000644B1B6813F0020F03D0E368012B40F05A
:1006E00082816048036823F0F8012369F82292FAB6
:1006F000A2F2B2FA82F293400B43036033E0E36864
:10070000FBB10122594B1A60FFF7D2FE054605E006
:10071000FFF7CEFE401B022800F26781514B1B6899
:1007200013F0020FF4D04F48036823F0F801236957
:10073000F82292FAA2F2B2FA82F293400B430360DB
:1007400011E00022494B1A60FFF7B2FE054605E0B2
:10075000FFF7AEFE401B022800F24981414B1B68A7
:1007600013F0020FF4D1236813F0080F2ED0636941
:10077000012B04D940F26D11394800F015FB636973
:1007800093B101223A4B1A60FFF792FE054605E04D
:10079000FFF78EFE401B022800F22B81314B5B6F6E
:1007A00013F0020FF4D011E00022314B1A60FFF772
:1007B0007FFE054605E0FFF77BFE401B022800F2A6
:1007C0001A81284B5B6F13F0020FF4D1236813F0EA
:1007D000040F60D0A368012B06D9052B04D040F28A
:1007E00097111F4800F0E0FA002301931D4B1A6C8B
:1007F00042F080521A641B6C03F080530193019BFA
:100800001C4A136843F480731360FFF751FE0546DA
:1008100005E0FFF74DFE401B022800F2EE80154B6D
:100820001B6813F4807FF4D0227A134B1A70A368EC
:100830008BB1FFF73DFE054607E0FFF739FE401B91
:1008400041F28833984200F2DA80064B1B6F13F0B6
:10085000020FF2D01FE0FFF72BFE054616E000BFA7
:100860006836000800380240023802400000474263
:10087000800E47420070004070380240FFF718FEBB
:10088000401B41F28833984200F2BB80634B1B6FE0
:1008900013F0020FF2D1A369022B04D94FF4E671D1
:1008A0005F4800F081FAA369002B00F0AC805B4A3E
:1008B000926802F00C02082A00F0A780022B79D17E
:1008C000E3693BB1B3F5800F04D040F2D511544831
:1008D00000F06AFA236A3F2B04D94FF4EB715048B9
:1008E00000F062FA636A323BB3F5BF7F04D940F28D
:1008F000D7114B4800F058FAA36A022B0AD0042BF8
:1009000008D0062B06D0082B04D04FF4EC714448D5
:1009100000F04AFAE36A043B0B2B04D940F2D911E8
:100920003F4800F041FA00223E4B1A60FFF7C0FD3D
:10093000054604E0FFF7BCFD401B022867D8374B93
:100940001B6813F0007FF5D1E169236A1943636ADC
:1009500047F6C07292FAA2F2B2FA82F293401943B9
:10096000A36A5B085A1E4FF4403393FAA3F3B3FA19
:1009700083F302FA03F30B43E26A4FF0706191FADA
:10098000A1F1B1FA81F18A401343244A5360012254
:10099000244B1A60FFF78CFD044604E0FFF788FD46
:1009A000001B022835D81D4B1B6813F0007FF5D0C3
:1009B000002031E000221B4B1A60FFF779FD04464E
:1009C00004E0FFF775FD001B022824D8134B1B68B9
:1009D00013F0007FF5D100201EE001201CE0032071
:1009E0001AE0032018E0012016E0032014E00320A1
:1009F00012E0032010E003200EE003200CE00320AF
:100A00000AE0032008E0002006E0012004E00320C3
:100A100002E0032000E0032003B030BD00380240B4
:100A20006836000860004742254B9B6803F00C03C2
:100A3000042B3FD0082B01D02248704710B4204B24
:100A4000586800F03F005B6813F4800F10D01E4B15
:100A5000B3FBF0F01A4B5A6847F6C0710A4091FA9E
:100A6000A1F3B3FA83F322FA03F303FB00F310E0DC
:100A7000144BB3FBF0F0124B5A6847F6C07402EA0D
:100A8000040194FAA4F2B2FA82F221FA02F202FB11
:100A900000F30B4A506800F440324FF4403090FAB3
:100AA000A0F0B0FA80F022FA00F001304000B3FB71
:100AB000F0F001E0044870475DF8044B704700BF58
:100AC000003802400024F40000127A0070B5044699
:100AD0000D460368013B0E2B04D940F237218F48A5
:100AE00000F062F90F2D04D94FF40E718B4800F01D
:100AF0005BF98B4B1B6803F00F039D4208D9EBB2E7
:100B0000874A1370136803F00F039D4240F0F4808E
:100B1000236813F0020F1DD0A368A3B1802B12D05D
:100B2000902B10D0A02B0ED0B02B0CD0C02B0AD005
:100B3000D02B08D0E02B06D0F02B04D040F24F2170
:100B4000764800F031F977498B6823F0F002A3680A
:100B500013438B60236813F0010F6BD06368032B82
:100B600004D940F256216D4800F01EF96268012A4E
:100B700005D16C4B1B6813F4003F0FD1BEE0931EF0
:100B8000012B05D8674B1B6813F0007F06D1B7E037
:100B9000644B1B6813F0020F00F0B48061498B684E
:100BA00023F0030313438B60FFF782FC0646636860
:100BB000012B0FD107E0FFF77BFC801B41F288334C
:100BC000984200F2A180574B9B6803F00C03042B62
:100BD000F1D12FE0022B0FD107E0FFF769FC801B5A
:100BE00041F28833984200F291804E4B9B6803F0AB
:100BF0000C03082BF1D11DE0032B16D107E0FFF702
:100C000057FC801B41F28833984200F28180454BAB
:100C10009B6803F00C030C2BF1D10BE0FFF748FCB1
:100C2000801B41F28833984274D83E4B9B6813F086
:100C30000C0FF3D13A4B1B6803F00F039D4207D210
:100C4000EAB2374B1A701B6803F00F039D4263D161
:100C5000236813F0040F19D0E36883B1B3F5805F04
:100C60000DD0B3F5A05F0AD0B3F5C05F07D0B3F5E0
:100C7000E05F04D04FF42D71284800F095F8294921
:100C80008B6823F4E052E36813438B60236813F00E
:100C9000080F1AD0236983B1B3F5805F0DD0B3F587
:100CA000A05F0AD0B3F5C05F07D0B3F5E05F04D012
:100CB00040F2BB21194800F077F81A4A936823F4F0
:100CC0006043216943EAC1039360FFF7ADFE154B12
:100CD0009B6803F0F002F02393FAA3F3B3FA83F3D3
:100CE00022FA03F3104AD35CD840104B18600F204F
:100CF000FFF7AEFB002070BD012070BD012070BD6C
:100D0000012070BD012070BD032070BD032070BDA7
:100D1000032070BD032070BD012070BD683600083F
:100D2000003C024000380240583600080C00002009
:100D3000014B1868704700BF0C000020FEE700BFA1
:100D400008B5034800F052F80120FFF7F7FF00BF95
:100D50009836000808B50D4B1B6813B90C4A0B4BAD
:100D60001A600A4B1A68C31C23F003031344094991
:100D70008B4206D901F0B4FF0C2303604FF0FF3023
:100D800008BD02490B60104608BD00BF800000206E
:100D9000C0A2002000FC012001230360014B0B6076
:100DA000704700BF0400002008B50A46014602480B
:100DB00000F004F8FFF7C4FFEC3600080FB400B5EC
:100DC00083B004AB53F8042B01938021064801F053
:100DD000D3FF002803DD0146034800F049F803B0C3
:100DE0005DF804EB04B070478800002010B504469D
:100DF00001F08FFF0146204600F03AF80121024839
:100E000000F036F810BD00BFF03800082DE9F043BF
:100E100085B004460F46435613BB04252846214699
:100E2000ABBE04461FE03546102E28BF1025002318
:100E300006E014F9011B04AA1A4402F8101C01333D
:100E4000AB42F6D304AA1344002203F8102CE9465F
:100E50004FF0040840464946ABBE8046761B00E092
:100E60000E46002EDFD1384605B0BDE8F08300BF46
:100E700008B5FFF7CBFF08BD08B500F097F8054BA4
:100E8000054A9A60D3F8882042F47002C3F888209B
:100E900008BD00BF00ED00E000000008F8B5044602
:100EA0000D4617461E462648FFF788FF216825484D
:100EB000FFF784FF61682448FFF780FFA16823489B
:100EC000FFF77CFFE1682248FFF778FF216921489E
:100ED000FFF774FF61692048FFF770FFA1691F48A1
:100EE000FFF76CFFE1691E48FFF768FF1D48FFF739
:100EF00065FF29461C48FFF761FF1C4CE16A1C484E
:100F0000FFF75CFF216B1B48FFF758FFE16B1A48A6
:100F1000FFF754FF15F0800F03D039461748FFF74D
:100F20004DFF15F4004F03D031461548FFF746FF3B
:100F30001448FFF743FF06991348FFF73FFFF8BD3A
:100F40004437000854370008643700087437000835
:100F50008437000894370008A4370008B437000825
:100F6000C4370008D4370008E037000800ED00E07F
:100F7000F037000800380008103800082038000852
:100F800030380008403800084838000883691A885B
:100F90008A4207D10268033A012A05D802338361E5
:100FA0000120704700207047002070470F49D1F89A
:100FB000883043F47003C1F888300D4B1A6842F052
:100FC00001021A60002098601A6822F0847222F4EC
:100FD00080321A60074A5A601A6822F480221A6026
:100FE000D8604FF000638B60704700BF00ED00E0F9
:100FF0000038024010300024224B9B6803F00C03A1
:10100000042B07D0082B09D0002B2DD11E4A1F4BD3
:101010001A602CE01E4A1D4B1A6028E0194B5A68D2
:101020005B6803F03F0312F4800F09D0184AB2FB4B
:10103000F3F2144B5B68C3F3881303FB02F208E07E
:10104000114AB2FBF3F30F4A5168C1F3881101FB57
:1010500003F20C4B5B68C3F3014301335B00B2FB4B
:10106000F3F30A4A136002E0074A084B1A60054B83
:101070009B68C3F30313074AD15C044A1368CB404F
:1010800013607047003802400024F4000C00002078
:1010900000127A008C38000830B595B00024009416
:1010A000214B1A6C42F080521A641B6C03F080537F
:1010B0000093009B01941D4B1A6842F440421A6051
:1010C0001B6803F440430193019B0123079308939A
:1010D0004FF480030E9308230F934FF4A8731093DB
:1010E00002251195072312930D9507A8FFF778FAAB
:1010F0000F230293039504944FF4A05305934FF4E8
:1011000080530693052102A8FFF7E0FCFFF710FECD
:10111000074BA3FB00308009FFF730FA0420FFF7EC
:1011200043FA15B030BD00BF0038024000700040E7
:10113000D34D621008B5FFF7A1F9FFF7ADFFFFF738
:101140005BFF08BD10B582B00E4C00234FF0FF329C
:101150001946206800F00CFE0B490C48FFF72EFEE4
:1011600000231A461946206800F0C2FC00230193B0
:1011700002E0019B01330193019A054B9A42F8D991
:10118000E2E700BF080100209C380008B0380008E2
:10119000FEFF0F0010B582B00E4C00234FF0FF325F
:1011A0001946206800F0E4FD0B490C48FFF706FEE5
:1011B00000231A461946206800F09AFC0023019388
:1011C00002E0019B01330193019A054B9A42F8D941
:1011D000E2E700BF08010020B4380008B03800087A
:1011E000FEFF0F001E4A136843F0010313601C4BFF
:1011F0001B6813F0020FFAD00022194B9A60184BAB
:101200009B6813F00C0FFAD140F20572154B1A606F
:10121000A3F580639A6842F480529A601A6822F0BB
:1012200080721A60104A5A601A6842F080721A601E
:1012300000E000BF0A4B1B6813F0007FF9D0084B99
:101240009A6822F003029A609A6842F002029A6059
:10125000034B9B6803F00C03082BF9D1704700BFC8
:1012600000380240003C02401032002700B583B035
:10127000FFF79CFEFFF7B6FFFFF7BEFE1A48FFF729
:101280009DFD00240194012500952346F022174975
:10129000174800F0BDFF174E019400952346F02239
:1012A0001549304600F0B4FF019400952346F02222
:1012B0001249304600F0ACFF019400952346F0221D
:1012C0000F49304600F0A4FF03222146284600F0D3
:1012D000E9FB0C4B186023462246214600F008FC2F
:1012E00000F0C8FFFEE700BFC8380008F438000867
:1012F0004511000895110008FC3800080439000861
:101300000C39000808010020FEE700BF704700BF4D
:10131000124A12F0070F07D0D11D21F00701C1F5C5
:10132000204313440A4601E04FF420430C48026076
:10133000002141601344083B23F007030948036080
:1013400059601960991A51601360074B1960074B77
:1013500019604FF00042064B1A6070471C010020D4
:10136000140100201001002020A100200C01002009
:101370001CA10020134B00E013461A688242FBD3E5
:1013800010B45C681919884203D14168214459603E
:101390001846446801198A420CD10B4909688A42EF
:1013A00006D05268224442601A681268026002E065
:1013B000016000E00260984200D018605DF8044BC4
:1013C000704700BF140100201001002070B50446D2
:1013D00000F092FF3C4B1B680BB9FFF799FF3B4BAA
:1013E0001B681C4255D19CB1083414F0070F0FD074
:1013F00024F00704083404F007034BB14FF0A003B6
:1014000083F31188BFF36F8FBFF34F8F00BFFDE7EA
:10141000002C40D02E4B1B689C423ED82D4B1D68A3
:1014200001E02B4615466A68944202D92A68002AD0
:10143000F7D1254A1268954231D01E6808362A68CD
:101440001A606B681B1B102B11D9281910F0070F9D
:1014500009D04FF0A00383F31188BFF36F8FBFF360
:101460004F8F00BFFDE743606C60FFF783FF6A6842
:1014700017490B689B1A0B60174909688B4201D208
:1014800015490B60114B1B681A436A6000232B60DF
:1014900006E0002604E0002602E0002600E0002628
:1014A00000F0CCFF0EB9FFF72FFF16F0070F09D0A1
:1014B0004FF0A00383F31188BFF36F8FBFF34F8FFB
:1014C00000BFFDE7304670BD100100201CA10020C8
:1014D0000C0100201401002020A10020002836D09B
:1014E00038B50346A0F1080550F8042C18490968DE
:1014F00012EA010409D14FF0A00383F31188BFF36E
:101500006F8FBFF34F8F00BFFDE750F8080C48B155
:101510004FF0A00383F31188BFF36F8FBFF34F8F9A
:1015200000BFFDE794B188B91C4622EA010243F8E6
:10153000042C00F0E1FE54F8043C064A11680B4408
:1015400013602846FFF716FF00F078FF38BD70479C
:101550001CA100200C0100200B4B1B68B3F1FF3FC6
:1015600009D04FF0A00383F31188BFF36F8FBFF34F
:101570004F8F00BFFDE74FF0A00383F31188BFF347
:101580006F8FBFF34F8FFEE7100000200648006802
:10159000006880F3088862B661B6BFF34F8FBFF36F
:1015A0006F8F00DF00BF000008ED00E0DFF80C00E7
:1015B000016841F4700101607047000088ED00E0AF
:1015C0004FF0807340F8043C21F0010140F8081C02
:1015D000054B40F80C3C40F8202C6FF0020340F81B
:1015E000243C4438704700BF591500080000000033
:1015F000074B19680868B0E8F04F80F30988BFF31B
:101600006F8F4FF0000080F311887047AFF30080B8
:10161000C4A100204FF0A00383F31188BFF36F8FA4
:10162000BFF34F8F0A4A136801331360012B0ED1A9
:10163000084B1B6813F0FF0F09D04FF0A00383F392
:101640001188BFF36F8FBFF34F8F00BFFDE7704767
:101650001000002004ED00E0094B1B684BB94FF06F
:10166000A00383F31188BFF36F8FBFF34F8F00BFC9
:10167000FDE7013B024A13600BB983F31188704701
:101680001000002008B54FF0A00383F31188BFF3CA
:101690006F8FBFF34F8F00F03DFE18B14FF08052B7
:1016A000024B1A60002383F3118808BD04ED00E0AB
:1016B000064B1B68064AA2FB03239B09013B054A14
:1016C00013600722044B1A60704700BF0C00002013
:1016D000D34D621014E000E010E000E0324B1A68D5
:1016E000324B9A4209D14FF0A00383F31188BFF324
:1016F0006F8FBFF34F8F00BFFDE72B4B1A682C4B4A
:101700009A4209D14FF0A00383F31188BFF36F8F82
:10171000BFF34F8F00BFFDE700B583B0254B1A78AC
:10172000D2B20192FF221A701B78DBB28DF803301F
:101730009DF8033003F0A0031F4A137007221F4BCC
:101740001A6009E01D4A1368013B13609DF80330DD
:101750005B00DBB28DF803309DF8033013F0800F8F
:10176000F0D1164A13681B0203F4E0631360019B77
:10177000DBB2104A1370124B1A6842F470021A60FE
:101780001A6842F070421A60FFF792FF00220D4B78
:101790001A60FFF70BFF0C4A136843F040431360D5
:1017A000FFF7F4FEFFF7D8FE00ED00E071C20F4135
:1017B00070C20F4100E400E024A1002028A1002015
:1017C00020ED00E01000002034EF00E0EFF305838F
:1017D0000F2B10D9114A9B5CDBB2114A127893424D
:1017E00009D24FF0A00383F31188BFF36F8FBFF3CB
:1017F0004F8F00BFFDE70B4B1B6803F4E0630A4A01
:101800001268934209D94FF0A00383F31188BFF304
:101810006F8FBFF34F8F00BFFDE77047F0E300E02D
:1018200024A100200CED00E028A1002000F1080315
:1018300043604FF0FF328260C360036100230360A6
:10184000704700BF00230361704700BF43684B60CF
:101850009A688A609A6851609960086103680133E8
:101860000360704730B40D68B5F1FF3F01D10269E4
:1018700007E000F1080200E01A4653681C68A54220
:10188000FAD253684B6099608A60516008610368BE
:101890000133036030BC704703694268816891601E
:1018A0008268416851605A68904201D182685A60EA
:1018B00000220261186801381860704710B50446AC
:1018C000FFF7A8FEA26BE36B9A4201D1012400E06E
:1018D0000024FFF7C1FE204610BD00BF10B504462E
:1018E000FFF798FEA36B0BB9012400E00024FFF77B
:1018F000B3FE204610BD00BF70B504461646856B8A
:10190000026C3AB9036843BB406800F095FF0023BE
:10191000636029E06EB9806801F0E8F9A268236C81
:101920001344A3606268934219D32368A360002024
:101930001AE0C06801F0DAF9236C5B42E2681A44ED
:10194000E26021688A4202D262681344E360022E98
:1019500007D145B1013D002006E0002004E0002051
:1019600002E0002000E000200135A56370BD00BF4B
:10197000026C72B110B50346C4681444C460406878
:10198000844201D31868D8600846D96801F0AEF9DE
:1019900010BD704738B50546FFF73CFE95F8454049
:1019A00064B20AE06B6A53B105F1240000F03AFE1C
:1019B00008B100F0D7FE013C64B2002CF2DCFF233A
:1019C00085F84530FFF748FEFFF724FE95F84440C0
:1019D00064B20AE02B6953B105F1100000F022FE59
:1019E00008B100F0BFFE013C64B2002CF2DCFF2322
:1019F00085F84430FFF730FE38BD00BF38B548B930
:101A00004FF0A00383F31188BFF36F8FBFF34F8FA5
:101A100000BFFDE704460D46FFF7FCFD2168E26BC1
:101A2000236C03FB021060600020A063A160013AF8
:101A300002FB0313E360FF2384F8443084F845304D
:101A40007DB92369ABB104F1100000F0EBFD80B16A
:101A50004FF08052094B1A60BFF34F8FBFF36F8F67
:101A600007E004F11000FFF7E1FE04F12400FFF7A6
:101A7000DDFEFFF7F1FD012038BD00BF04ED00E001
:101A800038B51D46049C0B4609B9246000E022606D
:101A9000E063236401212046FFF7B0FF84F84C5037
:101AA00038BD00BF48B94FF0A00383F31188BFF3DE
:101AB0006F8FBFF34F8F00BFFDE7F0B583B00346D4
:101AC00011B101FB00F000E000201D4617460C4656
:101AD0005030FFF77BFC064638B100903B4600F1E2
:101AE000500221462846FFF7CBFF304603B0F0BD39
:101AF000F0B585B0019248B94FF0A00383F3118887
:101B0000BFF36F8FBFF34F8F00BFFDE7044619B9D6
:101B1000026C1AB9012202E0012200E000224AB957
:101B20004FF0A00383F31188BFF36F8FBFF34F8F84
:101B300000BFFDE7022B03D1E26B012A02D102E0D4
:101B4000012200E000224AB94FF0A00383F311887C
:101B5000BFF36F8FBFF34F8F00BFFDE71D460E46EB
:101B600000F006FE18B9019B1BB9012302E0012316
:101B700000E000234BB94FF0A00383F31188BFF3BB
:101B80006F8FBFF34F8F00BFFDE70027FFF742FDC8
:101B9000A26BE36B9A4201D3022D21D12A46314632
:101BA0002046FFF7A9FE636A6BB104F1240000F040
:101BB00039FD88B14FF08052324B1A60BFF34F8F1E
:101BC000BFF36F8F08E038B14FF080522D4B1A6091
:101BD000BFF34F8FBFF36F8FFFF73EFD01204EE045
:101BE000019B1BB9FFF738FD002048E01FB902A890
:101BF00000F060FD0127FFF72FFD00F07DFBFFF7F0
:101C000009FD94F844305BB2B3F1FF3F02D10023E9
:101C100084F8443094F845305BB2B3F1FF3F02D111
:101C2000002384F84530FFF717FD01A902A800F052
:101C300057FDF0B92046FFF741FEA0B1019904F12C
:101C4000100000F0B7FC2046FFF7A4FE00F0F6FB02
:101C500000289BD14FF080520A4B1A60BFF34F8F80
:101C6000BFF36F8F92E72046FFF794FE00F0E6FB8C
:101C70008CE72046FFF78EFE00F0E0FB002005B069
:101C8000F0BD00BF04ED00E02DE9F84348B94FF086
:101C9000A00383F31188BFF36F8FBFF34F8F00BF93
:101CA000FDE7044619B9006C18B9012002E00120D3
:101CB00000E0002048B94FF0A00383F31188BFF380
:101CC0006F8FBFF34F8F00BFFDE7022B03D1E06B97
:101CD000012802D102E0012000E0002048B94FF0C5
:101CE000A00383F31188BFF36F8FBFF34F8F00BF43
:101CF000FDE71F4690468946FFF768FDEFF3118622
:101D00004FF0A00383F31188BFF36F8FBFF34F8FA2
:101D1000A26BE36B9A4201D3022F1ED194F8455077
:101D20006DB23A4649462046FFF7E6FDB5F1FF3F62
:101D30000DD1636A9BB104F1240000F073FC80B103
:101D4000B8F1000F0FD00120C8F800000CE06B1CA8
:101D50005BB284F84530012006E0002004E0012059
:101D600002E0012000E0012086F31188BDE8F8833D
:101D70002DE9F04184B0019248B94FF0A00383F3FC
:101D80001188BFF36F8FBFF34F8F00BFFDE704468D
:101D900019B9026C1AB9012202E0012200E0002206
:101DA0004AB94FF0A00383F31188BFF36F8FBFF3DD
:101DB0004F8F00BFFDE71F46884600F0D9FC18B9D9
:101DC000019B1BB9012302E0012300E000234BB972
:101DD0004FF0A00383F31188BFF36F8FBFF34F8FD2
:101DE00000BFFDE70026FFF715FCA56B85B3E6688D
:101DF00041462046FFF7BCFDB7B9013DA563236806
:101E000013B900F075FD60602369EBB104F11000B7
:101E100000F008FCC0B14FF080523E4B1A60BFF397
:101E20004F8FBFF36F8F0FE0E660636A63B104F119
:101E3000240000F0F7FB38B14FF08052354B1A60A8
:101E4000BFF34F8FBFF36F8FFFF706FC01205DE0FC
:101E5000019B1BB9FFF700FC002057E01EB902A848
:101E600000F028FC0126FFF7F7FB00F045FAFFF72A
:101E7000D1FB94F844305BB2B3F1FF3F02D10023B1
:101E800084F8443094F845305BB2B3F1FF3F02D19F
:101E9000002384F84530FFF7DFFB01A902A800F01A
:101EA0001FFC38BB2046FFF719FDE8B1236833B9A2
:101EB000FFF7B0FB606800F06BFCFFF7CDFB01990A
:101EC00004F1240000F076FB2046FFF763FD00F0EC
:101ED000B5FA002887D14FF080520E4B1A60BFF33D
:101EE0004F8FBFF36F8F7EE72046FFF753FD00F063
:101EF000A5FA78E72046FFF74DFD00F09FFA20464F
:101F0000FFF7ECFC00283FF46EAF002004B0BDE802
:101F1000F08100BF04ED00E000230BE0074A52F817
:101F2000332032B9054A42F8331002EBC30358603C
:101F300070470133072BF1D9704700BF7CA2002006
:101F400070B504460D461646FFF764FB94F844301E
:101F50005BB2B3F1FF3F02D1002384F8443094F820
:101F600045305BB2B3F1FF3F02D1002384F8453026
:101F7000FFF772FBA36B2BB93246294604F124000C
:101F800000F032FB2046FFF705FD70BD0A4B1B68D1
:101F90001B680BB9012300E0002323B14FF0FF328F
:101FA000064B1A607047044B1B68DB68DB685A6895
:101FB000024B1A60704700BF30A10020E4A100204E
:101FC00010B50446006BFFF789FA2046FFF786FA42
:101FD00010BD00BF2DE9F04781460D4617469A46D1
:101FE000089EDDF824800A9C9200A521206B00F059
:101FF00088FE236B07F18042013A03EB820727F04A
:102000000707002306E0E956E21882F83410EA5682
:1020100012B10133092BF6D9002384F83D30042E88
:1020200000D90426E662A6640025E564201DFFF7BA
:1020300009FC04F11800FFF705FC2461C6F1050650
:10204000A6616462256584F8545052464946384674
:10205000FFF7B6FA2060B8F1000F01D0C8F80040D1
:10206000BDE8F08738B5002407E004EB8402930054
:102070000E481844FFF7DAFB0134042CF5D90C4D57
:102080002846FFF7D3FB0B4C2046FFF7CFFB0A484F
:10209000FFF7CCFB0948FFF7C9FB0948FFF7C6FB70
:1020A000084B1D60084B1C6038BD00BF54A10020C8
:1020B000ECA1002000A20020C8A1002038A100202F
:1020C00014A2002030A100204CA1002010B504462D
:1020D000FFF7A0FA214A136801331360204B1B68F5
:1020E0003BB91F4B1C601368012B0DD1FFF7BAFFE2
:1020F0000AE01C4B1B683BB9194B1B68DA6AE36AA0
:102100009A4201D8164B1C60174A136801331360BA
:102110002364E36A012202FA03F1144802680A43C5
:10212000026003EB83039A00211D11481044FFF75E
:102130008DFBFFF791FA0B4B1B686BB1084B1B68CB
:10214000DA6AE36A9A4207D24FF08052094B1A606A
:10215000BFF34F8FBFF36F8F10BD00BFC0A1002032
:10216000C4A1002034A10020E8A1002028A2002062
:1021700054A1002004ED00E070B504460E461D4B4E
:102180001D681D4B18680430FFF786FB50B91A4BC9
:102190001B68DA6A012303FA02F218490B6823EA82
:1021A00002030B60B4F1FF3F07D136B1124B19683F
:1021B00004311348FFF74AFB70BD2C440E4B1B68DB
:1021C0005C60A54207D90F4B18680B4B19680431A6
:1021D000FFF748FB70BD0C4B1868074B19680431BA
:1021E000FFF740FB094B1B689C4201D2074B1C6068
:1021F00070BD00BFE0A10020C4A1002028A20020E3
:1022000014A200204CA1002030A10020E4A1002055
:102210002DE9F04385B006460F46154698469000D6
:10222000FFF7D4F860B181465820FFF7CFF8044695
:1022300010B1C0F8309004E04846FFF74FF900E0D5
:1022400000248CB10023039302940D9B01930C9BFB
:10225000009343462A4639463046FFF7BBFE2046E8
:10226000FFF734FF012001E04FF0FF3005B0BDE87B
:10227000F08300BF00B583B0194B01930023009396
:10228000822218491848FFF7C3FF012801D100F046
:102290009DFB012814D14FF0A00383F31188BFF3F5
:1022A0006F8FBFF34F8F4FF0FF32104B1A60012238
:1022B0000F4B1A6000220F4B1A60FFF70FFA0CE069
:1022C000B0F1FF3F09D14FF0A00383F31188BFF3B2
:1022D0006F8FBFF34F8F00BFFDE703B05DF804FBC6
:1022E000DCA10020143900088D250008E4A100209D
:1022F00034A10020E0A10020024A136801331360DA
:10230000704700BFB8A10020014B1868704700BF9C
:10231000E0A10020F8B53E4B1B68002B6AD13D4B75
:102320001D6801351D60CDB93B4B1B681B684BB167
:102330004FF0A00383F31188BFF36F8FBFF34F8F6C
:1023400000BFFDE7344A1168344B1868106019600B
:10235000334A136801331360FFF718FE314B1B68D3
:102360009D4203D200243AE0012400E000242A4BDD
:102370001B681B680BB9012300E0002323B14FF059
:10238000FF32284B1A602AE0234B1B68DB68DE68AB
:1023900073689D4202D2234A136020E0371D3846FD
:1023A000FFF77AFAB36A1BB106F11800FFF774FA67
:1023B000F36A012202FA03F11B4802680A43026031
:1023C00003EB83039A00394618481044FFF73EFA9E
:1023D000F26A174B1B68DB6A9A42C5D2C7E7144BF7
:1023E0001B68DB6A03EB83039A00104B9B58012B9D
:1023F00006D806E00F4A136801331360002400E09A
:1024000001240D4B1B6803B101242046F8BD00BF19
:10241000B8A10020E0A1002030A100204CA10020A4
:102420002CA10020E4A1002028A2002054A100201B
:10243000C4A1002050A100202CA2002038B5354BAB
:102440001B684BB94FF0A00383F31188BFF36F8F64
:10245000BFF34F8F00BFFDE7FFF7DCF82D4B1A6885
:10246000013A1A601B68002B4CD12B4B1B6833BB05
:1024700000244AE0294BDB68DC6804F11800FFF710
:102480000BFA251D2846FFF707FAE36A012202FA34
:1024900003F1234802680A43026003EB83039A00B6
:1024A000294620481044FFF7D1F9E26A1E4B1B6809
:1024B000DB6A9A4204D301221C4B1A6000E000241C
:1024C000164B1B68002BD5D10CB1FFF75FFD184BE5
:1024D0001C6854B1FFF71EFF10B10122134B1A60A4
:1024E000013CF7D10022124B1A60104B1B685BB104
:1024F0004FF080520F4B1A60BFF34F8FBFF36F8FB7
:10250000012402E0002400E00024FFF7A5F82046A3
:1025100038BD00BFB8A10020C0A10020C8A1002084
:1025200028A2002054A10020C4A100202CA2002039
:1025300050A1002004ED00E010B51BE0FFF7DCFE29
:102540000F4B1C68FFF77AFFA4B1FFF763F80C4B41
:10255000DB68DC68201DFFF79FF90A4A1368013B1E
:102560001360094A1368013B1360FFF775F82046B2
:10257000FFF726FD044B1B68002BDFD110BD00BF09
:1025800038A10020C0A10020BCA1002008B5FFF7A1
:10259000D3FF064B1B68012BF9D94FF08052044B37
:1025A0001A60BFF34F8FBFF36F8FF0E754A1002085
:1025B00004ED00E048B94FF0A00383F31188BFF3A6
:1025C0006F8FBFF34F8F00BFFDE710B50C46054B73
:1025D00019681831FFF746F901212046FFF7CCFDB5
:1025E00010BD00BFC4A1002038B548B94FF0A0030A
:1025F00083F31188BFF36F8FBFF34F8F00BFFDE7E9
:102600000C461546064A11681831FFF71FF90DB13F
:102610004FF0FF3429462046FFF7AEFD38BD00BF1E
:10262000C4A1002038B5C368DC684CB94FF0A003E2
:1026300083F31188BFF36F8FBFF34F8F00BFFDE7A8
:1026400004F118052846FFF727F9144B1B68A3B9B6
:10265000251D2846FFF720F9E36A012202FA03F15B
:102660000F4802680A43026003EB83039A0029467D
:102670000C481044FFF7EAF803E029460A48FFF740
:10268000E5F8E26A094B1B68DB6A9A4203D901202C
:10269000074B186038BD002038BD00BFB8A100202E
:1026A00028A2002054A10020C8A10020C4A100201D
:1026B0002CA2002048B94FF0A00383F31188BFF388
:1026C0006F8FBFF34F8F00BFFDE7034A12680260B0
:1026D000024A1268426070472CA10020E0A100204D
:1026E00038B548B94FF0A00383F31188BFF36F8F5B
:1026F000BFF34F8F00BFFDE7044649B94FF0A00379
:1027000083F31188BFF36F8FBFF34F8F00BFFDE7D7
:102710000D46FEF77FFF114B19682A68B2F1FF3FA3
:1027200013D020680E4B1B68984202D06368994210
:102730000DD26368C81A82420BD95B1A13442B600E
:102740002046FFF7B7FF002404E0002402E0012444
:1027500000E00124FEF780FF204638BDE0A1002004
:102760002CA100200122014B1A6070472CA20020EE
:10277000054B1B6823B1054B1B681BB90220704732
:10278000012070470020704734A10020B8A100202C
:1027900000284AD038B50246C36A24490968C96A84
:1027A0008B4241D28169002905DB20490968C96A49
:1027B000C1F105018161506903EB830399001C4B52
:1027C0001944884201D1012300E0002343B3144699
:1027D000151D2846FFF760F870B9E36A03EB830123
:1027E0008A0013498A583AB9012202FA03F31149BF
:1027F0000A6822EA03030B600C4B1B68DB6AE36286
:10280000012202FA03F10B4802680A43026003EB5B
:1028100083039A00294606481044FFF717F838BD8D
:10282000024B1B68DB6AD36238BD7047C4A100202D
:1028300054A1002028A2002000284DD038B503461E
:10284000284A1268904209D04FF0A00383F3118800
:10285000BFF36F8FBFF34F8F00BFFDE7C26C4AB964
:102860004FF0A00383F31188BFF36F8FBFF34F8F37
:1028700000BFFDE7013AC264C06A996C88422DD05E
:1028800072BB1C461D1D2846FFF706F870B9E26AA8
:1028900002EB82018B001449CB583BB9012303FAA8
:1028A00002F212490B6823EA02030B60A36CE36295
:1028B000C3F10502A261012404FA03F00B490A687E
:1028C00002430A6003EB83039A002946064810443A
:1028D000FEF7BCFF204638BD00207047002038BD01
:1028E000002038BDC4A1002054A1002028A200204F
:1028F000054B1B6823B1044B1A68D36C0133D364B6
:10290000014B1868704700BFC4A10020064B1A682D
:102910001368B3FA83F35B09036013B9D3681868CB
:1029200070470020704700BF30A2002008B541600A
:10293000006191420AD8D21A83699A4211D2011DCC
:102940000A4B1868FEF78EFF002008BD9A4201D29C
:10295000994208D2011D064B1868FEF783FF00203C
:1029600008BD012008BD012008BD00BF64A20020F1
:1029700030A2002038B5FEF74DFE0E4B1B68B3B9F0
:102980000D4D2846FEF752FF0C4C2046FEF74EFF39
:102990000B4B1D600B4B1C6000220C210520FFF728
:1029A00081F8044B186010B10749FFF7B5FAFEF73C
:1029B00053FE38BD60A2002034A2002048A20020AF
:1029C00030A2002064A200201C39000800B583B0AA
:1029D000FFF7D0FF0E4B1B685BB10E4B0193042336
:1029E000009300234FF482720B490C48FFF710FC50
:1029F00000E0002048B94FF0A00383F31188BFF333
:102A00006F8FBFF34F8F00BFFDE703B05DF804FB8E
:102A100060A2002068A2002024390008C92C000808
:102A200048B94FF0A00383F31188BFF36F8FBFF352
:102A30004F8F00BFFDE730B585B015460446124AFA
:102A40001068F0B11A46019102950394052913DC30
:102A5000FFF78EFE022807D10023089A01A90A4831
:102A60000068FFF745F80DE000231A4601A9064863
:102A70000068FFF73DF805E0002301A9FFF704F91E
:102A800000E0002005B030BD60A2002070B582B02B
:102A90002AE0DB681E68DC68251D2846FEF7FCFE80
:102AA000636A20469847E369012B1DD1A36933442B
:102AB0009E4207D2636024612946114B1868FEF7D5
:102AC000D1FE11E0002100910B4632462046FFF76F
:102AD000A7FF48B94FF0A00383F31188BFF36F8FAE
:102AE000BFF34F8F00BFFDE7054B1B681A68002A34
:102AF000CFD1044A106802490860136002B070BD6B
:102B000030A2002064A2002038B50546FFF7FCFB88
:102B10000446074B1B68984204D2FFF7B7FF012316
:102B20002B6001E000232B60014B1C60204638BD68
:102B30005CA2002070B582B005460E46144B1B689F
:102B4000DB68DC68201DFEF7A7FEE369012B19D1C5
:102B5000A1692B46324629442046FFF7E7FE88B19B
:102B6000002100910B462A462046FFF759FF48B93D
:102B70004FF0A00383F31188BFF36F8FBFF34F8F24
:102B800000BFFDE7636A2046984702B070BD00BFF2
:102B900030A2002070B582B006460C46FFF7ACFBB1
:102BA00001A8FFF7B1FF019B1BBB054644B9B0422A
:102BB00006D3FFF743FC29463046FFF7BBFF1AE078
:102BC0002CB10E4B1B681C68B4FA84F464092246CD
:102BD000711B0B4B1868FFF7B3F9FFF72FFC50B9C7
:102BE0004FF08052074B1A60BFF34F8FBFF36F8FC8
:102BF00001E0FFF723FC02B070BD00BF64A200201B
:102C000060A2002004ED00E030B587B04FE0039BE8
:102C1000002B4CDB059C636913B1201DFEF73CFEC5
:102C200002A8FFF771FF039B092B40D8DFE803F0F0
:102C30000505053F283C05053F280499A5690B4675
:102C4000024629442046FFF771FE80B3636A20469E
:102C50009847E369012B2AD1A269002100910B4614
:102C6000049802442046FFF7DBFE00BB4FF0A003B0
:102C700083F31188BFF36F8FBFF34F8F00BFFDE762
:102C80000499A16149B94FF0A00383F31188BFF300
:102C90006F8FBFF34F8F00BFFDE70346024601442D
:102CA0002046FFF743FE02E02046FEF717FC002314
:102CB0001A4603A903480068FFF75AF80028A6D16E
:102CC00007B030BD60A2002000B583B001A8FFF7B7
:102CD0001DFE0199FFF75EFFFFF796FFF6E700BFC5
:102CE000014B1868704700BF7400002010B5431EE8
:102CF0000A44914204D011F8014B03F8014FF8E760
:102D000010BD02440346934202D003F8011BFAE7C8
:102D10007047034613F8012B002AFBD1181A01381B
:102D2000704730B5141E05469BB0184604DA8B2355
:102D30002B604FF0FF301DE04FF40273ADF80C3004
:102D400014BF04F1FF332346029305934FF6FF733C
:102D500000910491ADF80E3002461E9B694628464C
:102D600000F072F8431CBCBF8B232B6014B1009B96
:102D700000221A701BB030BD07B5009313460A46F7
:102D8000014603480068FFF7CCFF03B05DF804FB81
:102D9000740000202DE9F0478E689E4282460C4662
:102DA000914698463ED88A8912F4906F3AD02568A9
:102DB00009696F1A6569022305EB450595FBF3F573
:102DC0007B1C43449D4238BF1D4653050FD5294601
:102DD00000F088FB064698B13A462169FFF786FF66
:102DE000A38923F4906343F08003A38113E02A4670
:102DF00000F0D6FB064670B92169504600F024FB6E
:102E00000C23CAF80030A38943F04003A3814FF09C
:102E1000FF30BDE8F087266165613E44ED1B26600A
:102E2000A5604646464528BF464632464946206884
:102E300000F0EEFAA3689B1BA36023681E44266083
:102E40000020BDE8F08700002DE9F04F9DB08046DE
:102E500003938B891C060D4616460DD50B695BB98D
:102E6000402100F03FFB2860286118B90C23C8F806
:102E70000030CDE040236B610023099320238DF8BF
:102E80002930DFF89CB130238DF82A3037463C4694
:102E900014F8013B1BB9B7EB060910D003E0252B52
:102EA000F9D02746F3E74B46324629464046FFF71E
:102EB00071FF013000F0A780099B4B4409933B78D8
:102EC000002B00F0A08000234FF0FF320493079303
:102ED000059206938DF853301A9301260522217826
:102EE0004E4800F045FA671C049B38B14B4A801AE3
:102EF00006FA00F0184304903C46EFE7D90644BFB9
:102F000020228DF853201A0744BF2B228DF853201E
:102F100022782A2A03D0079A00210A200BE0039A7C
:102F2000111D12680391002A10DA524243F0020088
:102F3000079204900BE0274601343B78303B092B85
:102F400003D800FB02320121F5E701B107923B787B
:102F50002E2B1ED17B782A2B0AD1039B1A1D1B68AE
:102F60000392002BB8BF4FF0FF330237059310E0F8
:102F700000230593781C19460A24074601303A7845
:102F8000303A092A03D804FB01210123F5E703B1F4
:102F9000059103223978224800F0EAF940B1402334
:102FA000CBEB000003FA00F0049B184304900137B8
:102FB00039781C488DF8281006227E1C00F0D8F9BC
:102FC00088B1194B33B9039B073323F00703083348
:102FD000039314E003AB00932A46144B04A9404624
:102FE000AFF3008007E003AB00932A460F4B04A920
:102FF000404600F093F8B0F1FF3F824603D0099BB2
:103000005344099342E7AB895B0601D4099801E078
:103010004FF0FF301DB0BDE8F08F00BF2C39000825
:10302000323900083639000800000000952D0008EC
:103030002DE9F04791461F460A698B68DDF820802C
:103040009342B8BF1346C9F8003091F843200646B2
:103050000C4612B10133C9F800302368990642BF0B
:10306000D9F800300233C9F80030256815F006059C
:1030700010D104F1190A07E00123524639463046BF
:10308000C04701301AD00135E368D9F800209B1AF7
:103090009D42F1DB94F843302268003318BF0123CE
:1030A00092060FD5E1185A1C302081F843002244C3
:1030B00094F8451082F84310023303E04FF0FF30DC
:1030C000BDE8F08704F1430239463046C04701307D
:1030D000F4D02268D9F80050E36802F00602042A0E
:1030E00008BF5D1B2269A3680CBF25EAE5750025B2
:1030F0009342C4BF9B1AED184FF000091A344D4596
:1031000009D00123224639463046C0470130D5D088
:1031100009F10109F3E70020BDE8F0872DE9F0434C
:1031200017460A7E85B06E2A984606460C460C9BCA
:1031300001F1430E00F0AE8011D8632A22D009D8E5
:10314000002A00F0BB80582A40F0CA8081F8452050
:10315000834955E0642A1ED0692A1CD0C0E0732A36
:1031600000F0B08009D86F2A2ED0702A40F0B880C5
:103170000A6842F020020A603EE0752A24D0782ACC
:103180003AD0ADE01A6801F14205111D19601368CB
:1031900084F84230A8E021681A6811F0800F02D04C
:1031A000111D196008E011F0400F02F104011960CF
:1031B00002D0B2F9003000E01368002B3CDA2D2277
:1031C0005B4284F8432037E021681A6811F0800FD1
:1031D00002D0111D196007E011F0400F02F1040147
:1031E000196001D0138800E01368227E5C496F2AC1
:1031F00014BF0A2208221BE078225A4984F845208D
:103200002268186812F0800F00F104051D6003D1D8
:10321000550601D5038800E00368D00744BF42F09B
:10322000200222601BB9226822F0200222601022B4
:10323000002084F8430001E049490A226568A5603E
:10324000002D08DB206820F0040020602BB9002D41
:103250007DD175460CE0002B79D07546B3FBF2F0BA
:1032600002FB1033CB5C05F8013D03460028F5D185
:10327000082A0BD12368DA0708D5236962689A42C5
:10328000DEBF302305F8013C05F1FF35C5EB0E0329
:1032900023612EE008681A68496910F0800F03D096
:1032A000101D1860136808E010F0400F02F10400D0
:1032B0001860136801D0198000E0196000232361B1
:1032C000754616E01A68111D1960156862680021BC
:1032D000284600F04DF808B1401B6060636804E0C8
:1032E00004F1420584F8422001232361002384F87D
:1032F0004330CDF800803B4603AA21463046FFF715
:1033000097FE013002D14FF0FF3026E023692A46B4
:1033100039463046C0470130F5D023689B0710D5A9
:10332000002504F1190907E001234A4639463046D1
:10333000C0470130E7D00135E368039A9B1A9D42EC
:10334000F2DBE068039B9842B8BF184605E00B78B3
:1033500084F8423004F142058AE705B0BDE8F08305
:103360003D3900084E390008000000000000000050
:1033700001F0FF01102A2BDB10F0070F08D010F826
:10338000013B013A8B422DD010F0070F42B3F6D12A
:10339000F0B441EA012141EA014122F007047FF043
:1033A00000070023F0E80256083C85EA010586EA9A
:1033B000010685FA47F5A3FA87F586FA47F6A5FAD6
:1033C00087F68EB9EED1F0BC01F0FF0102F00702E2
:1033D00032B110F8013B013A83EA010313B1F8D18D
:1033E0000020704701387047002D06BF354603386E
:1033F000073815F0010F07D1013015F4807F02BFA7
:10340000013015F4C03F0130F0BC0138704700BFF7
:10341000884210B501EB020301D8421E0BE098422E
:10342000FBD28118D21AD34204D013F8014D01F80F
:10343000014DF8E710BD994204D011F8014B02F894
:10344000014FF8E710BD000038B50546002946D009
:1034500051F8043C0C1F002BB8BFE41800F0D6F85C
:103460001F4A1368114613B96360146032E0A34227
:103470000ED92268A018834204BF18685B68636095
:1034800004BF121822600C6024E0A24203D8134645
:103490005A68002AF9D118681918A1420BD121687D
:1034A000014458188242196014D1106852685A6059
:1034B000014419600EE002D90C232B600AE0216858
:1034C0006018824204BF10685268626004BF091825
:1034D00021605C602846BDE8384000F098B838BDEF
:1034E00070A2002070B5CD1C25F0030508350C2D09
:1034F00038BF0C25002D064601DBA94202D90C235A
:10350000336046E000F082F8234B1C681A462146DF
:10351000A1B10B685B1B0ED40B2B03D90B60CC182D
:10352000CD501EE08C420DBF63684B686360136032
:1035300018BF0C4615E00C464968E9E7174C2368AC
:103540001BB9304600F052F820602946304600F0A2
:103550004DF8431C18D0C41C24F00304A0420DD124
:103560002560304600F053F804F10B00231D20F0D5
:103570000700C31A0ED05A42E25070BD211A3046DD
:1035800000F034F80130EBD10C233360304600F00A
:103590003EF8002070BD00BF70A200206CA2002089
:1035A000F8B5074615460E4621B91146BDE8F84064
:1035B000FFF798BF1AB9FFF747FF2846F8BD00F09C
:1035C00027F885420ED929463846FFF78BFF044677
:1035D00050B131462A46FFF789FB31463846FFF79E
:1035E00033FF01E03046F8BD2046F8BD38B5064C43
:1035F0000023054608462360FDF7ACFB431C02D1BF
:10360000236803B12B6038BD78A200207047704753
:1036100051F8040C0028BEBF091851F8043CC0182A
:10362000043870472E2E2F73797374656D2F737263
:10363000632F73746D333266342D68616C2F73742D
:103640006D3332663478785F68616C5F636F727473
:1036500065782E63000000000000000001020304F2
:1036600001020304060708092E2E2F73797374656F
:103670006D2F7372632F73746D333266342D6861EE
:103680006C2F73746D3332663478785F68616C5F69
:103690007263632E6300000061626F727428292CCC
:1036A0002065786974696E672E2E2E002C20667551
:1036B0006E6374696F6E3A20000000006173736579
:1036C0007274696F6E2022257322206661696C65B1
:1036D000643A2066696C6520222573222C206C696F
:1036E0006E65202564257325730A00006173736578
:1036F00072745F706172616D2829206661696C6502
:10370000643A2066696C6520222573222C206C693E
:103710006E652025640A00006D61696E286172671C
:10372000633D25642C20617267763D5B00000000DC
:103730002C20000022257322000000005D293B0A96
:1037400000000000537461636B206672616D653A1E
:103750000A000000205230203D2020253038580A31
:1037600000000000205231203D2020253038580A2A
:1037700000000000205232203D2020253038580A19
:1037800000000000205233203D2020253038580A08
:103790000000000020523132203D20253038580AE8
:1037A00000000000204C52203D2020253038580ACF
:1037B00000000000205043203D2020253038580ACA
:1037C0000000000020505352203D20253038580A78
:1037D000000000004653522F4641523A0A000000B2
:1037E0002043465352203D2020253038580A0000FF
:1037F0002048465352203D2020253038580A0000EA
:103800002044465352203D2020253038580A0000DD
:103810002041465352203D2020253038580A0000D0
:10382000204D4D464152203D20253038580A000099
:103830002042464152203D2020253038580A0000C1
:103840004D6973630A000000204C522F4558435FB6
:1038500052455455524E3D20253038580A0000003C
:103860005B486172644661756C745D0A000000001B
:103870005B4275734661756C745D0A005B557361DC
:1038800067654661756C745D0A0000000000000009
:103890000000000001020304060708095461736B6D
:1038A00020312069732072756E6E696E670A0000A0
:1038B00025730A005461736B20322069732072757E
:1038C0006E6E696E670A000045636C697073652DE2
:1038D0004672656552544F532050726F6A65637427
:1038E0002C20466562203131202C203230313720A7
:1038F0000A0000005461736B203100005461736B47
:10390000203200006372617A793100006372617A5B
:103910007932000049444C4500000000546D72515A
:1039200000000000546D722053766300232D302B6D
:103930002000686C4C0065666745464700303132B0
:103940003334353637383941424344454600303107
:0F39500032333435363738396162636465660067
:103960007856341284000020000000000024F40087
:10397000AAAAAAAA0000000000000000000000009F
:103980000000000000000000000000000000000037
:103990000000000000000000000000000000000027
:1039A0000000000000000000000000000000000017
:1039B0000000000000000000000000000000000007
:1039C00000000000000000000000000000000000F7
:0C39D00000000000140000203254769823
:04000005080001C529
:00000001FF
