:0200000280007C
:10000000C8CB0720C11C0800BD1C0800BD1C08008F
:10001000BD1C0800BD1C0800BD1C0800000000003D
:10002000000000000000000000000000890208003D
:10003000BD1C080000000000050308004103080083
:10004000BD1C0800BD1C0800BD1C0800BD1C08002C
:10005000BD1C0800BD1C0800BD1C0800BD1C08001C
:10006000BD1C0800BD1C0800000000002D1B08007E
:10007000411B0800551B0800691B08000000000018
:1000800000000000BD1C0800BD1C0800BD1C0800CD
:10009000BD1C0800BD1C0800BD1C0800BD1C0800DC
:1000A000BD1C080000000000BD1C0800BD1C0800AD
:1000B000BD1C0800BD1C0800BD1C0800BD1C0800BC
:1000C000BD1C0800BD1C0800BD1C0800BD1C0800AC
:1000D000BD1C0800BD1C0800BD1C0800BD1C08009C
:1000E000BD1C0800BD1C0800BD1C0800BD1C08008C
:1000F000BD1C080010B5054C237833B9044B13B16F
:100100000448AFF300800123237010BDA809072025
:10011000000000006C520800084B10B51BB10849E4
:100120000848AFF300800848036803B910BD074BC7
:10013000002BFBD0BDE81040184700BF00000000B6
:10014000AC0907206C5208006C5208000000000047
:1001500090B92DE9F0410C469046002A0FDD8F182A
:10016000084E094D306821462B6898470134A74254
:10017000F8D14046BDE8F0814FF0FF3070470020D5
:10018000BDE8F081BCAB0720B4AB0720436913F096
:10019000020F1DBFC1F30801C1610020012070479B
:1001A000436913F0010F05D08369C3F308030B60A3
:1001B000002070470120704700F1080343604FF0B2
:1001C000FF328260C360036100230360704700BF99
:1001D00000230361704700BF43685A684A60426861
:1001E0008A605A6891605960416008610368013310
:1001F0000360704710B40C68B4F1FF3F01D103698C
:100200000AE000F10803C2681268944204D35B68F4
:100210005A6812689442FAD25A684A6091608B60B8
:100220005960086103680133036010BC704700BF68
:10023000436882689A60836842685A6003695A68B2
:10024000904204BF82685A60002202611A68013A33
:100250001A601868704700BF03480068006880F3A0
:10026000088862B600DF00BF08ED00E04FF0807341
:1002700040F8043C40F8081C002340F80C3C40F8CF
:10028000202C4038704700BF064B19680868B0E85A
:10029000F00F80F309884FF0000080F311884EF0D2
:1002A0000D0E70478CAA07204FF08052014B1A6048
:1002B000704700BF04ED00E0EFF311804FF0A001A4
:1002C00081F311887047002008B5034B9847034A13
:1002D00013680133136008BDB90208002C01072020
:1002E00080F31188704700BF08B5044A1368013BCA
:1002F000136013B90020024B984708BD2C0107205A
:10030000E1020800EFF309800C4B1A6820E9F00FB6
:1003100010602DE908404FF0A00080F3118800F034
:1003200093FE4FF0000080F31188BDE80840196883
:100330000868B0E8F00F80F3098870478CAA07209E
:1003400008B54FF08052054B1A60054B9847054B96
:1003500098470020044B984708BD00BF04ED00E01B
:10036000B9020800590D0800E1020800034A044BD5
:100370001A600722043B1A60704700BF1F48010043
:1003800014E000E010B5094B1A6842F470021A60DC
:100390001A6842F070421A60054B98470024054BDA
:1003A0001C60054B9847204610BD00BF20ED00E0C3
:1003B0006D0308002C01072059020800124A00E0D2
:1003C0001A4613688342FBD310B451685418A042F4
:1003D00003D1406801445160104641684418A3426B
:1003E0000CD10A4B1B689C4206D0636819444160DB
:1003F00013681B68036002E0046000E00360904241
:1004000018BF106010BC7047CCA90720C8A90720EE
:1004100038B504462B4B98472B4B1B689BB92B4A8E
:100420002B4B13600021516049F6F0729818264D4D
:10043000286049F6F475595199505A601860254A58
:100440001368103B1360002C37D004F1100212F037
:10045000070F1CBF22F007020832511E49F6FE7337
:10046000994227D819490C6801E021461C46636867
:100470009A4202D92368002BF7D1134B1B689C4288
:1004800018D00D68103523680B6063689B1A202B09
:1004900004D9A018436062600F4B98470D4A136857
:1004A00061685B1A13600D4B98474DB90C4B984728
:1004B000002505E0094B9847F8E7084B9847F5E712
:1004C000284638BD290D0800C8A90720CCA9072057
:1004D000C809072030010720BD030800790E080075
:1004E000C521080080B110B50446084B9847084A5A
:1004F00054F80C1C13680B441360A4F11000054B56
:100500009847054B984710BD704700BF290D08005C
:1005100030010720BD030800790E080010B504461D
:10052000036C3BB903681BBB4068134B984700231F
:1005300063601DE06AB91A468068104B9847A2684C
:10054000236C1344A3606268934211D32368A360B1
:100550000EE01A46C068094B9847236C5B42E2687C
:100560001A44E26021688A4202D262681344E3605E
:10057000A36B0133A36310BD791308004122080067
:1005800038B50346006858B11A6CDC681444DC6066
:100590005D68AC4228BFD8600846D968014B9847CF
:1005A00038BD00BF41220800F8B504461E4B9847ED
:1005B000A36C002B13DD636A1BB910E0636A23B9D7
:1005C0000DE004F12406194D194F3046A84700B13B
:1005D000B847A36C013BA364A36C002BEEDC4FF087
:1005E000FF33A364134B98470F4B9847636C002B62
:1005F00013DD23691BB910E0236923B90DE004F171
:1006000010060A4D0A4F3046A84700B1B847636C40
:10061000013B6364636C002BEEDC4FF0FF336364DB
:10062000044B9847F8BD00BFC902080091110800AB
:10063000C1120800E902080038B518B9174B9847ED
:1006400000BFFDE70D460446154B98472268216C14
:10065000E36B03FB01F3D01860600020A063A2608D
:100660005B1A1344E3604FF0FF336364A36455B92E
:1006700023697BB104F110000A4B9847012809D186
:10068000094B984706E004F11000084DA84704F113
:100690002400A847064B9847012038BDB90208003E
:1006A000C902080091110800A9020800B901080058
:1006B000E9020800F8B5A0B10D46174606465020DD
:1006C0000E4B9847044660B105FB06F001300B4B1A
:1006D0009847206040B92046094B984701E000BF89
:1006E000FDE7084B9847FAE7E663256401212046B9
:1006F000054B984784F84D702046F8BD110408005A
:10070000E5040800B9020800390608002DE9F04F99
:1007100085B00192009318B9384B984700BFFDE7A8
:100720008A46044629B9036C2BB1344B984700BF65
:10073000FDE7002700E00027314EDFF8ECB0314D37
:10074000B047A26BE36B9A4212D2009A5146204600
:100750002D4B9847636A3BB104F124002B4B98471B
:10076000012801D12A4B9847264B9847012042E0A7
:10077000019B1BB9234B984700203CE017B902A806
:10078000D8470127A847234B9847B047636CB3F17C
:10079000FF3F04BF00236364A36CB3F1FF3F04BFBA
:1007A0000023A364A84701A902A81B4B9847E0B9FE
:1007B000B047D4F83890D4F83C80A847C1450ED152
:1007C000019904F11000154B98472046144B9847A7
:1007D000144B98470028B3D10D4B9847B0E72046FB
:1007E0000F4B98470F4B9847AAE720460C4B98476A
:1007F0000C4B9847002005B0BDE8F08FB902080007
:10080000C9020800E90208001D050800911108004E
:10081000A9020800290D08003D120800ED1008008B
:10082000A9050800790E0800151208002DE9F0410D
:1008300018B91E4B984700BFFDE70E46154698466F
:10084000044629B9036C1BB1184B984700BFFDE75C
:10085000164B98470746A26BE36B9A4218D2424662
:1008600031462046124B9847A36CB3F1FF3F0AD1A3
:10087000636A7BB104F124000E4B984760B16DB1FF
:1008800001242C600BE0A36C0133A364012406E077
:10089000002404E0012402E0012400E001243846A1
:1008A000054B98472046BDE8F08100BFB90208001B
:1008B0001D05080091110800E10208002DE9F04F24
:1008C00085B0019218B9464B984700BFFDE78946AD
:1008D0009A46044629B9036C2BB1414B984700BF97
:1008E000FDE7002700E000273E4EDFF828B13E4D2F
:1008F000B047A36B43B3E568494620463B4B984756
:10090000BAF1000F12D1A36B013BA363236813B9A3
:10091000374B98476060236993B104F11000354B61
:10092000984701280CD1344B984709E0E560636A89
:1009300033B104F124002F4B984708B12E4B984750
:10094000294B9847012048E0019B1BB9264B98474B
:10095000002042E017B902A8D8470127A847274B33
:100960009847B047636CB3F1FF3F04BF0023636453
:10097000A36CB3F1FF3F04BF0023A364A84701A900
:1009800002A81F4B984710BBB047D4F83880A8473F
:10099000B8F1000F15D1236823B9B0476068194B2F
:1009A0009847A847019904F12400174B984720461F
:1009B000164B9847164B9847002899D10E4B9847ED
:1009C00096E72046114B9847114B984790E72046F1
:1009D0000E4B98470E4B9847002005B0BDE8F08FAE
:1009E000B9020800C9020800E902080081050800F0
:1009F000CD12080091110800A9020800290D080075
:100A00003D120800F9120800ED100800A9050800C1
:100A1000790E08001512080038B504460D460D4B36
:100A20009847636CB3F1FF3F04BF00236364A36C7A
:100A3000B3F1FF3F04BF0023A364074B9847A36BA8
:100A400023B9294604F12400044B98472046044B5F
:100A5000984738BDC9020800E90208004D11080096
:100A6000A905080010B50F4B1B6858600E4B1B689A
:100A7000984207D20D4B18680A4B196804310C4B89
:100A8000984710BD04460B4B1868064B1968043193
:100A9000074B9847084B1B689C423CBF064B1C60A9
:100AA00010BD00BF8CAA0720A8AA0720ACAA072067
:100AB000F5010800E8A90720340107202DE9F04FCF
:100AC00083B00C9FDDF834800E9E019018B9624B04
:100AD000984700BFFDE7894615469B46042F03D97A
:100AE0005D4B984700BFFDE74C205C4B98470446A0
:100AF000002800F0AB80002E40F0A580A800574BE6
:100B00009847206318B92046554B98479EE0AA00A5
:100B1000A521544B984705F18045013D236B03EB1C
:100B2000850323F007050A22494604F134004E4BA1
:100B30009847002384F83D303E46042F28BF042602
:100B4000E662A66404F104094846DFF86CA1D047C8
:100B500004F11800D0472461C6F10506A66164625D
:100B60005A4601992846414B9847206010F0070FDC
:100B700003D0394B984700BFFDE7B8F1000F01D013
:100B8000C8F800403A4B98473A4A1368013313605B
:100B9000394B1B680BBB384B1C601368012B26D1EB
:100BA000364D05F16408364E2846B04714354545A4
:100BB000FAD1DFF808814046314DA847314E304622
:100BC000A8473148A8473148A8473148A847314B82
:100BD000C3F80080304B1E6009E0304B1B6833B90E
:100BE000254B1B68DB6A9F4224BF234B1C60E06AD5
:100BF0002B4B1B68984284BF294B1860294A136805
:100C0000236401331360284B1B68984284BF264B32
:100C1000186000EB80004946184B03EB8000234B23
:100C20009847234B98471D4B1B6843B1124B1B68D9
:100C3000DB6A9F4205D91F4B9847012008E001203D
:100C400006E0012004E00663304660E74FF0FF3025
:100C500003B0BDE8F08F00BFB9020800110408001E
:100C6000E50408002D230800852508006D02080012
:100C7000C9020800CCAA07208CAA072024AA0720B2
:100C8000B90108000CAA072090AA0720F8A907209C
:100C9000D4A90720E8A90720ACAA0720F0A90720BB
:100CA000D0AA0720B0AA072020AA0720D90108004F
:100CB000E9020800A9020800D1010800B4AA07202F
:100CC00010B584B000230393029301930093822212
:100CD0000D490E480E4CA04701280ED10D4B9847E8
:100CE00001280AD10C4B984701220C4B1A600022B4
:100CF0000B4B1A600B4B984704E018B9064B98470A
:100D000000BFFDE704B010BD74510800C50F080016
:100D1000BD0A080071140800B9020800F0A90720F4
:100D2000A8AA072085030800024A1368013313604C
:100D3000704700BF88AA072010B5044B9847044BA2
:100D40001C68044B9847204610BD00BFC90208002C
:100D5000A8AA0720E90208002DE9F0413A4B1B68D8
:100D6000002B6BD1394B1A6801321A601B6803BB28
:100D7000374B1B681B681BB1364B984700BFFDE71C
:100D8000334B1968344A10681860116033490A6897
:100D900001320A601B681B6823B94FF0FF32304BE9
:100DA0001A6006E02A4B1B68DB68DB685A682C4B2C
:100DB0001A60264B1A682A4B1B689A4242D3244B6E
:100DC0001B681B686BB1224B1B68DB68DC686368BF
:100DD0001E4A1268934213D8224E234FDFF89480A4
:100DE00012E04FF0FF321E4B1A60BDE8F081184B45
:100DF0001B68DB68DC686368144A1268934203D995
:100E0000174A1360BDE8F081251D2846B047A36A44
:100E100013B104F11800B047E06A3B68984288BFFC
:100E2000386000EB8000294608EB80000F4B9847A4
:100E3000074B1B681B68002BD9D1D2E70C4A1368FB
:100E400001331360BDE8F08188AA0720A8AA072013
:100E5000E8A90720B9020800ACAA0720A4AA072025
:100E6000340107203102080020AA0720D901080018
:100E7000ECA9072024AA07202DE9F843304B1B6872
:100E80001BB9304B984700BFFDE72F4B98472C4BC1
:100E90001A68013A1A601B68002B49D12B4B1B685A
:100EA00003BB002447E0D8F80C30DC6804F11800DC
:100EB000B84704F104094846B847E06A33689842E5
:100EC00088BF306000EB80004946214B03EB800077
:100ED000204B9847204B1B68E26ADB6A9A4228BF86
:100EE000012504E00025DFF890801C4F1C4ED8F847
:100EF0000030002BD7D11B4B1B6863B1194B1B680B
:100F00007BB1194D174CA8472368013B2360236828
:100F1000002BF8D105E0012D03D0144B1B68012BE9
:100F200008D10022114B1A60114B9847012402E0AE
:100F3000002400E000240F4B98472046BDE8F883CA
:100F400088AA0720B9020800C9020800CCAA072015
:100F500024AA0720D90108008CAA07203102080022
:100F600020AA0720ECA90720590D0800C8AA0720CD
:100F7000A9020800E902080090AA072010B580B174
:100F80000446094B9847094B1B681C44084B1868DA
:100F90000430084B98472046074B9847074B984723
:100FA00008B9074B984710BD290D0800A8AA0720CB
:100FB0008CAA072031020800650A0800790E080093
:100FC000A902080080B5154D154FDFF87480154E45
:100FD00019E0C0473C68B047ACB1134B9847FB6879
:100FE000DC68201D114B9847114A1368013B1360C0
:100FF0002B68013B2B600F4B9847206BDFF8449028
:10100000C8472046C8472B68002BE2D10A4B1B6813
:10101000012BDCD9094B9847D7E700BFF4A907207B
:10102000F8A90720790E0800C9020800310208005B
:10103000CCAA0720E902080024AA0720A902080078
:10104000290D0800E504080010B5224B1B686BB998
:10105000214B1B6803EB83039B00204AD358CBB979
:101060001D4B1B6843B11C4A1C4909E001221C4B63
:101070001A6010BD13681BB91A4B984700BFFDE7F3
:101080001368013B1360136803EB830351F82330AB
:10109000002BEFD0104B1B68104A9900C81802EBC8
:1010A000800044686468446002460832944206D175
:1010B000606803EB8301094A02EB8102506003EB95
:1010C0008303064A02EB83035B68DA68064B1A6007
:1010D00010BD00BF88AA072020AA072024AA072045
:1010E000C8AA0720B90208008CAA072038B518B989
:1010F0000E4B984700BFFDE70C460D4D296818318F
:101100000C4B9847286804300B4B9847B4F1FF3FCD
:1011100005D1296804310948094B984738BD094B66
:1011200018682044084B984738BD00BFB902080032
:101130008CAA0720F501080031020800D4A9072075
:10114000D9010800A8AA0720650A080038B518B90F
:10115000094B984700BFFDE70D46084C2168183140
:10116000074B984720680430064B9847064B186891
:101170002844064B984738BDB90208008CAA0720BE
:10118000D901080031020800A8AA0720650A080052
:1011900038B5C368DC681CB9164B984700BFFDE73B
:1011A00004F118052846144B9847144B1B689BB94B
:1011B000251D2846104B9847E06A114B1B68984242
:1011C00084BF0F4B186000EB800029460D4B03EBEA
:1011D00080000D4B984703E029460C480A4B98477E
:1011E0000B4B1B68E06ADB6A984234BF0020012089
:1011F00038BD00BFB90208003102080088AA0720E4
:1012000020AA072024AA0720D901080090AA0720B5
:101210008CAA072008B518B9054B984700BFFDE711
:10122000044A12680260044A1268426008BD00BFA6
:10123000B9020800A4AA0720A8AA072038B518B93F
:10124000194B984700BFFDE70D46044619B9164BE8
:10125000984700BFFDE7154B98472B68B3F1FF3F58
:1012600018D0134A12682168914204D0114A1268BA
:101270006168914210D90F4A11686068091A8B425F
:101280000CD91268121A9B1A2B6020460A4B9847F9
:10129000002404E0002402E0012400E00124074BC4
:1012A0009847204638BD00BFB9020800C9020800AF
:1012B000A4AA0720A8AA072015120800E90208001E
:1012C0000122014B1A607047C8AA0720014B186819
:1012D000704700BF8CAA0720054B1B6833B1054B34
:1012E0001B68002B0CBF01200220704700207047B4
:1012F000F0A9072088AA0720002831D038B5C36A92
:1013000018490968C96A8B4229D216490968C96A0D
:10131000C1F10501816103EB8303134901EB8303F1
:101320004169994217D10546041D20460F4B984745
:101330000C4B1B68D86AE8620D4B1B68984284BF4F
:101340000B4B186000EB80002146074B03EB80003D
:10135000084B984738BD034B1B68DB6AC36238BD36
:10136000704700BF8CAA072024AA0720310208007A
:1013700020AA0720D9010800E8B138B5C16A826CFB
:10138000914217D00446051D28460B4B9847A06C88
:10139000E062C0F10503A361084B1B68984284BF5B
:1013A000064B186000EB80002946054B03EB8000DC
:1013B000044B984738BD70473102080020AA072027
:1013C00024AA0720D901080008B5416000619142B4
:1013D0000AD8D21A83699A4211D2011D0A4B1868A1
:1013E0000A4B9847002008BD9A4201D2994208D280
:1013F000011D074B1868054B9847002008BD0120C8
:1014000008BD012008BD00BF08AB0720F50108009A
:10141000D4AA072070B50D4B98470D4B1B688BB9AC
:101420000C4D28460C4EB0470C4C2046B0470C4B98
:101430001D600C4B1C6000220C2105200A4B9847B4
:10144000034B1860094B984770BD00BFC9020800E4
:1014500004AB0720D8AA0720B9010800ECAA07208E
:10146000D4AA072008AB0720B5060800E902080047
:1014700010B584B00B4B98470B4B1B6863B100232E
:10148000039302930193042200924FF4827207495E
:101490000748084CA04718B9074B984700BFFDE71D
:1014A00004B010BD1514080004AB072080510800DB
:1014B000C5150800BD0A0800B902080030B585B09E
:1014C0000F4C2568CDB11C460191029203906CB976
:1014D0000C4B984701284FF000030CBF089A1A469E
:1014E00001A907480068084CA04707E000232246EE
:1014F00001A92846054CA04700E0002005B030BDFA
:1015000004AB0720D91208000D0708002D080800B9
:101510002DE9F04782B08146224B98478046224B06
:101520001B68984234D224E0DA68D2F800A0DB6865
:10153000DC68251D2846B847636A20469847E3695A
:10154000012B18D1A36953449A4506D263602461E4
:1015500029463068154B98470DE0002100910B4655
:1015600052462046124CA04728B9124B984700BF5C
:10157000FDE7114E114F33681A68002AD4D1104A82
:1015800010680D49086013600123C9F8003002E0BB
:101590000023C9F80030044BC3F80080404602B075
:1015A000BDE8F087390D080000AB0720F501080001
:1015B000BD140800B9020800D4AA072031020800AF
:1015C00008AB07202DE9F04387B04D4DDFF860816F
:1015D0004C4B1B681A68002A00F08880DB681E6884
:1015E000494B984703A8494B98470746039B002B54
:1015F00030D1864224D8464B9847424B1B68DB6863
:10160000DC68201DC047E369012B14D1A169334672
:101610003A46314420463F4FB84701280BD10021BC
:1016200000910B46324620463B4EB04718B93B4B23
:10163000984700BFFDE7636A204698470CE0002604
:10164000F11B2868364B9847314B984720B9354BEA
:10165000984701E02E4B984702A82C4B9847074625
:10166000314EDFF8B09039E0059C1CB163690BB1D5
:10167000201DC047039B022B20D0032B2BD0002B17
:101680002CD10499A0690B463A4601442046C8472C
:10169000012823D1636A20469847E369012B1DD1B5
:1016A000A269002100910B460498024420461A4C7E
:1016B000A04798B9194B984700BFFDE70499A1616D
:1016C00019B9164B984700BFFDE73B463A463944E7
:1016D0002046C84702E02046144B984700231A468C
:1016E00003A92868B0470028BED171E7064B984788
:1016F00003A8064B98470746039B002B9FD0A9E7FA
:1017000004AB0720D4AA0720290D080011150800F2
:10171000790E0800C9130800BD140800B9020800BA
:10172000190A0800A9020800BD080800E50408001D
:10173000310208000138022815D82DE9F0410E4683
:1017400014469AB10D46DFF838800C4FD8F80000E7
:1017500015F8011B3B68984700280ADBA81B013CD1
:10176000F4D1BDE8F0814FF0FF3070470020BDE8B4
:10177000F0814FF0FF30BDE8F08100BFB8AB07202B
:10178000BCAB072010B4AC2303600B684A68B3FB02
:10179000F2F31B095C1E4FF6FE7294420AD80362F4
:1017A0008B68436040F20223C0F82031502303606D
:1017B000002000E0012010BC704700BF436913F017
:1017C000020F1ABFC161002001207047436913F066
:1017D000010F1DBF83690B7000200120704700BFFF
:1017E00010B50E480E4B98473E2100200D4B9847F0
:1017F0000D4CA0470028FCD00C4B98470C4A0D4BD1
:101800009A620D4CA0470028FCD010200B4B984743
:101810000B4B98470148024B984710BD00BD01058E
:10182000A5000720E51B0800391C0800491C08001A
:10183000013F0D2000060E40591C08007D1B0800CA
:101840006D1D080010B54FF40042164B5A600B2076
:10185000154CA0470C20A0470D20A0470E20A04704
:101860004FF060513B20114CA0474FF06051552084
:10187000A0474FF060515620A0470D496820A0476F
:101880000C495C20A0470C4A4FF440710B480C4BAC
:1018900098474FF000612B20A0474FF000612A20AD
:1018A000A04710BD501A0E40691C080069190800B5
:1018B000790000280100002801000008000E0E40F9
:1018C0003D1A08004264B1F1805F16D004D8C1B15E
:1018D000B1F1006F0AD013E0B1F1405F11D0B1F166
:1018E000605F0ED0B1F1205F0AD17047016F036FC6
:1018F0000B4023EA0203036702E0036F134303670D
:1019000042607047416412F0010F14BF41660166E6
:1019100012F00A0F14BF0162416212F0020F02D0EE
:10192000C0F8801004E012F0080F18BFC0F884104F
:1019300041610160704700BF10B44164019C0CB16B
:10194000416600E001660BB1016500E041650AB146
:10195000016300E041630161016010BC704700BF9A
:10196000C06C7047806C704770B582B00D464309FB
:1019700003F5001303F207735C0201F0F043B3F1C7
:10198000205F30D006D8B3F1006F0AD0B3F1805F8A
:1019900018D049E0B3F1405F30D0B3F1605F2DD093
:1019A00042E000F01F000126864032464FF0006101
:1019B00020461F4B984715F0010F14BF6666266638
:1019C000012032E000F01F000126864032464FF031
:1019D00080512046164B984715F0010F14BF6666DC
:1019E0002666012021E000F01F0101262A4606FAA2
:1019F00001F120460F4B9847304616E005F0605243
:101A000000F01F01012605EA06030093C5F38003D9
:101A1000B2F1605F14BF0022012206FA01F12046F4
:101A2000054CA047304600E0002002B070BD00BF6A
:101A3000C5180800051908003919080070B582B0EA
:101A400005460E46144602F0F043B3F1205F26D05F
:101A500006D8B3F1006F0AD0B3F1805F13D034E041
:101A6000B3F1405F1FD0B3F1605F1CD02DE00A4698
:101A70004FF00061164B984714F0010F14BF6E66CB
:101A80002E66012022E00A464FF08051104B984705
:101A900014F0010F14BF6E662E66012016E00D4B88
:101AA0009847012012E004F0605204F00103009313
:101AB000C4F38003B2F1605F14BF002201223146FB
:101AC0002846054CA047012000E0002002B070BD70
:101AD000C518080005190800391908002DE9F0415A
:101AE000044688460E4B9847054620460D4B9847BE
:101AF000054013D00C4C04F160062368434508D11F
:101B00006168294205D0E36840469847636825EA42
:101B10000305B44202D01034002DEED1BDE8F081AF
:101B200061190800651908000CAB072008B50B21E6
:101B30000148024B984708BD000E0E40DD1A080010
:101B400008B50C210148024B984708BD00100E4013
:101B5000DD1A080008B50D210148024B984708BD61
:101B600000120E40DD1A080008B50E210148024B94
:101B7000984708BD00140E40DD1A0800184A136B80
:101B800023F0700318431063936E13F0080F03D013
:101B900009E0013B03D11EE04FF4006310498A6E57
:101BA00012F0080FF5D00E4A136B23F0030343F035
:101BB00002031363906E10F0080004D000207047F9
:101BC000013B03D109E04FF4006305498A6E12F02E
:101BD000080FF5D07047012070470120704700BF03
:101BE00000060E4038B111490B6A114A1A40114BD8
:101BF00013430B6270470D48026A090289B222F44E
:101C00005C1323F0030343F45C1343F001030B4321
:101C100003620246936E13F0010FFBD0034A136A6E
:101C200043F09B7343F480331362704700060E4009
:101C3000FCFFC8FE02003701024B986E00F48030B2
:101C4000704700BF00060E404FF00052014B9A62F1
:101C5000704700BF00060E40024B986E00F0020075
:101C6000704700BF00060E402C281ED81F280CD835
:101C7000114B9A6901238340934318D0012303FA3F
:101C800000F00D4B18610020704720380A4BD3F844
:101C900008210123834093430BD0012303FA00F072
:101CA000054BC3F800010020704701207047002059
:101CB00070470020704700BF00060E40FEE700BFDF
:101CC00008B51E4B1E4A9A4203D01E4B1B4A9A422D
:101CD00004D31D4B1D4A9A420FD31AE017491C4BDF
:101CE0005B1A23F003030433154A134452F8040B20
:101CF00041F8040B9A42F9D1EBE7164B164AD21A77
:101D000022F003021A44043B002143F8041B9342CF
:101D1000FBD1124B23F0604222F07F0210498A600F
:101D200003F16043B3F5801F03D28B6843F0005387
:101D30008B600C4B98470C4B9847FEE70000072040
:101D40006C520800A4090720C8AB0720A809072087
:101D5000A3090720AC090720CBAB0720000008002F
:101D600000ED00E0C9210800B52008003E4B1B6BC8
:101D700003F00303032B5FD8DFE803F0020E2B2BE5
:101D80003A4B5B6913F0800F14BF4FF400424FF4DD
:101D9000FA42374B1A604FE0334B1B6A13F0807FD7
:101DA00003D0344A324B1A6046E0334A304B1A6053
:101DB0002D4B1B6A03F07003102B02D0202B04D094
:101DC0003AE02E4A2A4B1A6036E02A4A284B1A601B
:101DD00032E0254B1B6A13F0807F03D0254A244B49
:101DE0001A6012E0244A224B1A601F4B1B6A03F050
:101DF0007003102B02D0202B04D006E01F4A1C4B8E
:101E00001A6002E01B4A1A4B1A60174B1B6B03F057
:101E10000303022B0DD1144A936A926A1448C3F348
:101E20000A41036801FB0333D2B2B3FBF2F3036050
:101E300002E0134A0E4B1A600B4B1B6B03F070034E
:101E4000702B07D10A4A13680E49A1FB03135B08E4
:101E500013607047044B1B6B0549C3F302120B68F8
:101E6000D3400B60704700BF00060E40101A0E40B2
:101E700038010720001BB70000093D0000127A005E
:101E8000001C4E0EABAAAAAA094B1B6813B9094A3B
:101E9000074B1A60064B1B681A180749914204DB6E
:101EA0001046034A1060184670474FF0FF307047E5
:101EB0007CAB0720C8CB0720FC7F08204FF0FF3009
:101EC000704700BF4FF400534B600020704700BFC5
:101ED0000120704700207047F0B583B004460D46DE
:101EE000002301931F4B984207D11F461E4E2946DF
:101EF0003846B0470028FAD119E01C4B984209D166
:101F00001F461B4E01A93846B0470028FAD1019B55
:101F10002B7019E0174B984209D11E46144C01A9A9
:101F20003046A0470028FAD1019B2B7018E0124BD5
:101F30009C4209D11E460E4C01A93046A0470028FC
:101F4000FAD1019B2B700BE00C4B9C4208D11E4632
:101F5000074C01A93046A0470028FAD1019B2B70FD
:101F600003B0F0BD00080E40CD1708000080094006
:101F7000A101080000C0094000000A4000400A40DA
:101F800070B50C461E4B984208D11E461D4D214689
:101F90003046A8470028FAD1012070BD1A4B98425C
:101FA00008D11E46194D21463046A8470028FAD1CF
:101FB000012070BD164B984208D11E46134D214694
:101FC0003046A8470028FAD1012070BD114B984235
:101FD00008D11E460D4D21463046A8470028FAD1AB
:101FE000012070BD0C4B984208D11E46074D21467A
:101FF0003046A8470028FAD1012070BD002070BDEE
:1020000000080E40BD170800008009408D0108003F
:1020100000C0094000000A4000400A40F8B50B4DDE
:1020200000240B4F2346224621462868B847094919
:1020300009480A4B98472346224621462868084EFD
:10204000B0474FF4FA70074B9847EBE7C0AB072057
:10205000BD080800885108009C510800192208009A
:102060000D0708007D0F0800F8B50B4D00240B4F3D
:102070002346224621462868B847094909480A4BA1
:1020800098472346224621462868084EB0474FF419
:10209000FA70074B9847EBE7C0AB0720BD08080074
:1020A000A05108009C510800192208000D070800E3
:1020B0007D0F080000B589B02A4B98472A4B9847F6
:1020C00008202A4DA8472A4C2A4B1C602A4A2B4B31
:1020D0001A602B4A2B4B1A602B4B05934FF4E133BC
:1020E00006934FF4006307930820A84705A92046EC
:1020F000264B9847264D2B6800219868254CA04711
:102100002B6800215868A047032200210120224BA0
:102110009847224B186000B300231A461946204CFA
:10212000A0471E4B1B68C3B1002403940294019482
:10213000012300932346F0221A491B481B4DA84750
:10214000039402940194022300932346F022184939
:102150001848A847184B984702E01848184B98476A
:10216000FEE700BFE117080045180800691C0800D9
:1021700000080E40BCAB0720811F0800B8AB072049
:10218000D91E0800B4AB072000BD01058517080063
:1021900068050720C9230800B5060800C0AB072062
:1021A0000D070800B45108001D200800BD0A0800F2
:1021B000BC51080069200800C10C0800C451080087
:1021C00019220800FEE700BF70B50F4E0F4D761BB9
:1021D000B61018BF002405D0013455F8043B9847C9
:1021E000A642F9D10A4E0B4D03F02AF8761BB61021
:1021F00018BF002406D0013455F8043B9847A64286
:10220000F9D170BD70BD00BF4C5208004C5208009F
:10221000545208004C5208000FB410B5074B82B05E
:1022200004AC54F8042B186823468168019400F02C
:1022300019FA02B0BDE8104004B0704768050720E5
:10224000844641EA000313F0030349D1403A23D303
:102250000B6803604B6843608B688360CB68C36026
:102260000B6903614B6943618B698361CB69C3610E
:102270000B6A03624B6A43628B6A8362CB6AC362F6
:102280000B6B03634B6B43638B6B8363CB6BC363DE
:1022900040304031403ADBD230320BD30B68036020
:1022A0004B6843608B688360CB68C360103010312B
:1022B000103AF3D20C3205D351F8043B40F8043BFA
:1022C000043AF9D2043208D0D2071CBF11F8013BFE
:1022D00000F8013B01D30B8803806046704700BFC4
:1022E000082A13D38B07B1D010F00303AED0C3F18B
:1022F0000403D21ADB071CBF11F8013B00F8013BB5
:10230000A4D331F8023B20F8023B9FE7043AD9D32B
:10231000013A11F8013B00F8013BF9D20B78037048
:102320004B7843708B7883706046704770B4840735
:1023300046D0541E002A41D0CDB2034602E0621EB0
:10234000E4B3144603F8015B9A07F8D1032C2ED9A5
:10235000CDB245EA05250F2C45EA054519D9264693
:1023600003F11002103E0F2E42F8105C42F80C5C94
:1023700042F8085C42F8045C02F11002F2D8A4F1C1
:10238000100222F00F0204F00F041032032C134449
:102390000DD91E462246043A032A46F8045BFAD8B1
:1023A000221F22F003020432134404F003042CB170
:1023B000C9B21C4403F8011BA342FBD170BC704797
:1023C00014460346C2E700BF00290CBF02220022C8
:1023D0004FF4806300F000B82DE9F043514D83B015
:1023E0002D6804460F4690461E4615B1AB6B002B78
:1023F00079D0B8F1020F04D0B8F1010F7FD8002EC8
:102400007DDB2146284601F06FF9216B41B104F1D3
:102410004003994202D0284601F0C2FA0023236308
:10242000B4F90C300022A26162601A0654D423F47D
:102430004A6323F00303B8F1020FA38139D001AB43
:102440006A462146284601F049FDA3891843A08128
:1024500026B327B3AB6B002B4DD0009BB4F90C0017
:102460009E421CBF40F40060A081B8F1010F08BF7C
:1024700040F0010083B208BFA08103F0080080B2E1
:1024800027602761666118B313F001002FD0002088
:102490007642A661A06003B0BDE8F083009E30469E
:1024A00001F090FD074668B3A38943F08003A38140
:1024B000D0E7002004F1430243F00203002501218C
:1024C000A381A56022602261616103B0BDE8F08351
:1024D000A06003B0BDE8F0832169284601F060FAEE
:1024E000B4F90C30A3E7284601F092F981E7A66021
:1024F00003B0BDE8F083284601F08AF9ADE74FF05C
:10250000FF30E2E7DDF80090B14506D0484601F023
:1025100059FD074608B14E46C6E7B4F90C304FF0F6
:10252000FF30C7E76805072020F0030110F0030023
:10253000C0F1000051F8043B00F1040C4FEACC0C50
:102540006FF000021CBF22FA0CF213434FF0010C93
:102550004CEA0C2C4CEA0C4CA3EB0C0222EA0302D2
:1025600012EACC1204BF51F8043B0430F4D0C2F19B
:10257000000102EA0102B2FA82F2C2F11F0200EB8C
:10258000D200704740EA01039B0770B42BD1032AA5
:1025900029D90C460346214654F8046BA6F10135AF
:1025A00025EA060515F0803F06D1043A032A43F8D0
:1025B000046B2146EFD8A2B10C78013A1C700131AE
:1025C00001333CB16AB111F8014B013A03F8014BF8
:1025D000002CF7D12AB11A44002103F8011B9A42BA
:1025E000FBD170BC70470346E5E700BF4B6E2DE999
:1025F000F0479C0492462CD5936812683BB30F4673
:10260000804602F1080919E96000B60817D0043DB8
:10261000002401E0A64210D03A4655F8041F404677
:1026200001F05EF9431C04F10104F3D10023CAF860
:102630000830CAF80430BDE8F087DAF80830A3EBB8
:102640008603CAF8083009F10809002BDBD1002005
:10265000ECE701F08DFA0023CAF80830CAF804301C
:10266000BDE8F0872DE9F04FABB01C4600919046D5
:102670000493059018B1836B002B00F0DE80009866
:10268000B0F90C108AB2950407D4436E41F400529D
:1026900023F400538281436692B2110740F1B18066
:1026A000009B1B69002B00F0AC8002F01A020A2A82
:1026B00000F0B5800DF1680AD346002302930F9312
:1026C0000E93CDF834A098F800304446FBB1252B8A
:1026D00002D11CE0252B03D014F8013F002BF9D1C7
:1026E000C8EB04059DB10E9B0F9A01332A44072BBA
:1026F000CBF80080CBF804500F920E937BDD002ABC
:1027000040F01F85D346029B0E922B440293237800
:10271000002B00F03B844FF0000300218DF82F3098
:1027200004F10108637808460E460C464FF0FF326C
:10273000019208F10108A3F12002582A00F28B83CC
:10274000DFE812F03D038903890345038903890308
:1027500089038903890389037E006B02890386004C
:1027600070028903CC015D025D025D025D025D02C3
:102770005D025D025D025D028903890389038903AD
:10278000890389038903890389038903D1018903A3
:1027900089038903890389038903890389038903D9
:1027A00089031A0289038903890389038903E502DE
:1027B000890389030803890389038903890389033A
:1027C000890389038903890389032B03820389030E
:1027D000890389035E0382038903890363038903F1
:1027E00070038D028B00E002890393028903B20219
:1027F000890389034A030BF1080B029B2B440293C4
:1028000085E70099059800F057FE002840F04585BF
:10281000009B9A8902F01A020A2A7FF44BAF0099B2
:10282000B1F90E30002BFFF645AF2346424605981E
:1028300000F00CFE2BB0BDE8F08F00F0E9FF1EE7C2
:10284000049A134614680433002C049302DA644299
:1028500046F0040698F800306BE74FF00003049848
:102860008DF82F30034630218DF8301001997822F1
:10287000002906948DF83120046803F104034FF019
:10288000000546F00202C0F20C8526F0800654EAEC
:10289000050246F00206049340F0B584B348019B5C
:1028A000002B40F06284994657460023019303931E
:1028B000019B039A9342B8BF13461D46B9F1000F1E
:1028C00000D0013516F00203079318BF023516F049
:1028D0008403089340F0E882069B5C1B002C40F3C5
:1028E000E382102C40F33C85DFF88492DDF838E079
:1028F000DC460F9AC3461023A84670464D46DDF8C5
:10290000149007E000F1020E08460CF1080C103C90
:10291000102C13DD411C103207290F92CCF8005007
:10292000CCF804300E91EDDD002A40F0A582103C79
:10293000102C10464FF0010ED446EBDCA946704631
:102940004546D846E346224407280F92CBF800902C
:10295000CBF804400E9000F36D839DF82F300BF1FF
:10296000080B00F1010E002B40F0A782079B002B03
:1029700000F0BA8202320CA90223BEF1070F0F92B7
:10298000CDF838E08BE80A0040F37083002A40F06D
:102990000084089B4FF0010E802B1046D34640F078
:1029A000A782069B5C1B002C40F3A282102C40F3F4
:1029B000F884DFF8C091DE461023C346A8464D4692
:1029C000DDF8149007E000F1020C08460EF1080E45
:1029D000103C102C13DD411C103207290F92CEF849
:1029E0000050CEF804300E91EDDD002A40F00C834B
:1029F000103C102C4FF0010C1046D646EBDCA946DB
:102A00004546D846F3462244BCF1070F0F92CBF857
:102A10000090CBF80440CDF838C000F3C883019B88
:102A200003990BF1080B5C1A002C0CF1010E6046A7
:102A300000F364820399BEF1070F0A440F92CBF8AA
:102A40000070CBF80410CDF838E040F3C582002ABE
:102A500040F0328370070E9238D5069B5C1B002C29
:102A600034DDD346102C40F39684DFF804910E99A0
:102A70004F461026DDF8149006E0881C19460BF12D
:102A8000080B103C102C13DD4B1C1032072B0F923F
:102A9000CBF80070CBF804600E93EEDD002A40F016
:102AA0008582103C102C4FF001001146D346EBDC20
:102AB000B946224407280F92CBF80090CBF8044087
:102AC0000E9040F39282002A40F00C84029B069AFA
:102AD000AA42ACBF9B185B19029390E246F08006B5
:102AE00098F8003025E60694002940F0858446F0E9
:102AF0001006B30640F104830499073121F0070161
:102B0000D1E9002314461D4608310491002A73F1CF
:102B10000003C0F27C83019B9DF82F90002BC0F234
:102B20000B8354EA050326F0800600F0DE80002DBA
:102B300008BF0A2CC0F0DE805746204629460A22EC
:102B4000002302F07DF9303207F8012D2046294696
:102B500000230A2202F074F904460D4654EA0503E4
:102B6000EBD1C7EB0A030393A2E600BF145208009F
:102B700030520800F05108000694002940F03884D3
:102B800046F0100616F0200300F0A1824FF000027C
:102B9000049B8DF82F20073323F0070303F108026D
:102BA000D3E90045019B0492002B0ADB54EA05039C
:102BB00026F0800605D1019B002B00F0278400241D
:102BC00000254FF000095746E20842EA4572E9083D
:102BD00004F007030D461446303354EA050207F8A3
:102BE000013DF1D1F407BCD5302BBAD030227B1E89
:102BF00007F8012CC3EB0A0203921F4658E6A3F123
:102C00003002002418F8013B04EB840402EB440476
:102C1000A3F13002092AF5D98DE598F80030012199
:102C20002B2086E598F8003008F101052A2B00F0EA
:102C3000CC83A3F13002092AA84698BF002500F2F0
:102C4000B58318F8013B05EB850502EB4505A3F1BB
:102C50003002092AF5D945EAE57201926BE506943E
:102C600000298FD08DF82F008CE74FF00003049AD5
:102C7000069417688DF82F30141D019B002F00F06B
:102C80007F83002BC0F253831A460021384601F09F
:102C90004DFC002800F08E83C31B03930023049493
:102CA0009DF82F90019303E60694002940F09D8340
:102CB00016F0200934D116F0100303D116F04009A4
:102CC00040F01F83049A002513461468019A8DF87A
:102CD0002F90002A03F10403C0F2278354EA05026F
:102CE00026F0800604937FF422AF019B002B3FF473
:102CF000DBAD00242AAF303407F8414DC7EB0A039F
:102D00000393D5E546F0200698F8003011E50694C7
:102D1000002940F0758346F0100616F02009CAD04D
:102D20004FF00002049B8DF82F20073323F0070398
:102D300003F10802D3E90045019B0492002BC0F285
:102D4000F98154EA050326F080064FF000097FF46C
:102D5000EEAECAE70694002940F05583B206B248A9
:102D600041D5049A073222F0070202F108010491CA
:102D7000D2E9004516F0010900F07E8154EA05020F
:102D800040F02B824FF000038DF82F30019B002B79
:102D9000C0F2F38226F0800681E5049A4FF000012C
:102DA000136801258DF840301346043306948DF8DE
:102DB0002F100493039510AF0023019382E598F838
:102DC000003000287FF4B5AC01212020B1E446F0AA
:102DD000010698F80030ACE40694002940F02A83FC
:102DE000B2069248BDD40499F7060A4600F19D81C7
:102DF000750640F19A8104320C8804920025B9E7E7
:102E000046F0400698F8003093E498F800306C2BB8
:102E100003BF98F8013046F0200608F1010846F09B
:102E2000100686E4002940F00283B40640F12082B7
:102E3000049A134604330493029B1168DD171A4663
:102E40002B46C1E900233EE4069400293FF451AE2D
:102E50008DF82F004DE60694002940F0E582002B06
:102E600000F094808DF840304FF0000301258DF87C
:102E70002F30039510AF9FE70DAA0099484609939C
:102E8000FFF7B4FB002840F088800E98D4460F9AD4
:102E900000F1010E099B3AE50DAA00990598FFF78C
:102EA000A5FB002879D1D3460E989DF82F300F9AB4
:102EB00000F1010E002B3FF459AD01320DF12F014D
:102EC0000123BEF1070F0F92CDF838E08BE80A001E
:102ED00040F3C080002A40F04D810799002940F05E
:102EE000BF809E461046D346089B802B3FF459ADC9
:102EF000019B03995C1A002C7FF79CAD102CDFF826
:102F0000309125DDDC461023C346A8464D46DDF84A
:102F1000149007E000F1020E08460CF1080C103C7A
:102F2000102C11DD411C103207290F92CCF80050F3
:102F3000CCF804300E91EDDDD2B9103C102C4FF0DE
:102F4000010E1046D446EDDCA9464546D846E34678
:102F50002244BEF1070F0F92CBF80090CBF804404B
:102F6000CDF838E02EDC0BF1080B0EF1010E61E517
:102F70000DAA009948460193FFF738FB68B90E98EF
:102F8000D4460F9A00F1010E019BC8E70F9B23B1B5
:102F900005980DAA0099FFF729FB009B9B895A060B
:102FA00000F17B8102982BB0BDE8F08F0DAA00994B
:102FB0004846FFF71BFB0028EFD10E99D3460F9A26
:102FC000481C5EE5002A40F0FA80D346039A0123AC
:102FD0001B920F921A970E930BF1080B710704D5F1
:102FE000069B5C1B002C3FF73DAD029B0699A94256
:102FF000ACBF5B185B190293002A40F0AD80002340
:103000000E93D346FFF75FBB0DAA0099484607937E
:10301000FFF7ECFA0028C0D10E98D6460F9A00F1BF
:10302000010C079BD4E400BF0052080014520800B2
:10303000F0510800002A7FF42FAF9DF82F30002BAD
:1030400000F0F38001231A469E46D3460DF12F016E
:103050001B931A9170460BF1080B0EF1010E85E4DB
:103060009E46D3460CA902221A911B9270460BF180
:10307000080B0EF1010E37E7019B8DF82F90002B06
:10308000C0F21B8154EA050326F080063FF407AC2A
:103090005746230943EA0573290904F00F020D4638
:1030A0001C46835C07F8013D54EA0503F1D1C7EBE8
:1030B0000A030393FFF7FCBB0DAA00990598FFF7DD
:1030C00095FA00287FF469AFD3460F9A86E716F089
:1030D000100200F0B58004998DF82F300A460C6874
:1030E0000199043200294FF00005C0F2528154EAE0
:1030F000050126F0800604923FF45DAD994662E535
:10310000049AF706134609D4750607D5B2F90040AC
:103110000433E517049322462B46F7E41C68043376
:10312000E517049322462B46F0E414680432049217
:1031300000251FE64FF0000954EA05037FF4F7ACC1
:10314000D8E50DAA00990598FFF750FA00287FF4FA
:1031500024AFD346FFF751BB0DAA00990598FFF79E
:1031600045FA00283FF44BAF17E7002400254FF045
:1031700000098DE70DAA00990598FFF737FA002896
:103180007FF40BAF0E98D3460F9A00F1010EFFF7B4
:10319000EDBB0DAA00990598FFF728FA00287FF4E7
:1031A000FCAE0E98D3460F9A00F1010E9CE6002A61
:1031B00040F0C8804FF0010E1046D34698E60DAAA5
:1031C00000990598FFF712FA00287FF4E6AE0E9BEF
:1031D000D3460F9A03F1010E2CE48DF831304FF0F5
:1031E000000330228DF83020019A8DF82F30002A0C
:1031F00046F00203C0F2BB8026F0800646F00206CD
:103200004FF0000944E74FF000098C4840E7019B6C
:1032100064424FF02D0965EB4505002B8DF82F908A
:10322000FFF685AC26F0800681E4079B002B63D077
:103230000CAB02221A931B924FF0010ED34615E7F6
:1032400016F040093BD004998DF82F200B460C88CE
:103250000199043300294FF00005C0F28C8054EA34
:10326000050126F0800604933FF4A5AC9146AAE43C
:10327000F0060AD4710608D5049A13680432049241
:10328000BDF808201A80FFF71EBA049A13680432AA
:103290000492029A1A60FFF716BA4FF0FF30FFF758
:1032A000C9BA1646654854EA050204934FF000096E
:1032B0007FF4EEAE00240025EAE6049BF3E7049ACF
:1032C0008DF82F9013461468019A0433002A4FF0AA
:1032D000000550DB54EA050226F0800604937FF4D3
:1032E00072AC68E40DAA00990598FFF77FF90028F1
:1032F0007FF453AE0F9A78E610464FF0010ED34696
:10330000F6E504998DF82F300A460C8801990432AD
:1033100000294FF0000555DB54EA050126F0800630
:10332000049299467FF403ACDFE4049304E7384643
:103330000494FFF7F9F8002303909DF82F90019370
:10334000FFF7B6BA0DAA00990598FFF74FF90028C4
:103350007FF423AE0E98D3460F9A00F1010EC7E515
:103360000E980F9A0130DFF8DC90FFF7ECBA1E469A
:103370004FF000098CE6049323E44FF0000999E72D
:10338000062B28BF06230393049423EAE3752C4FEE
:1033900012E5049215E40E98DFF8A8900130FFF7CB
:1033A00088BBF446DFF8A090FFF72DBB0022019206
:1033B000FFF7C1B9019B0494039301909DF82F90EE
:1033C000FFF776BA04929946B6E6049A1368043277
:1033D000002B0193049298F80130A846BFF6A9A9E2
:1033E0004FF0FF320192FFF7A4B98DF82F005FE490
:1033F0008DF82F00FFF7C4BB8DF82F00FFF777BBC8
:103400008DF82F0087E48DF82F00A7E49946F30785
:1034100005D52AAF302307F8413DFFF7A2BB019B3A
:1034200057460393FFF744BA8DF82F0017E58DF840
:103430002F00FAE48DF82F00D2E400BF14520800E8
:103440002852080030520800F0510800F0B50C4630
:103450008989ADF26C4D656E21F00201666AADF8A6
:103460000C10E169E78919950025079109960695E1
:103470001AAE4FF48065694600960496029505954C
:10348000ADF80E700646FFF7EDF8051E07DB304677
:10349000694600F029F9002818BF4FF0FF35BDF844
:1034A0000C305B0603D5A38943F04003A381284673
:1034B0000DF26C4DF0BD00BF38B5304B05461868B5
:1034C0000C4610B1836B002B38D0B4F90C2093B2AA
:1034D00018070CD52069A8B113F001021ED063694A
:1034E00000225B42A361A260F0B1002038BDD90682
:1034F0003BD5580725D4206942F00803A3819BB22D
:103500000028E9D103F42072B2F5007FE4D0284608
:10351000214600F013FDA3892069DDE7990758BF14
:103520006269A2600028E0D1B4F90C301A06DDD53A
:1035300043F04003A3814FF0FF3038BD00F068F93D
:10354000C3E7216B51B104F14003994204D02846EE
:1035500000F026FAB4F90C2000232363206900232D
:1035600022F0240284E80900C6E742F04002092361
:103570002B604FF0FF30A28138BD00BF68050720E7
:10358000024B13B1024800F005B87047000000007C
:1035900025380800002301461A46184601F058BB9A
:1035A000B1F90C302DE9F0419AB20D461107804671
:1035B0003CD46A6843F40063002AAB8173DDAC6AD3
:1035C000002C4BD09BB203F48052002192B2D8F869
:1035D0000060C8F80010002A69D02A6D5F0705D581
:1035E00069682B6B521A0BB1EB6BD21A0023E96995
:1035F0004046A047441C3CD0B5F90C30296923F45F
:1036000000630022AB81DB0485E8060049D4296B06
:10361000C8F8006011B305F14003994202D040465A
:1036200000F0BEF900202863BDE8F0812E69AEB13C
:1036300090072C680CBF6B6900232E60A41BAB6045
:103640000AE0234632466F6AE9694046B8470028D7
:10365000A4EB0004064404DD002CF2DC0020BDE8ED
:10366000F081AB894FF0FF3043F04003AB81BDE800
:10367000F081D8F800201D2AF3D81A4BD34003F06C
:10368000010383F00104002BEBD0B5F90C3029695C
:1036900023F400632960D9046C60AB81B7D5002A9C
:1036A000B5D12865B3E7EA6B002A88DCD6E70123A9
:1036B000E9694046A047431C024602D0AB89AC6A88
:1036C0008CE7D8F80030002BF8D01D2B01D0162B3A
:1036D00002D1C8F80060C1E7AB8943F04003AB8179
:1036E000BDE8F0810100402010B5044682B008B169
:1036F000836B53B1B1F90C0008B902B010BD20467C
:1037000002B0BDE81040FFF74BBF019100F080F818
:103710000199EFE7014900F0AFBB00BF194D080068
:103720002DE9F04F074635487D68002407F53B72C8
:1037300004230321F863C7F8E412C7F8E822C7F8A6
:10374000E04283B02C606C60AC606C66EC812C61F4
:103750006C61AC61AB81214605F15C000822FEF78B
:10376000E5FDDFF89CB0BE68DFF898A0DFF8989020
:10377000DFF8988001230922C5F820B0C5F824A0FD
:10378000C5F82890C5F82C80ED612146F381B281FF
:1037900006F15C0034607460B46074663461746116
:1037A000B46108220193FEF7C1FDFD6812200222D8
:1037B000F661C6F820B0C6F824A0C6F82890C6F86E
:1037C0002C802146A881EA812C606C60AC606C661C
:1037D0002C616C61AC6105F15C000822FEF7A6FD6E
:1037E000019BED61C5F820B0C5F824A0C5F828906C
:1037F000C5F82C80BB6303B0BDE8F08F1537080017
:10380000814A0800A54A0800E14A0800014B080067
:10381000836B03B17047FFF783BF00BF704700BFE2
:10382000704700BF38B5074D074C2C1BA41005D0BE
:10383000013C55F8043D9847002CF9D1BDE83840CB
:1038400001F008BD64520800605208002DE9F04103
:1038500082B006460F46144600F03AFB012832D0EB
:1038600004F15C033A4601A9304601F0A3F9B0F136
:10387000FF3F804620D070B39DF80410002508E07B
:1038800023685A1C226019700135454523D201ABCB
:10389000595DA368013B002BA360F1DAA269934252
:1038A00001DB0A29ECD12246304601F02DF9431CF8
:1038B000EAD102B0BDE8F081A38943F04003A381BF
:1038C00002B0BDE8F0817B1EFE2BC9D8F9B280465C
:1038D0008DF80410D2E7384602B0BDE8F08100BF91
:1038E000B2F90C3013F4005F0AD110B4546E43F4F3
:1038F000005344F400545466938110BCFFF7A6BFF4
:10390000FFF7A4BFF8B50C46224F064600F0B8FEFC
:10391000BB685D6825F00305291B01F6EF7121F4F2
:103920007F6121F00F01A1F58054B4F5805F07DBC2
:103930000021304601F092F8BB682B44984204D035
:10394000304600F09FFE0020F8BD6142304601F095
:1039500085F801300DD0104BBA6819682D1B45F061
:1039600001053046091B5560196000F08BFE0120EF
:10397000F8BD0021304601F071F8BA68831A0F2BA8
:10398000DEDD064C0449246843F00103001B53604C
:103990000860D5E7900507208CAB07209C0907201D
:1039A000002945D02DE9F0410D46804600F068FE23
:1039B00055F8047C6A49A5F1080427F00103E218D0
:1039C0008E685068B24220F0030062D0FE0750605B
:1039D0000BD455F8087C01F1080EE41BA5683B44A4
:1039E00075456FD0E768EF60BD6015186D68ED072D
:1039F00042D543F001026260E350B3F5007F18D274
:103A0000DB0848689D100122013351F8337002FA37
:103A100005F501EBC3022843083AE260A76048605D
:103A200041F83340FC604046BDE8F04100F02ABE5A
:103A300070475A0A042A53D89A0902F139077F00BD
:103A400002F1380501EB870051F827200838904231
:103A500043494DD0516821F003018B4202D2926854
:103A60009042F7D1D068E060A2608460D4604046A4
:103A7000BDE8F04100F006BE95683A4F0344BD42F0
:103A80003FD0D06843F00102E86085606260E35097
:103A9000B3E7FF07034407D455F8085C641BE268EA
:103AA000A0682B44C26090602F4A43F00100126866
:103AB000606093428C60B6D32C4B40461968FFF788
:103AC00021FFB0E711184968C90744D4916803443D
:103AD000D26843F00100CA6091606060E350A2E7E1
:103AE000142A17D802F15C077F0002F15B05A9E7F1
:103AF000AA104B68012505FA02F213434B600246F7
:103B0000B1E743F001024C610C61E560A5606260C1
:103B1000E35088E7542A06D81A0B02F16F077F009A
:103B200002F16E058EE7B2F5AA7F06D8DA0B02F134
:103B300078077F0002F1770584E740F25450824213
:103B400006D89A0C02F17D077F0002F17C0579E727
:103B5000FE277E2576E743F001026260E35062E7CC
:103B600090050720980507209809072088AB0720B3
:103B70009368002B00F0AB802DE9F04F8B8985B066
:103B80000C4619070290164628D5226932B303F075
:103B900002081FFA88F0356878B34FF00009C8466C
:103BA000DFF8D0A2B8F1000F00F08B80D04543467B
:103BB0004A4628BF5346E1690298676AB847002819
:103BC00040F3A580B36881441B1AC0EB0808B360BA
:103BD000002BE7D1002005B0BDE8F08F2146029808
:103BE000FFF76AFC002840F03C81A389356803F0A8
:103BF00002081FFA88F00028CFD113F0010940F025
:103C000090804F460196002F56D09A05D4F8088030
:103C10005FD54745C246C0F0BF8013F4906F00F0F7
:103C2000BD8062692068216902EB4208C1EB000A8D
:103C300008EBD8780AF101004FEA6808384440459B
:103C4000424684BF804642465B0540F1F280114601
:103C5000029800F0BFF98346002800F00581524623
:103C60002169FEF7EDFAA38923F4906343F0800302
:103C7000A381CAEB08030BEB0A00C4F81480BA4610
:103C8000B846C4F810B02060A3605246494600F020
:103C900093FCA0682368C8EB0000A060384653443A
:103CA0002360019A814493683F1A1B1A9360002B8A
:103CB00090D0A389002FA8D1D5F800906F6808355F
:103CC000A1E7D5F80090D5F8048008356AE7002010
:103CD000704720682369984203D86269974280F050
:103CE0008380B84528BFB8464946424600F064FC88
:103CF000A3682268C8EB03034244A3602260002B40
:103D000048D121460298FFF7EFFC002842D0B4F9D1
:103D10000C3043F040034FF0FF30A38105B0BDE805
:103D2000F08F8046824681460190B9F1000F29D07C
:103D3000019B002B4BD0C845C34628BFCB4620680B
:103D400023695F469842626903D9A36813449B457F
:103D50005CDC934524DB1346676A5246E1690298AE
:103D6000B847071ED3DDB8EB070827D0B368BA44BD
:103D7000DB1BC7EB0909B360002B3FF42BAFB9F194
:103D8000000FD5D10023D5F800A0D5F804900193F9
:103D90000835CAE7404684E7B846BA46206874E763
:103DA0005A46514600F008FCA2682368CBEB020299
:103DB0005B44B8EB0708A2602360D7D12146029884
:103DC000FFF792FC0028A2D1CDF80480CEE74A4646
:103DD0000A21504600F0AAFB00283DD00130012303
:103DE000CAEB00080193A6E76FF00043BB4228BF6F
:103DF0003B4693FBF2F3E16902FB03F302984A4668
:103E0000666AB04700283FF74CAF80E71A46514634
:103E1000039300F0D1FB2268039B21461A442260E1
:103E20000298FFF761FC039B00287FF470AF1F46E8
:103E300099E7029800F028FC834600287FF419AF28
:103E4000029D21692846FFF7ABFDB4F90C300C2226
:103E500023F080032A605CE7012309F10108019344
:103E600069E74FF0FF30B6E6029A0C231360B4F90D
:103E70000C304EE700FCFF7F2DE9F84310F5387653
:103E80001ED0884607464FF000097568B468013DAA
:103E900010D4A389013D012B08D9B4F90E300133A8
:103EA00004D021463846C04749EA00096B1C04F19A
:103EB0006804EED13668002EE7D14846BDE8F883A5
:103EC000B1464846BDE8F883004870476C050720B6
:103ED000014B1868704700BF8C05072070B50E466F
:103EE000B1F90E1090B0002914461D4614DB01AA4A
:103EF00000F054FF00280FDB029A4FF4806302F4B5
:103F00007042A2F50052B2FA82F24FF400605209F8
:103F10002A60236010B070BDB289002002F08002D8
:103F200092B228601AB14023236010B070BD1046D1
:103F30004FF48063236010B070BD00BF8A890B46C8
:103F4000920706D501F1430201211A601A615961F5
:103F50007047F0B583B001AB6A460C460546FFF7E3
:103F6000BDFF00990646284600F034F8B4F90C303D
:103F7000D0B19DE80600124F43F08003EF63A381A8
:103F80002060206161611AB93343A38103B0F0BDA1
:103F90002846B4F90E1000F015FFB4F90C300028D3
:103FA000F2D043F00103EFE79A05EFD404F14302A6
:103FB00043F002030121A381226022616161E5E7F0
:103FC00015370800024B0146186800F003B800BF1F
:103FD000680507202DE9F04F01F10B05162D83B080
:103FE000064640F2A08035F0070500F1C080A942E6
:103FF00000F2BD8000F044FBB5F5FC7FC0F090827C
:104000006B0A00F0BB80042B00F27781A80900F155
:10401000390E4FEA4E013830BE4F07EB81014C6834
:104020000839A14207D1AEE0002A80F2AE80E468F0
:10403000A14200F0A880636823F003035A1B0F2AF3
:10404000F2DDB4493C6901F1080E744500F0A88125
:10405000636823F003035A1B0F2A00F38E81002AA2
:10406000C1F814E0C1F810E080F29380B3F5007F4E
:1040700080F05C81DB084A684FEAA3094FF0010C2D
:10408000013351F833800CFA09F901EBC30C49EA0A
:104090000202ACF1080CC4F80CC0C4F808804A60F5
:1040A00041F83340C8F80C40831001249C409442EE
:1040B0007CD8144206D120F003006400144200F1C1
:1040C0000400FAD007EBC009CC468046DCF80C109F
:1040D0008C4507D166E1002A80F27481C9688C455D
:1040E00000F060814B6823F003035A1B0F2AF2DDB6
:1040F0000C46CB6854F808CF45F00108C1F804809D
:104100000D4442F00101CCF80C303046C3F808C031
:104110007D613D61C5F80CE0C5F808E06960AA5012
:1041200000F0B0FA1FE0102921D800F0A9FA1025FC
:1041300006230220774F07EB83035C68A3F1080294
:10414000944200F038816368E16823F0030323445C
:104150005A68A56842F00102E96030468D605A60F5
:1041600000F090FA0834204603B0BDE8F08F002438
:1041700020460C23336003B0BDE8F08F80214FF060
:10418000400E3F2048E770465BE723445A68E168E9
:10419000DFE723445A68304642F001025A6008348F
:1041A00000F070FA204603B0BDE8F08FBC68636889
:1041B00023F00308A84504D3C5EB08030F2B00F335
:1041C0008C80554BDFF860911A68D9F800302A448A
:1041D000013304EB080A00F0608102F580520F32CF
:1041E00022F47F6222F00F0211463046019200F065
:1041F00035FCB0F1FF3F8346019A00F058818245BB
:1042000000F2FC80454BDA4519681144196000F052
:104210005381D9F80000DFF810E101301BBFCAEB71
:104220000B0A5144CEF800B019601BF0070100F0F2
:104230001781C1F10800C1F58051834408315A4407
:10424000C2F30B02C2EB010949463046019300F06C
:1042500005FC431C019B00F03F81CBEB00024A446C
:1042600042F001021968BC424944C7F808B019601D
:10427000CBF80420DFF8A49016D0B8F10F0F40F26D
:10428000FD806268A8F10C0323F0070302F001022D
:10429000E0184FF0050E1A430F2B6260C0F804E0DF
:1042A000C0F808E000F21C811D4BBC681A689142FE
:1042B00088BF19601B4B1A689142626888BF1960F9
:1042C00022F003029542A2EB050301D80F2B04DC78
:1042D000304600F0D7F9002445E745F0010243F0ED
:1042E0000103254462603046BD6008346B6000F015
:1042F000C9F9204603B0BDE8F08F142B71D9542BB7
:1043000000F2A480280B00F16F0E4FEA4E016E30D0
:1043100082E600BF9005072088AB07208CAB072002
:1043200084AB072080AB07209C0907205A0A042A87
:104330005ED9142A00F2B38002F15C0149005B32BD
:1043400007EB810C57F82110ACF1080C8C45DFF815
:10435000D88100F088804A6822F00302934202D29A
:1043600089688C45F7D1D1F80CC07A68C4F80CC0C4
:10437000A160CCF80840CC6096E645F0010742F019
:1043800001032544676030464D610D61C5F80CE0BE
:10439000C5F808E06B60AA50083400F073F9E2E653
:1043A0004A6881E608F1010818F0030F0CF1080CC7
:1043B0007FF48CAE30E0DC68A34208BF02303FF4EB
:1043C00040AEC0E60C460B445A68C96854F8085F12
:1043D00042F001025A603046E9608D6000F052F907
:1043E000C1E603F15C0E03F15B004FEA4E0113E6F8
:1043F0009A0902F1390149003832A1E7BC424A4B1F
:104400003FF400AF9C68626822F003025AE759F853
:104410000839994540F0828010F0030F00F1FF3019
:10442000F5D17B6823EA04037B6064009C423FF67D
:10443000BDAE002C3FF4BAAE1C4240467FF442AE03
:1044400064001C4200F10400FAD03BE6B3F5AA7FF9
:1044500018D8E80B00F1780E4FEA4E017730DBE513
:104460004FF48051EBE60121D8F80430921001FAA4
:1044700002F21A43C8F80420614677E70123CBF81B
:10448000043025E740F25452934220D8A80C00F1A2
:104490007D0E4FEA4E017C30BEE51032A4E6542A70
:1044A00026D81A0B02F16F0149006E3248E7BC684A
:1044B000626822F0030205E7CAF30B0000287FF4CC
:1044C000A8AE4244BB6842F001025A60ECE6FE210D
:1044D0004FF07F0E7E209FE501224FF00009C1E6DC
:1044E00004F108013046FFF75BFAD9F80010DBE66B
:1044F000B2F5AA7F05D8DA0B02F1780149007732CC
:104500001EE740F254518A4205D89A0C02F17D010F
:1045100049007C3214E7FE217E2211E77B6884E7A4
:10452000E808431C5B0005E690050720830770B48C
:10453000CDB23DD0531E02B30278AA421ED0421C17
:1045400004E0D3B10478013BAC4217D012F0030F62
:10455000104602F10102F4D1032B11D853B30278B3
:10456000AA420BD00344421C02E00178A94205D0C4
:104570009342104602F10102F7D1002070BC70474F
:1045800004460E0206F47F462E4346EA064622689B
:1045900020467240A2F1013121EA020212F0803F6E
:1045A00004F10404DBD1043B032B2046EFD8D5E70C
:1045B0001346D1E71846E1E78842F0B50DD98B18CC
:1045C00098420AD28118002A51D09A1A13F8014D44
:1045D000934201F8014DF9D1F0BD0F2A48D941EAC3
:1045E00000039B0746D1154600F1100401F11003AA
:1045F00053F8106C103D44F8106C53F80C6C0F2DF0
:1046000044F80C6C53F8086C04F1100444F8186C6E
:1046100053F8046C03F1100344F8146CE8D8A2F1C9
:10462000100323F00F0302F00F0E1033BEF1030F3F
:104630001944034421D90E4674461D1F56F8047BC5
:10464000043C032C45F8047FF8D8AEF1040424F0B0
:10465000030404342344214402F0030262B1013B09
:104660000A4411F8014B8A4203F8014FF9D1F0BD19
:104670000346F3E70346F2E7F0BD7246EEE700BFFC
:10468000704700BF704700BF2DE9F04F174683B059
:10469000002900F08F800D46814607F10B04FFF7DB
:1046A000EFFF55F804EC162C2EF00306A5F10808D0
:1046B0003CD810221446A7423DD8964242DAC64B57
:1046C00008EB060099688842416800F0D78021F025
:1046D000010303445B68DB074CD51EF0010F00F0BB
:1046E0009D8039464846FFF775FC074600283AD0BA
:1046F00055F8043CA0F1080223F0010343449A4218
:1047000000F03E81321F242A00F22B81132A00F28E
:10471000FF8003462A461168196051685960926803
:104720009A6029464846FFF73BF91CE024F007044D
:10473000002C2246BFDA0C230020C9F8003003B059
:10474000BDE8F08F2F46331B0F2BD8F804201DD85F
:1047500002F00102324308EB0601C8F804204B685E
:1047600043F001034B604846FFF78CFF384603B027
:10477000BDE8F08F21F003013144914220DBC36892
:1047800082682F46D3600E469A60DCE702F0010291
:1047900008EB0401144343F00102C8F804400B4441
:1047A0004A605A68083142F001025A604846FFF7F1
:1047B000F7F8D8E7114603B0BDE8F04FFFF70ABCA1
:1047C0001EF0010F8DD155F8083CC3EB080ADAF84A
:1047D000043023F0030C01EB0C0E964526DB574604
:1047E000C3688168321FCB60996057F8081FDAF8F8
:1047F0000C30242ACB60996000F2C980132A40F261
:1048000092802B681B2ACAF808306B68CAF80C30F3
:1048100000F2CD8008350AF1100385E055F8083C18
:10482000C3EB080ADAF8043023F0030C06EB0C03A0
:104830009342FFF656AF5746DAF80C1057F8080FB8
:10484000321F242AC160886000F2AA80132A40F235
:10485000A58029681B2ACAF808106968CAF80C10D4
:1048600000F2BC8008350AF1100229681E4611606A
:104870006968D0465160AB68936064E721F0030B30
:1048800004F11000B344834557DA1EF0010F7FF4A2
:1048900028AF55F8081CC1EB080ADAF8041021F01B
:1048A000030CE3445845C1DC5746DAF80C1057F8BE
:1048B000080F321F242AC160886000F2B180132AD9
:1048C00040F2A28029681B2ACAF808106968CAF851
:1048D0000C1000F2AC8008350AF110022968116052
:1048E00069685160A9689160C4EB0B020AEB04018E
:1048F00042F0010299604A60DAF80430484603F059
:1049000001031C43CAF80440FFF7BCFE38462EE7FB
:104910002B681B2A03606B68436026D800F10803EC
:1049200005F10802F7E63B462A6876461A606A688F
:10493000D0465A60AA689A6005E7C4EB0B0B08EBF7
:1049400004014BF0010299604A6055F8043C484666
:1049500003F001031C4345F8044CFFF793FE28467F
:1049600005E72946FFF728FEDBE6AB68242A8360CB
:10497000EB68C36027D000F1100305F11002CAE60E
:1049800050F8043C2F4623F003031E44DBE629467F
:1049900038467646D046FFF70FFED4E63A4664E73F
:1049A000294638461E46D046FFF706FECBE6AB68E2
:1049B000242ACAF81030EB68CAF814301AD010351F
:1049C0000AF11803B0E72A6900F118030261696966
:1049D00005F1180241619EE690050720A968242A86
:1049E000CAF81010E968CAF814100FD010350AF18F
:1049F00018023AE72A690AF12003CAF818206A69FE
:104A00001835CAF81C208FE73A4667E729690AF18A
:104A10002002CAF8181069691835CAF81C1024E772
:104A2000294638460193FFF7C7FD019B5CE7A9685B
:104A3000242ACAF81010E968CAF8141003D01035F7
:104A40000AF118024AE729690AF12002CAF8181087
:104A500069691835CAF81C1040E700BF38B5074C23
:104A60000023054608462360FDF70EFA431C00D0DC
:104A700038BD2368002BFBD02B6038BDC4AB0720AA
:104A800010B50C46B1F90E1000F0C4F9002803DB94
:104A9000236D0344236510BDA38923F48053A381B0
:104AA00010BD00BF2DE9F0410C46B1F90C101F46B6
:104AB000CB051646054607D5B4F90E100223002291
:104AC00000F092F9B4F90C1021F48051A1813B4619
:104AD0003246B4F90E102846BDE8F04100F0A2B805
:104AE00010B50C46B1F90E1000F07EF9A389421CF6
:104AF0000EBF23F4805343F480532065A38110BD7F
:104B0000B1F90E1000F0F6B8F8B50E461446074697
:104B100010B1836B002B4AD0B4F90C20A36991B279
:104B20000807A36038D52369002B35D08904F5B276
:104B300015D522686169D31A8B421CDA0133A1684A
:104B4000501C0139A1602060167062699A421AD027
:104B5000A389DB0701D50A2D15D02846F8BD616E63
:104B600042F4005221F40051A28122686166616919
:104B7000D31A8B42E2DB21463846FEF7B5FD40B939
:104B800022680123DBE721463846FEF7ADFD002809
:104B9000E3D04FF0FF30F8BD21463846FEF78CFCDD
:104BA0000028F6D1B4F90C20236991B2BEE7FEF7D4
:104BB0002FFEB1E72DE9F041054686B01E460C46B2
:104BC000A1B1104B1746D3F80080FFF77DF900968E
:104BD00003463A4621462846C047431C03D10022DB
:104BE0008A2332602B6006B0BDE8F081054B1F6858
:104BF000FFF76AF900960346224603A92846B847FC
:104C0000EBE700BFA009072021B1FF2A04D80A70F2
:104C100001207047084670478A2303604FF0FF3039
:104C2000704700BF70B50D46084C114606461A463F
:104C3000284600232360FCF77DFD431C00D070BD97
:104C40002368002BFBD0336070BD00BFC4AB0720CE
:104C50002DE9F047254C064625688846D5F8484199
:104C600092469946C4B360681F2817DC411C76B190
:104C700004EB8003C3F888A0D4F888510122824055
:104C80001543022EC4F88851C3F808911ED0831C26
:104C90006160002044F82380BDE8F087144B03B323
:104CA0004FF4C870FFF78EF90446D0B1D5F84831FB
:104CB000002784E888003846C5F848410121C4F837
:104CC0008871C4F88C71002EE1D0D1E7D4F88C3112
:104CD0001A43C4F88C21DAE705F5A674C5F84841F3
:104CE000C1E74FF0FF30BDE8F08700BFEC5108008E
:104CF000C53F080038B5074C002305460846236029
:104D0000FDF7DCF8431C00D038BD2368002BFBD036
:104D10002B6038BDC4AB072000293DD070B50546D7
:104D20000C4608B1836B7BB3B4F90C300BB900208F
:104D300070BD21462846FEF733FCE36A064633B1D0
:104D4000E169284698470028B8BF4FF0FF36A3898D
:104D50001B061CD4216B41B104F14003994202D0DF
:104D60002846FEF71DFE00232363616C21B128460F
:104D7000FEF716FE00236364FEF750FD0023A381B7
:104D8000FEF74EFD304670BDFEF742FDCCE72169CF
:104D90002846FEF705FEDDE70020704738B50B46D4
:104DA000074C05461146184600232360FDF78AF894
:104DB000431C00D038BD2368002BFBD02B6038BDCE
:104DC000C4AB072038B5074C0023054608462360CE
:104DD000FDF77EF8431C00D038BD2368002BFBD0C4
:104DE0002B6038BDC4AB072070B50D46084C11468A
:104DF00006461A46284600232360FDF76BF8431C3D
:104E000000D070BD2368002BFBD0336070BD00BFA5
:104E1000C4AB072070B50D46084C114606461A462D
:104E2000284600232360FBF793F9431C00D070BD94
:104E30002368002BFBD0336070BD00BFC4AB0720DC
:104E400053B94AB9002908BF00281CBF4FF0FF31F1
:104E50004FF0FF3000F082B9ADF1080C6DE904CEDF
:104E600000F006F8DDF804E0DDE9022304B0704745
:104E70002DE9F04F8C460C460546099E002B4FD17C
:104E80008A4217466BD9B2FA82FEBEF1000F0BD0F0
:104E9000CEF1200520FA05F501FA0EF345EA030CE0
:104EA00002FA0EF700FA0EF5390CBCFBF1F0BAB2BB
:104EB00001FB10C300FB02F84FEA154C4CEA034417
:104EC000A04509D9E41900F1FF3380F02881A045FD
:104ED00040F2258102383C44C8EB0404B4FBF1F3F2
:104EE00001FB134C03FB02F2ACB244EA0C418A42D0
:104EF00009D9C91903F1FF3480F00F818A4240F2C9
:104F00000C81023B39448A1A43EA00400021002EFA
:104F100063D022FA0EF2002386E80C00BDE8F08F81
:104F20008B4207D9002E56D0002186E81100084692
:104F3000BDE8F08FB3FA83F1002940F09380A342DB
:104F400002D3824200F2FE80851A64EB03039C4682
:104F50000120002E41D086E82010BDE8F08F12B964
:104F60000127B7FBF2F7B7FA87FEBEF1000F36D183
:104F7000E41B4FEA17481FFA87F90121B4FBF8F345
:104F800008FB134409FB03F24FEA154C4CEA0444B6
:104F9000A24207D9E41903F1FF3002D2A24200F283
:104FA000D3800346A41AB4FBF8F008FB104809FBB1
:104FB00000F9ACB244EA0842914507D9D21900F190
:104FC000FF3402D2914500F2BA802046C9EB0202BA
:104FD00040EA03409BE731463046BDE8F08F07FAD0
:104FE0000EF7CEF1200C24FA0CF34FEA1748B3FB6E
:104FF000F8FA1FFA87F908FB1A3520FA0CFC04FAB4
:105000000EF40AFB09FB4CEA040C4FEA1C4242EA8C
:1050100005439B4500FA0EF50AD9DB190AF1FF3268
:1050200080F08B809B4540F28880AAF1020A3B44C5
:10503000CBEB0303B3FBF8F008FB103300FB09F4E0
:105040001FFA8CFC4CEA03439C4207D9DB1900F1A0
:10505000FF326ED29C426CD902383B441C1B40EAA2
:105060000A418BE7C1F1200E8B4022FA0EFC4CEA7C
:10507000030C24FA0EF74FEA1C49B7FBF9FA1FFAA2
:105080008CF309FB1A7720FA0EF88C400AFB03F523
:1050900048EA04044FEA144848EA0747BD4202FAC6
:1050A00001F200FA01FB09D917EB0C070AF1FF30F6
:1050B00041D2BD423FD9AAF1020A67447F1BB7FB28
:1050C000F9F509FB157705FB03F3A4B244EA07479A
:1050D000BB4208D917EB0C0705F1FF3027D2BB42C2
:1050E00025D9023D674445EA0A40A0FB0289FF1A20
:1050F0004F4545464C4614D329D066B3BBEB050358
:1051000067EB040707FA0EFECB40CF404EEA0303DD
:1051100086E888000021BDE8F08F2346F3E61846B4
:10512000DAE6B8EB020569EB0C040138E5E7054661
:10513000D9E7104692E78246C0E7924678E7023800
:105140003A4443E7084604E7023B3C442AE7C345A8
:10515000E7D33C46D1E73146BDE8F08F704700BF4A
:105160002573090925630925750925750925750D17
:105170000A00000049444C45000000000D0A0000F0
:10518000546D7220537663005461736B2031206933
:10519000732072756E6E696E670A000025730000D9
:1051A0005461736B20322069732072756E6E696E64
:1051B000670A00005461736B203100005461736B07
:1051C0002032000062696E6172792073656D6170D2
:1051D000686F7265206372656174696F6E206661C5
:1051E000696C65640A00000043000000400107206C
:1051F00030303030303030303030303030303030AF
:1052000030313233343536373839414243444546FC
:1052100000000000303132333435363738396162BE
:105220006364656600000000286E756C6C290000E0
:10523000202020202020202020202020202020206E
:10524000F8B500BFF8BC08BC9E4670478135080021
:1052500019010800F8B500BFF8BC08BC9E467047AD
:04526000F50008004D
:085264000CFCFF7F01000000BB
:10526C004FF48063204A136002F5007213601F4BE9
:10527C001B6A13F0807F07D11D4A1C4B1A621A4619
:10528C00936E13F0010FFBD01A4A184B1A621A4690
:10529C00936E13F4803FFBD0144A136B23F003037B
:1052AC0043F001031363936E13F0080FFBD0124A03
:1052BC000E4B9A621A46936E13F0020FFBD011221A
:1052CC000A4B1A631A46936E13F0080FFBD0122286
:1052DC00064B1A631A46936E13F0080FFBD0074A5D
:1052EC00074B1A60704700BF000A0E4000060E40C4
:1052FC000908370009083701013F0D2000BD0105E1
:10530C00380107201B4B984206D800231A4A136019
:10531C0002F5007213607047184B984207D84FF48F
:10532C008073154A136002F5007213607047144BBA
:10533C00984207D84FF400730F4A136002F50072BD
:10534C00136070470F4B984207D84FF440730A4ACA
:10535C00136002F50072136070470B4B984294BFB8
:10536C004FF480634FF4A063034A136002F500729C
:10537C0013607047BFEA2101000A0E407FF0FA0269
:10538C00FF8FD003FFB3C4047F4A5D05AAAAAAAA63
:10539C0000A00000FFFFFFFF00093D00000000001F
:1053AC00000000002C04072094040720FC040720B4
:1053BC0000000000000000000000000000000000E1
:1053CC0000000000000000000000000000000000D1
:1053DC0000000000E8510800000000000000000080
:1053EC0000000000000000000000000000000000B1
:1053FC0000000000000000000000000000000000A1
:10540C000000000000000000000000000000000090
:10541C000000000000000000000000000000000080
:10542C000000000000000000000000000000000070
:10543C000000000000000000000000000000000060
:10544C00000000000000000001000000000000004F
:10545C000E33CDAB34126DE6ECDE05000B00000014
:10546C000000000000000000000000000000000030
:10547C000000000000000000000000000000000020
:10548C000000000000000000000000000000000010
:10549C000000000000000000000000000000000000
:1057CC000000000000000000400107204153434945
:1057DC004900000000000000000000000000000074
:1057EC0000000000000000000000000001000000AC
:1057FC000000000000000000900507209005072025
:10580C009805072098050720A0050720A00507206C
:10581C00A8050720A8050720B0050720B00507201C
:10582C00B8050720B8050720C0050720C0050720CC
:10583C00C8050720C8050720D0050720D00507207C
:10584C00D8050720D8050720E0050720E00507202C
:10585C00E8050720E8050720F0050720F0050720DC
:10586C00F8050720F805072000060720000607208A
:10587C000806072008060720100607201006072038
:10588C0018060720180607202006072020060720E8
:10589C002806072028060720300607203006072098
:1058AC003806072038060720400607204006072048
:1058BC0048060720480607205006072050060720F8
:1058CC0058060720580607206006072060060720A8
:1058DC006806072068060720700607207006072058
:1058EC007806072078060720800607208006072008
:1058FC0088060720880607209006072090060720B8
:10590C009806072098060720A0060720A006072067
:10591C00A8060720A8060720B0060720B006072017
:10592C00B8060720B8060720C0060720C0060720C7
:10593C00C8060720C8060720D0060720D006072077
:10594C00D8060720D8060720E0060720E006072027
:10595C00E8060720E8060720F0060720F0060720D7
:10596C00F8060720F8060720000707200007072085
:10597C000807072008070720100707201007072033
:10598C0018070720180707202007072020070720E3
:10599C002807072028070720300707203007072093
:1059AC003807072038070720400707204007072043
:1059BC0048070720480707205007072050070720F3
:1059CC0058070720580707206007072060070720A3
:1059DC006807072068070720700707207007072053
:1059EC007807072078070720800707208007072003
:1059FC0088070720880707209007072090070720B3
:105A0C009807072098070720A0070720A007072062
:105A1C00A8070720A8070720B0070720B007072012
:105A2C00B8070720B8070720C0070720C0070720C2
:105A3C00C8070720C8070720D0070720D007072072
:105A4C00D8070720D8070720E0070720E007072022
:105A5C00E8070720E8070720F0070720F0070720D2
:105A6C00F8070720F8070720000807200008072080
:105A7C00080807200808072010080720100807202E
:105A8C0018080720180807202008072020080720DE
:105A9C00280807202808072030080720300807208E
:105AAC00380807203808072040080720400807203E
:105ABC0048080720480807205008072050080720EE
:105ACC00580807205808072060080720600807209E
:105ADC00680807206808072070080720700807204E
:105AEC0078080720780807208008072080080720FE
:105AFC0088080720880807209008072090080720AE
:105B0C009808072098080720A0080720A00807205D
:105B1C00A8080720A8080720B0080720B00807200D
:105B2C00B8080720B8080720C0080720C0080720BD
:105B3C00C8080720C8080720D0080720D00807206D
:105B4C00D8080720D8080720E0080720E00807201D
:105B5C00E8080720E8080720F0080720F0080720CD
:105B6C00F8080720F808072000090720000907207B
:105B7C000809072008090720100907201009072029
:105B8C0018090720180907202009072020090720D9
:105B9C002809072028090720300907203009072089
:105BAC003809072038090720400907204009072039
:105BBC0048090720480907205009072050090720E9
:105BCC005809072058090720600907206009072099
:105BDC006809072068090720700907207009072049
:105BEC0078090720780907208009072080090720F9
:105BFC00880907208809072000000200FFFFFFFF2B
:045C0C00094C080037
:0400000380001CC19C
:00000001FF
